{
  "contractName": "TestTokens",
  "abi": [
    {
      "inputs": [],
      "stateMutability": "nonpayable",
      "type": "constructor"
    },
    {
      "anonymous": false,
      "inputs": [
        {
          "indexed": true,
          "internalType": "address",
          "name": "owner",
          "type": "address"
        },
        {
          "indexed": true,
          "internalType": "address",
          "name": "approved",
          "type": "address"
        },
        {
          "indexed": true,
          "internalType": "uint256",
          "name": "tokenId",
          "type": "uint256"
        }
      ],
      "name": "Approval",
      "type": "event"
    },
    {
      "anonymous": false,
      "inputs": [
        {
          "indexed": true,
          "internalType": "address",
          "name": "owner",
          "type": "address"
        },
        {
          "indexed": true,
          "internalType": "address",
          "name": "operator",
          "type": "address"
        },
        {
          "indexed": false,
          "internalType": "bool",
          "name": "approved",
          "type": "bool"
        }
      ],
      "name": "ApprovalForAll",
      "type": "event"
    },
    {
      "anonymous": false,
      "inputs": [
        {
          "indexed": true,
          "internalType": "address",
          "name": "previousOwner",
          "type": "address"
        },
        {
          "indexed": true,
          "internalType": "address",
          "name": "newOwner",
          "type": "address"
        }
      ],
      "name": "OwnershipTransferred",
      "type": "event"
    },
    {
      "anonymous": false,
      "inputs": [
        {
          "indexed": true,
          "internalType": "address",
          "name": "from",
          "type": "address"
        },
        {
          "indexed": true,
          "internalType": "address",
          "name": "to",
          "type": "address"
        },
        {
          "indexed": true,
          "internalType": "uint256",
          "name": "tokenId",
          "type": "uint256"
        }
      ],
      "name": "Transfer",
      "type": "event"
    },
    {
      "inputs": [
        {
          "internalType": "address",
          "name": "to",
          "type": "address"
        },
        {
          "internalType": "uint256",
          "name": "tokenId",
          "type": "uint256"
        }
      ],
      "name": "approve",
      "outputs": [],
      "stateMutability": "nonpayable",
      "type": "function"
    },
    {
      "inputs": [
        {
          "internalType": "address",
          "name": "owner",
          "type": "address"
        }
      ],
      "name": "balanceOf",
      "outputs": [
        {
          "internalType": "uint256",
          "name": "",
          "type": "uint256"
        }
      ],
      "stateMutability": "view",
      "type": "function"
    },
    {
      "inputs": [],
      "name": "cost",
      "outputs": [
        {
          "internalType": "uint256",
          "name": "",
          "type": "uint256"
        }
      ],
      "stateMutability": "view",
      "type": "function"
    },
    {
      "inputs": [
        {
          "internalType": "uint256",
          "name": "tokenId",
          "type": "uint256"
        }
      ],
      "name": "getApproved",
      "outputs": [
        {
          "internalType": "address",
          "name": "",
          "type": "address"
        }
      ],
      "stateMutability": "view",
      "type": "function"
    },
    {
      "inputs": [
        {
          "internalType": "address",
          "name": "owner",
          "type": "address"
        },
        {
          "internalType": "address",
          "name": "operator",
          "type": "address"
        }
      ],
      "name": "isApprovedForAll",
      "outputs": [
        {
          "internalType": "bool",
          "name": "",
          "type": "bool"
        }
      ],
      "stateMutability": "view",
      "type": "function"
    },
    {
      "inputs": [],
      "name": "maxMintAmountPerTx",
      "outputs": [
        {
          "internalType": "uint256",
          "name": "",
          "type": "uint256"
        }
      ],
      "stateMutability": "view",
      "type": "function"
    },
    {
      "inputs": [],
      "name": "maxSupply",
      "outputs": [
        {
          "internalType": "uint256",
          "name": "",
          "type": "uint256"
        }
      ],
      "stateMutability": "view",
      "type": "function"
    },
    {
      "inputs": [],
      "name": "name",
      "outputs": [
        {
          "internalType": "string",
          "name": "",
          "type": "string"
        }
      ],
      "stateMutability": "view",
      "type": "function"
    },
    {
      "inputs": [],
      "name": "owner",
      "outputs": [
        {
          "internalType": "address",
          "name": "",
          "type": "address"
        }
      ],
      "stateMutability": "view",
      "type": "function"
    },
    {
      "inputs": [
        {
          "internalType": "uint256",
          "name": "tokenId",
          "type": "uint256"
        }
      ],
      "name": "ownerOf",
      "outputs": [
        {
          "internalType": "address",
          "name": "",
          "type": "address"
        }
      ],
      "stateMutability": "view",
      "type": "function"
    },
    {
      "inputs": [],
      "name": "paused",
      "outputs": [
        {
          "internalType": "bool",
          "name": "",
          "type": "bool"
        }
      ],
      "stateMutability": "view",
      "type": "function"
    },
    {
      "inputs": [],
      "name": "renounceOwnership",
      "outputs": [],
      "stateMutability": "nonpayable",
      "type": "function"
    },
    {
      "inputs": [
        {
          "internalType": "address",
          "name": "from",
          "type": "address"
        },
        {
          "internalType": "address",
          "name": "to",
          "type": "address"
        },
        {
          "internalType": "uint256",
          "name": "tokenId",
          "type": "uint256"
        }
      ],
      "name": "safeTransferFrom",
      "outputs": [],
      "stateMutability": "nonpayable",
      "type": "function"
    },
    {
      "inputs": [
        {
          "internalType": "address",
          "name": "from",
          "type": "address"
        },
        {
          "internalType": "address",
          "name": "to",
          "type": "address"
        },
        {
          "internalType": "uint256",
          "name": "tokenId",
          "type": "uint256"
        },
        {
          "internalType": "bytes",
          "name": "_data",
          "type": "bytes"
        }
      ],
      "name": "safeTransferFrom",
      "outputs": [],
      "stateMutability": "nonpayable",
      "type": "function"
    },
    {
      "inputs": [
        {
          "internalType": "address",
          "name": "operator",
          "type": "address"
        },
        {
          "internalType": "bool",
          "name": "approved",
          "type": "bool"
        }
      ],
      "name": "setApprovalForAll",
      "outputs": [],
      "stateMutability": "nonpayable",
      "type": "function"
    },
    {
      "inputs": [
        {
          "internalType": "bytes4",
          "name": "interfaceId",
          "type": "bytes4"
        }
      ],
      "name": "supportsInterface",
      "outputs": [
        {
          "internalType": "bool",
          "name": "",
          "type": "bool"
        }
      ],
      "stateMutability": "view",
      "type": "function"
    },
    {
      "inputs": [],
      "name": "symbol",
      "outputs": [
        {
          "internalType": "string",
          "name": "",
          "type": "string"
        }
      ],
      "stateMutability": "view",
      "type": "function"
    },
    {
      "inputs": [
        {
          "internalType": "address",
          "name": "from",
          "type": "address"
        },
        {
          "internalType": "address",
          "name": "to",
          "type": "address"
        },
        {
          "internalType": "uint256",
          "name": "tokenId",
          "type": "uint256"
        }
      ],
      "name": "transferFrom",
      "outputs": [],
      "stateMutability": "nonpayable",
      "type": "function"
    },
    {
      "inputs": [
        {
          "internalType": "address",
          "name": "newOwner",
          "type": "address"
        }
      ],
      "name": "transferOwnership",
      "outputs": [],
      "stateMutability": "nonpayable",
      "type": "function"
    },
    {
      "inputs": [],
      "name": "uriPrefix",
      "outputs": [
        {
          "internalType": "string",
          "name": "",
          "type": "string"
        }
      ],
      "stateMutability": "view",
      "type": "function"
    },
    {
      "inputs": [],
      "name": "uriSuffix",
      "outputs": [
        {
          "internalType": "string",
          "name": "",
          "type": "string"
        }
      ],
      "stateMutability": "view",
      "type": "function"
    },
    {
      "inputs": [],
      "name": "totalSupply",
      "outputs": [
        {
          "internalType": "uint256",
          "name": "",
          "type": "uint256"
        }
      ],
      "stateMutability": "view",
      "type": "function"
    },
    {
      "inputs": [
        {
          "internalType": "uint256",
          "name": "_mintAmount",
          "type": "uint256"
        }
      ],
      "name": "mint",
      "outputs": [],
      "stateMutability": "payable",
      "type": "function"
    },
    {
      "inputs": [
        {
          "internalType": "uint256",
          "name": "_mintAmount",
          "type": "uint256"
        },
        {
          "internalType": "address",
          "name": "_receiver",
          "type": "address"
        }
      ],
      "name": "mintForAddress",
      "outputs": [],
      "stateMutability": "nonpayable",
      "type": "function"
    },
    {
      "inputs": [
        {
          "internalType": "address",
          "name": "_owner",
          "type": "address"
        }
      ],
      "name": "walletOfOwner",
      "outputs": [
        {
          "internalType": "uint256[]",
          "name": "",
          "type": "uint256[]"
        }
      ],
      "stateMutability": "view",
      "type": "function"
    },
    {
      "inputs": [
        {
          "internalType": "uint256",
          "name": "_tokenId",
          "type": "uint256"
        }
      ],
      "name": "tokenURI",
      "outputs": [
        {
          "internalType": "string",
          "name": "",
          "type": "string"
        }
      ],
      "stateMutability": "view",
      "type": "function"
    },
    {
      "inputs": [
        {
          "internalType": "uint256",
          "name": "_cost",
          "type": "uint256"
        }
      ],
      "name": "setCost",
      "outputs": [],
      "stateMutability": "nonpayable",
      "type": "function"
    },
    {
      "inputs": [
        {
          "internalType": "uint256",
          "name": "_maxMintAmountPerTx",
          "type": "uint256"
        }
      ],
      "name": "setMaxMintAmountPerTx",
      "outputs": [],
      "stateMutability": "nonpayable",
      "type": "function"
    },
    {
      "inputs": [
        {
          "internalType": "bool",
          "name": "_state",
          "type": "bool"
        }
      ],
      "name": "setPaused",
      "outputs": [],
      "stateMutability": "nonpayable",
      "type": "function"
    },
    {
      "inputs": [],
      "name": "withdraw",
      "outputs": [],
      "stateMutability": "nonpayable",
      "type": "function"
    }
  ],
  "bytecode": "0x608060405260405180606001604052806036815260200162003ef360369139600890805190602001906200003592919062000256565b506040518060400160405280600581526020017f2e6a736f6e000000000000000000000000000000000000000000000000000000815250600990805190602001906200008392919062000256565b506611c37937e08000600a55600a600b556014600c556000600d60006101000a81548160ff021916908315150217905550348015620000c157600080fd5b506040518060400160405280600a81526020017f54657374546f6b656e73000000000000000000000000000000000000000000008152506040518060400160405280600281526020017f545400000000000000000000000000000000000000000000000000000000000081525081600090805190602001906200014692919062000256565b5080600190805190602001906200015f92919062000256565b50505062000182620001766200018860201b60201c565b6200019060201b60201c565b6200036b565b600033905090565b6000600660009054906101000a900473ffffffffffffffffffffffffffffffffffffffff16905081600660006101000a81548173ffffffffffffffffffffffffffffffffffffffff021916908373ffffffffffffffffffffffffffffffffffffffff1602179055508173ffffffffffffffffffffffffffffffffffffffff168173ffffffffffffffffffffffffffffffffffffffff167f8be0079c531659141344cd1fd0a4f28419497f9722a3daafe3b4186f6b6457e060405160405180910390a35050565b828054620002649062000335565b90600052602060002090601f016020900481019282620002885760008555620002d4565b82601f10620002a357805160ff1916838001178555620002d4565b82800160010185558215620002d4579182015b82811115620002d3578251825591602001919060010190620002b6565b5b509050620002e39190620002e7565b5090565b5b8082111562000302576000816000905550600101620002e8565b5090565b7f4e487b7100000000000000000000000000000000000000000000000000000000600052602260045260246000fd5b600060028204905060018216806200034e57607f821691505b6020821081141562000365576200036462000306565b5b50919050565b613b78806200037b6000396000f3fe6080604052600436106101cd5760003560e01c80636352211e116100f7578063a22cb46511610095578063d5abeb0111610064578063d5abeb0114610655578063e985e9c514610680578063efbd73f4146106bd578063f2fde38b146106e6576101cd565b8063a22cb4651461059d578063b071401b146105c6578063b88d4fde146105ef578063c87b56dd14610618576101cd565b80638da5cb5b116100d15780638da5cb5b1461050057806394354fd01461052b57806395d89b4114610556578063a0712d6814610581576101cd565b80636352211e1461046f57806370a08231146104ac578063715018a6146104e9576101cd565b806323b872dd1161016f57806344a0d68a1161013e57806344a0d68a146103c55780635503a0e8146103ee5780635c975abb1461041957806362b99ad414610444576101cd565b806323b872dd1461031f5780633ccfd60b1461034857806342842e0e1461035f578063438b630014610388576101cd565b8063095ea7b3116101ab578063095ea7b31461027757806313faede6146102a057806316c38b3c146102cb57806318160ddd146102f4576101cd565b806301ffc9a7146101d257806306fdde031461020f578063081812fc1461023a575b600080fd5b3480156101de57600080fd5b506101f960048036038101906101f491906125bf565b61070f565b6040516102069190612607565b60405180910390f35b34801561021b57600080fd5b506102246107f1565b60405161023191906126bb565b60405180910390f35b34801561024657600080fd5b50610261600480360381019061025c9190612713565b610883565b60405161026e9190612781565b60405180910390f35b34801561028357600080fd5b5061029e600480360381019061029991906127c8565b610908565b005b3480156102ac57600080fd5b506102b5610a20565b6040516102c29190612817565b60405180910390f35b3480156102d757600080fd5b506102f260048036038101906102ed919061285e565b610a26565b005b34801561030057600080fd5b50610309610abf565b6040516103169190612817565b60405180910390f35b34801561032b57600080fd5b506103466004803603810190610341919061288b565b610ad0565b005b34801561035457600080fd5b5061035d610b30565b005b34801561036b57600080fd5b506103866004803603810190610381919061288b565b610c2c565b005b34801561039457600080fd5b506103af60048036038101906103aa91906128de565b610c4c565b6040516103bc91906129c9565b60405180910390f35b3480156103d157600080fd5b506103ec60048036038101906103e79190612713565b610d57565b005b3480156103fa57600080fd5b50610403610ddd565b60405161041091906126bb565b60405180910390f35b34801561042557600080fd5b5061042e610e6b565b60405161043b9190612607565b60405180910390f35b34801561045057600080fd5b50610459610e7e565b60405161046691906126bb565b60405180910390f35b34801561047b57600080fd5b5061049660048036038101906104919190612713565b610f0c565b6040516104a39190612781565b60405180910390f35b3480156104b857600080fd5b506104d360048036038101906104ce91906128de565b610fbe565b6040516104e09190612817565b60405180910390f35b3480156104f557600080fd5b506104fe611076565b005b34801561050c57600080fd5b506105156110fe565b6040516105229190612781565b60405180910390f35b34801561053757600080fd5b50610540611128565b60405161054d9190612817565b60405180910390f35b34801561056257600080fd5b5061056b61112e565b60405161057891906126bb565b60405180910390f35b61059b60048036038101906105969190612713565b6111c0565b005b3480156105a957600080fd5b506105c460048036038101906105bf91906129eb565b611319565b005b3480156105d257600080fd5b506105ed60048036038101906105e89190612713565b61132f565b005b3480156105fb57600080fd5b5061061660048036038101906106119190612b60565b6113b5565b005b34801561062457600080fd5b5061063f600480360381019061063a9190612713565b611417565b60405161064c91906126bb565b60405180910390f35b34801561066157600080fd5b5061066a6114c1565b6040516106779190612817565b60405180910390f35b34801561068c57600080fd5b506106a760048036038101906106a29190612be3565b6114c7565b6040516106b49190612607565b60405180910390f35b3480156106c957600080fd5b506106e460048036038101906106df9190612c23565b61155b565b005b3480156106f257600080fd5b5061070d600480360381019061070891906128de565b611691565b005b60007f80ac58cd000000000000000000000000000000000000000000000000000000007bffffffffffffffffffffffffffffffffffffffffffffffffffffffff1916827bffffffffffffffffffffffffffffffffffffffffffffffffffffffff191614806107da57507f5b5e139f000000000000000000000000000000000000000000000000000000007bffffffffffffffffffffffffffffffffffffffffffffffffffffffff1916827bffffffffffffffffffffffffffffffffffffffffffffffffffffffff1916145b806107ea57506107e982611789565b5b9050919050565b60606000805461080090612c92565b80601f016020809104026020016040519081016040528092919081815260200182805461082c90612c92565b80156108795780601f1061084e57610100808354040283529160200191610879565b820191906000526020600020905b81548152906001019060200180831161085c57829003601f168201915b5050505050905090565b600061088e826117f3565b6108cd576040517f08c379a00000000000000000000000000000000000000000000000000000000081526004016108c490612d36565b60405180910390fd5b6004600083815260200190815260200160002060009054906101000a900473ffffffffffffffffffffffffffffffffffffffff169050919050565b600061091382610f0c565b90508073ffffffffffffffffffffffffffffffffffffffff168373ffffffffffffffffffffffffffffffffffffffff161415610984576040517f08c379a000000000000000000000000000000000000000000000000000000000815260040161097b90612dc8565b60405180910390fd5b8073ffffffffffffffffffffffffffffffffffffffff166109a361185f565b73ffffffffffffffffffffffffffffffffffffffff1614806109d257506109d1816109cc61185f565b6114c7565b5b610a11576040517f08c379a0000000000000000000000000000000000000000000000000000000008152600401610a0890612e5a565b60405180910390fd5b610a1b8383611867565b505050565b600a5481565b610a2e61185f565b73ffffffffffffffffffffffffffffffffffffffff16610a4c6110fe565b73ffffffffffffffffffffffffffffffffffffffff1614610aa2576040517f08c379a0000000000000000000000000000000000000000000000000000000008152600401610a9990612ec6565b60405180910390fd5b80600d60006101000a81548160ff02191690831515021790555050565b6000610acb6007611920565b905090565b610ae1610adb61185f565b8261192e565b610b20576040517f08c379a0000000000000000000000000000000000000000000000000000000008152600401610b1790612f58565b60405180910390fd5b610b2b838383611a0c565b505050565b610b3861185f565b73ffffffffffffffffffffffffffffffffffffffff16610b566110fe565b73ffffffffffffffffffffffffffffffffffffffff1614610bac576040517f08c379a0000000000000000000000000000000000000000000000000000000008152600401610ba390612ec6565b60405180910390fd5b6000610bb66110fe565b73ffffffffffffffffffffffffffffffffffffffff1647604051610bd990612fa9565b60006040518083038185875af1925050503d8060008114610c16576040519150601f19603f3d011682016040523d82523d6000602084013e610c1b565b606091505b5050905080610c2957600080fd5b50565b610c47838383604051806020016040528060008152506113b5565b505050565b60606000610c5983610fbe565b905060008167ffffffffffffffff811115610c7757610c76612a35565b5b604051908082528060200260200182016040528015610ca55781602001602082028036833780820191505090505b50905060006001905060005b8381108015610cc25750600b548211155b15610d4b576000610cd283610f0c565b90508673ffffffffffffffffffffffffffffffffffffffff168173ffffffffffffffffffffffffffffffffffffffff161415610d375782848381518110610d1c57610d1b612fbe565b5b6020026020010181815250508180610d339061301c565b9250505b8280610d429061301c565b93505050610cb1565b82945050505050919050565b610d5f61185f565b73ffffffffffffffffffffffffffffffffffffffff16610d7d6110fe565b73ffffffffffffffffffffffffffffffffffffffff1614610dd3576040517f08c379a0000000000000000000000000000000000000000000000000000000008152600401610dca90612ec6565b60405180910390fd5b80600a8190555050565b60098054610dea90612c92565b80601f0160208091040260200160405190810160405280929190818152602001828054610e1690612c92565b8015610e635780601f10610e3857610100808354040283529160200191610e63565b820191906000526020600020905b815481529060010190602001808311610e4657829003601f168201915b505050505081565b600d60009054906101000a900460ff1681565b60088054610e8b90612c92565b80601f0160208091040260200160405190810160405280929190818152602001828054610eb790612c92565b8015610f045780601f10610ed957610100808354040283529160200191610f04565b820191906000526020600020905b815481529060010190602001808311610ee757829003601f168201915b505050505081565b6000806002600084815260200190815260200160002060009054906101000a900473ffffffffffffffffffffffffffffffffffffffff169050600073ffffffffffffffffffffffffffffffffffffffff168173ffffffffffffffffffffffffffffffffffffffff161415610fb5576040517f08c379a0000000000000000000000000000000000000000000000000000000008152600401610fac906130d7565b60405180910390fd5b80915050919050565b60008073ffffffffffffffffffffffffffffffffffffffff168273ffffffffffffffffffffffffffffffffffffffff16141561102f576040517f08c379a000000000000000000000000000000000000000000000000000000000815260040161102690613169565b60405180910390fd5b600360008373ffffffffffffffffffffffffffffffffffffffff1673ffffffffffffffffffffffffffffffffffffffff168152602001908152602001600020549050919050565b61107e61185f565b73ffffffffffffffffffffffffffffffffffffffff1661109c6110fe565b73ffffffffffffffffffffffffffffffffffffffff16146110f2576040517f08c379a00000000000000000000000000000000000000000000000000000000081526004016110e990612ec6565b60405180910390fd5b6110fc6000611c73565b565b6000600660009054906101000a900473ffffffffffffffffffffffffffffffffffffffff16905090565b600c5481565b60606001805461113d90612c92565b80601f016020809104026020016040519081016040528092919081815260200182805461116990612c92565b80156111b65780601f1061118b576101008083540402835291602001916111b6565b820191906000526020600020905b81548152906001019060200180831161119957829003601f168201915b5050505050905090565b806000811180156111d35750600c548111155b611212576040517f08c379a0000000000000000000000000000000000000000000000000000000008152600401611209906131d5565b60405180910390fd5b600b54816112206007611920565b61122a91906131f5565b111561126b576040517f08c379a000000000000000000000000000000000000000000000000000000000815260040161126290613297565b60405180910390fd5b600d60009054906101000a900460ff16156112bb576040517f08c379a00000000000000000000000000000000000000000000000000000000081526004016112b290613303565b60405180910390fd5b81600a546112c99190613323565b34101561130b576040517f08c379a0000000000000000000000000000000000000000000000000000000008152600401611302906133c9565b60405180910390fd5b6113153383611d39565b5050565b61132b61132461185f565b8383611d79565b5050565b61133761185f565b73ffffffffffffffffffffffffffffffffffffffff166113556110fe565b73ffffffffffffffffffffffffffffffffffffffff16146113ab576040517f08c379a00000000000000000000000000000000000000000000000000000000081526004016113a290612ec6565b60405180910390fd5b80600c8190555050565b6113c66113c061185f565b8361192e565b611405576040517f08c379a00000000000000000000000000000000000000000000000000000000081526004016113fc90612f58565b60405180910390fd5b61141184848484611ee6565b50505050565b6060611422826117f3565b611461576040517f08c379a00000000000000000000000000000000000000000000000000000000081526004016114589061345b565b60405180910390fd5b600061146b611f42565b9050600081511161148b57604051806020016040528060008152506114b9565b8061149584611fd4565b60096040516020016114a99392919061354b565b6040516020818303038152906040525b915050919050565b600b5481565b6000600560008473ffffffffffffffffffffffffffffffffffffffff1673ffffffffffffffffffffffffffffffffffffffff16815260200190815260200160002060008373ffffffffffffffffffffffffffffffffffffffff1673ffffffffffffffffffffffffffffffffffffffff16815260200190815260200160002060009054906101000a900460ff16905092915050565b8160008111801561156e5750600c548111155b6115ad576040517f08c379a00000000000000000000000000000000000000000000000000000000081526004016115a4906131d5565b60405180910390fd5b600b54816115bb6007611920565b6115c591906131f5565b1115611606576040517f08c379a00000000000000000000000000000000000000000000000000000000081526004016115fd90613297565b60405180910390fd5b61160e61185f565b73ffffffffffffffffffffffffffffffffffffffff1661162c6110fe565b73ffffffffffffffffffffffffffffffffffffffff1614611682576040517f08c379a000000000000000000000000000000000000000000000000000000000815260040161167990612ec6565b60405180910390fd5b61168c8284611d39565b505050565b61169961185f565b73ffffffffffffffffffffffffffffffffffffffff166116b76110fe565b73ffffffffffffffffffffffffffffffffffffffff161461170d576040517f08c379a000000000000000000000000000000000000000000000000000000000815260040161170490612ec6565b60405180910390fd5b600073ffffffffffffffffffffffffffffffffffffffff168173ffffffffffffffffffffffffffffffffffffffff16141561177d576040517f08c379a0000000000000000000000000000000000000000000000000000000008152600401611774906135ee565b60405180910390fd5b61178681611c73565b50565b60007f01ffc9a7000000000000000000000000000000000000000000000000000000007bffffffffffffffffffffffffffffffffffffffffffffffffffffffff1916827bffffffffffffffffffffffffffffffffffffffffffffffffffffffff1916149050919050565b60008073ffffffffffffffffffffffffffffffffffffffff166002600084815260200190815260200160002060009054906101000a900473ffffffffffffffffffffffffffffffffffffffff1673ffffffffffffffffffffffffffffffffffffffff1614159050919050565b600033905090565b816004600083815260200190815260200160002060006101000a81548173ffffffffffffffffffffffffffffffffffffffff021916908373ffffffffffffffffffffffffffffffffffffffff160217905550808273ffffffffffffffffffffffffffffffffffffffff166118da83610f0c565b73ffffffffffffffffffffffffffffffffffffffff167f8c5be1e5ebec7d5bd14f71427d1e84f3dd0314c0f7b2291e5b200ac8c7c3b92560405160405180910390a45050565b600081600001549050919050565b6000611939826117f3565b611978576040517f08c379a000000000000000000000000000000000000000000000000000000000815260040161196f90613680565b60405180910390fd5b600061198383610f0c565b90508073ffffffffffffffffffffffffffffffffffffffff168473ffffffffffffffffffffffffffffffffffffffff1614806119f257508373ffffffffffffffffffffffffffffffffffffffff166119da84610883565b73ffffffffffffffffffffffffffffffffffffffff16145b80611a035750611a0281856114c7565b5b91505092915050565b8273ffffffffffffffffffffffffffffffffffffffff16611a2c82610f0c565b73ffffffffffffffffffffffffffffffffffffffff1614611a82576040517f08c379a0000000000000000000000000000000000000000000000000000000008152600401611a7990613712565b60405180910390fd5b600073ffffffffffffffffffffffffffffffffffffffff168273ffffffffffffffffffffffffffffffffffffffff161415611af2576040517f08c379a0000000000000000000000000000000000000000000000000000000008152600401611ae9906137a4565b60405180910390fd5b611afd838383612135565b611b08600082611867565b6001600360008573ffffffffffffffffffffffffffffffffffffffff1673ffffffffffffffffffffffffffffffffffffffff1681526020019081526020016000206000828254611b5891906137c4565b925050819055506001600360008473ffffffffffffffffffffffffffffffffffffffff1673ffffffffffffffffffffffffffffffffffffffff1681526020019081526020016000206000828254611baf91906131f5565b92505081905550816002600083815260200190815260200160002060006101000a81548173ffffffffffffffffffffffffffffffffffffffff021916908373ffffffffffffffffffffffffffffffffffffffff160217905550808273ffffffffffffffffffffffffffffffffffffffff168473ffffffffffffffffffffffffffffffffffffffff167fddf252ad1be2c89b69c2b068fc378daa952ba7f163c4a11628f55a4df523b3ef60405160405180910390a4611c6e83838361213a565b505050565b6000600660009054906101000a900473ffffffffffffffffffffffffffffffffffffffff16905081600660006101000a81548173ffffffffffffffffffffffffffffffffffffffff021916908373ffffffffffffffffffffffffffffffffffffffff1602179055508173ffffffffffffffffffffffffffffffffffffffff168173ffffffffffffffffffffffffffffffffffffffff167f8be0079c531659141344cd1fd0a4f28419497f9722a3daafe3b4186f6b6457e060405160405180910390a35050565b60005b81811015611d7457611d4e600761213f565b611d6183611d5c6007611920565b612155565b8080611d6c9061301c565b915050611d3c565b505050565b8173ffffffffffffffffffffffffffffffffffffffff168373ffffffffffffffffffffffffffffffffffffffff161415611de8576040517f08c379a0000000000000000000000000000000000000000000000000000000008152600401611ddf90613844565b60405180910390fd5b80600560008573ffffffffffffffffffffffffffffffffffffffff1673ffffffffffffffffffffffffffffffffffffffff16815260200190815260200160002060008473ffffffffffffffffffffffffffffffffffffffff1673ffffffffffffffffffffffffffffffffffffffff16815260200190815260200160002060006101000a81548160ff0219169083151502179055508173ffffffffffffffffffffffffffffffffffffffff168373ffffffffffffffffffffffffffffffffffffffff167f17307eab39ab6107e8899845ad3d59bd9653f200f220920489ca2b5937696c3183604051611ed99190612607565b60405180910390a3505050565b611ef1848484611a0c565b611efd84848484612173565b611f3c576040517f08c379a0000000000000000000000000000000000000000000000000000000008152600401611f33906138d6565b60405180910390fd5b50505050565b606060088054611f5190612c92565b80601f0160208091040260200160405190810160405280929190818152602001828054611f7d90612c92565b8015611fca5780601f10611f9f57610100808354040283529160200191611fca565b820191906000526020600020905b815481529060010190602001808311611fad57829003601f168201915b5050505050905090565b6060600082141561201c576040518060400160405280600181526020017f30000000000000000000000000000000000000000000000000000000000000008152509050612130565b600082905060005b6000821461204e5780806120379061301c565b915050600a826120479190613925565b9150612024565b60008167ffffffffffffffff81111561206a57612069612a35565b5b6040519080825280601f01601f19166020018201604052801561209c5781602001600182028036833780820191505090505b5090505b60008514612129576001826120b591906137c4565b9150600a856120c49190613956565b60306120d091906131f5565b60f81b8183815181106120e6576120e5612fbe565b5b60200101907effffffffffffffffffffffffffffffffffffffffffffffffffffffffffffff1916908160001a905350600a856121229190613925565b94506120a0565b8093505050505b919050565b505050565b505050565b6001816000016000828254019250508190555050565b61216f8282604051806020016040528060008152506122fb565b5050565b60006121948473ffffffffffffffffffffffffffffffffffffffff16612356565b156122ee578373ffffffffffffffffffffffffffffffffffffffff1663150b7a026121bd61185f565b8786866040518563ffffffff1660e01b81526004016121df94939291906139dc565b6020604051808303816000875af192505050801561221b57506040513d601f19601f820116820180604052508101906122189190613a3d565b60015b61229e573d806000811461224b576040519150601f19603f3d011682016040523d82523d6000602084013e612250565b606091505b50600081511415612296576040517f08c379a000000000000000000000000000000000000000000000000000000000815260040161228d906138d6565b60405180910390fd5b805181602001fd5b63150b7a0260e01b7bffffffffffffffffffffffffffffffffffffffffffffffffffffffff1916817bffffffffffffffffffffffffffffffffffffffffffffffffffffffff1916149150506122f3565b600190505b949350505050565b6123058383612379565b6123126000848484612173565b612351576040517f08c379a0000000000000000000000000000000000000000000000000000000008152600401612348906138d6565b60405180910390fd5b505050565b6000808273ffffffffffffffffffffffffffffffffffffffff163b119050919050565b600073ffffffffffffffffffffffffffffffffffffffff168273ffffffffffffffffffffffffffffffffffffffff1614156123e9576040517f08c379a00000000000000000000000000000000000000000000000000000000081526004016123e090613ab6565b60405180910390fd5b6123f2816117f3565b15612432576040517f08c379a000000000000000000000000000000000000000000000000000000000815260040161242990613b22565b60405180910390fd5b61243e60008383612135565b6001600360008473ffffffffffffffffffffffffffffffffffffffff1673ffffffffffffffffffffffffffffffffffffffff168152602001908152602001600020600082825461248e91906131f5565b92505081905550816002600083815260200190815260200160002060006101000a81548173ffffffffffffffffffffffffffffffffffffffff021916908373ffffffffffffffffffffffffffffffffffffffff160217905550808273ffffffffffffffffffffffffffffffffffffffff16600073ffffffffffffffffffffffffffffffffffffffff167fddf252ad1be2c89b69c2b068fc378daa952ba7f163c4a11628f55a4df523b3ef60405160405180910390a461254f6000838361213a565b5050565b6000604051905090565b600080fd5b600080fd5b60007fffffffff0000000000000000000000000000000000000000000000000000000082169050919050565b61259c81612567565b81146125a757600080fd5b50565b6000813590506125b981612593565b92915050565b6000602082840312156125d5576125d461255d565b5b60006125e3848285016125aa565b91505092915050565b60008115159050919050565b612601816125ec565b82525050565b600060208201905061261c60008301846125f8565b92915050565b600081519050919050565b600082825260208201905092915050565b60005b8381101561265c578082015181840152602081019050612641565b8381111561266b576000848401525b50505050565b6000601f19601f8301169050919050565b600061268d82612622565b612697818561262d565b93506126a781856020860161263e565b6126b081612671565b840191505092915050565b600060208201905081810360008301526126d58184612682565b905092915050565b6000819050919050565b6126f0816126dd565b81146126fb57600080fd5b50565b60008135905061270d816126e7565b92915050565b6000602082840312156127295761272861255d565b5b6000612737848285016126fe565b91505092915050565b600073ffffffffffffffffffffffffffffffffffffffff82169050919050565b600061276b82612740565b9050919050565b61277b81612760565b82525050565b60006020820190506127966000830184612772565b92915050565b6127a581612760565b81146127b057600080fd5b50565b6000813590506127c28161279c565b92915050565b600080604083850312156127df576127de61255d565b5b60006127ed858286016127b3565b92505060206127fe858286016126fe565b9150509250929050565b612811816126dd565b82525050565b600060208201905061282c6000830184612808565b92915050565b61283b816125ec565b811461284657600080fd5b50565b60008135905061285881612832565b92915050565b6000602082840312156128745761287361255d565b5b600061288284828501612849565b91505092915050565b6000806000606084860312156128a4576128a361255d565b5b60006128b2868287016127b3565b93505060206128c3868287016127b3565b92505060406128d4868287016126fe565b9150509250925092565b6000602082840312156128f4576128f361255d565b5b6000612902848285016127b3565b91505092915050565b600081519050919050565b600082825260208201905092915050565b6000819050602082019050919050565b612940816126dd565b82525050565b60006129528383612937565b60208301905092915050565b6000602082019050919050565b60006129768261290b565b6129808185612916565b935061298b83612927565b8060005b838110156129bc5781516129a38882612946565b97506129ae8361295e565b92505060018101905061298f565b5085935050505092915050565b600060208201905081810360008301526129e3818461296b565b905092915050565b60008060408385031215612a0257612a0161255d565b5b6000612a10858286016127b3565b9250506020612a2185828601612849565b9150509250929050565b600080fd5b600080fd5b7f4e487b7100000000000000000000000000000000000000000000000000000000600052604160045260246000fd5b612a6d82612671565b810181811067ffffffffffffffff82111715612a8c57612a8b612a35565b5b80604052505050565b6000612a9f612553565b9050612aab8282612a64565b919050565b600067ffffffffffffffff821115612acb57612aca612a35565b5b612ad482612671565b9050602081019050919050565b82818337600083830152505050565b6000612b03612afe84612ab0565b612a95565b905082815260208101848484011115612b1f57612b1e612a30565b5b612b2a848285612ae1565b509392505050565b600082601f830112612b4757612b46612a2b565b5b8135612b57848260208601612af0565b91505092915050565b60008060008060808587031215612b7a57612b7961255d565b5b6000612b88878288016127b3565b9450506020612b99878288016127b3565b9350506040612baa878288016126fe565b925050606085013567ffffffffffffffff811115612bcb57612bca612562565b5b612bd787828801612b32565b91505092959194509250565b60008060408385031215612bfa57612bf961255d565b5b6000612c08858286016127b3565b9250506020612c19858286016127b3565b9150509250929050565b60008060408385031215612c3a57612c3961255d565b5b6000612c48858286016126fe565b9250506020612c59858286016127b3565b9150509250929050565b7f4e487b7100000000000000000000000000000000000000000000000000000000600052602260045260246000fd5b60006002820490506001821680612caa57607f821691505b60208210811415612cbe57612cbd612c63565b5b50919050565b7f4552433732313a20617070726f76656420717565727920666f72206e6f6e657860008201527f697374656e7420746f6b656e0000000000000000000000000000000000000000602082015250565b6000612d20602c8361262d565b9150612d2b82612cc4565b604082019050919050565b60006020820190508181036000830152612d4f81612d13565b9050919050565b7f4552433732313a20617070726f76616c20746f2063757272656e74206f776e6560008201527f7200000000000000000000000000000000000000000000000000000000000000602082015250565b6000612db260218361262d565b9150612dbd82612d56565b604082019050919050565b60006020820190508181036000830152612de181612da5565b9050919050565b7f4552433732313a20617070726f76652063616c6c6572206973206e6f74206f7760008201527f6e6572206e6f7220617070726f76656420666f7220616c6c0000000000000000602082015250565b6000612e4460388361262d565b9150612e4f82612de8565b604082019050919050565b60006020820190508181036000830152612e7381612e37565b9050919050565b7f4f776e61626c653a2063616c6c6572206973206e6f7420746865206f776e6572600082015250565b6000612eb060208361262d565b9150612ebb82612e7a565b602082019050919050565b60006020820190508181036000830152612edf81612ea3565b9050919050565b7f4552433732313a207472616e736665722063616c6c6572206973206e6f74206f60008201527f776e6572206e6f7220617070726f766564000000000000000000000000000000602082015250565b6000612f4260318361262d565b9150612f4d82612ee6565b604082019050919050565b60006020820190508181036000830152612f7181612f35565b9050919050565b600081905092915050565b50565b6000612f93600083612f78565b9150612f9e82612f83565b600082019050919050565b6000612fb482612f86565b9150819050919050565b7f4e487b7100000000000000000000000000000000000000000000000000000000600052603260045260246000fd5b7f4e487b7100000000000000000000000000000000000000000000000000000000600052601160045260246000fd5b6000613027826126dd565b91507fffffffffffffffffffffffffffffffffffffffffffffffffffffffffffffffff82141561305a57613059612fed565b5b600182019050919050565b7f4552433732313a206f776e657220717565727920666f72206e6f6e657869737460008201527f656e7420746f6b656e0000000000000000000000000000000000000000000000602082015250565b60006130c160298361262d565b91506130cc82613065565b604082019050919050565b600060208201905081810360008301526130f0816130b4565b9050919050565b7f4552433732313a2062616c616e636520717565727920666f7220746865207a6560008201527f726f206164647265737300000000000000000000000000000000000000000000602082015250565b6000613153602a8361262d565b915061315e826130f7565b604082019050919050565b6000602082019050818103600083015261318281613146565b9050919050565b7f496e76616c6964206d696e7420616d6f756e7421000000000000000000000000600082015250565b60006131bf60148361262d565b91506131ca82613189565b602082019050919050565b600060208201905081810360008301526131ee816131b2565b9050919050565b6000613200826126dd565b915061320b836126dd565b9250827fffffffffffffffffffffffffffffffffffffffffffffffffffffffffffffffff038211156132405761323f612fed565b5b828201905092915050565b7f4d617820737570706c7920657863656564656421000000000000000000000000600082015250565b600061328160148361262d565b915061328c8261324b565b602082019050919050565b600060208201905081810360008301526132b081613274565b9050919050565b7f54686520636f6e74726163742069732070617573656421000000000000000000600082015250565b60006132ed60178361262d565b91506132f8826132b7565b602082019050919050565b6000602082019050818103600083015261331c816132e0565b9050919050565b600061332e826126dd565b9150613339836126dd565b9250817fffffffffffffffffffffffffffffffffffffffffffffffffffffffffffffffff048311821515161561337257613371612fed565b5b828202905092915050565b7f496e73756666696369656e742066756e64732100000000000000000000000000600082015250565b60006133b360138361262d565b91506133be8261337d565b602082019050919050565b600060208201905081810360008301526133e2816133a6565b9050919050565b7f4552433732314d657461646174613a20546f6b656e20646f6573206e6f74206560008201527f786973742e204e6f2076616c6964206d657461646174612e0000000000000000602082015250565b600061344560388361262d565b9150613450826133e9565b604082019050919050565b6000602082019050818103600083015261347481613438565b9050919050565b600081905092915050565b600061349182612622565b61349b818561347b565b93506134ab81856020860161263e565b80840191505092915050565b60008190508160005260206000209050919050565b600081546134d981612c92565b6134e3818661347b565b945060018216600081146134fe576001811461350f57613542565b60ff19831686528186019350613542565b613518856134b7565b60005b8381101561353a5781548189015260018201915060208101905061351b565b838801955050505b50505092915050565b60006135578286613486565b91506135638285613486565b915061356f82846134cc565b9150819050949350505050565b7f4f776e61626c653a206e6577206f776e657220697320746865207a65726f206160008201527f6464726573730000000000000000000000000000000000000000000000000000602082015250565b60006135d860268361262d565b91506135e38261357c565b604082019050919050565b60006020820190508181036000830152613607816135cb565b9050919050565b7f4552433732313a206f70657261746f7220717565727920666f72206e6f6e657860008201527f697374656e7420746f6b656e0000000000000000000000000000000000000000602082015250565b600061366a602c8361262d565b91506136758261360e565b604082019050919050565b600060208201905081810360008301526136998161365d565b9050919050565b7f4552433732313a207472616e736665722066726f6d20696e636f72726563742060008201527f6f776e6572000000000000000000000000000000000000000000000000000000602082015250565b60006136fc60258361262d565b9150613707826136a0565b604082019050919050565b6000602082019050818103600083015261372b816136ef565b9050919050565b7f4552433732313a207472616e7366657220746f20746865207a65726f2061646460008201527f7265737300000000000000000000000000000000000000000000000000000000602082015250565b600061378e60248361262d565b915061379982613732565b604082019050919050565b600060208201905081810360008301526137bd81613781565b9050919050565b60006137cf826126dd565b91506137da836126dd565b9250828210156137ed576137ec612fed565b5b828203905092915050565b7f4552433732313a20617070726f766520746f2063616c6c657200000000000000600082015250565b600061382e60198361262d565b9150613839826137f8565b602082019050919050565b6000602082019050818103600083015261385d81613821565b9050919050565b7f4552433732313a207472616e7366657220746f206e6f6e20455243373231526560008201527f63656976657220696d706c656d656e7465720000000000000000000000000000602082015250565b60006138c060328361262d565b91506138cb82613864565b604082019050919050565b600060208201905081810360008301526138ef816138b3565b9050919050565b7f4e487b7100000000000000000000000000000000000000000000000000000000600052601260045260246000fd5b6000613930826126dd565b915061393b836126dd565b92508261394b5761394a6138f6565b5b828204905092915050565b6000613961826126dd565b915061396c836126dd565b92508261397c5761397b6138f6565b5b828206905092915050565b600081519050919050565b600082825260208201905092915050565b60006139ae82613987565b6139b88185613992565b93506139c881856020860161263e565b6139d181612671565b840191505092915050565b60006080820190506139f16000830187612772565b6139fe6020830186612772565b613a0b6040830185612808565b8181036060830152613a1d81846139a3565b905095945050505050565b600081519050613a3781612593565b92915050565b600060208284031215613a5357613a5261255d565b5b6000613a6184828501613a28565b91505092915050565b7f4552433732313a206d696e7420746f20746865207a65726f2061646472657373600082015250565b6000613aa060208361262d565b9150613aab82613a6a565b602082019050919050565b60006020820190508181036000830152613acf81613a93565b9050919050565b7f4552433732313a20746f6b656e20616c7265616479206d696e74656400000000600082015250565b6000613b0c601c8361262d565b9150613b1782613ad6565b602082019050919050565b60006020820190508181036000830152613b3b81613aff565b905091905056fea26469706673582212203cd2832d9b23deb480734a35d95b4b3638ab0de9d08cb05e4248cecec49acaf164736f6c634300080b0033697066733a2f2f516d553559536b636564676255726f6d704c4d7471374a6d6f58376b3171734c457371796865764559516b4a464e2f",
  "immutableReferences": {},
  "source": "// SPDX-License-Identifier: MIT\r\n// File: @openzeppelin/contracts/utils/Counters.sol\r\n\r\n// OpenZeppelin Contracts v4.4.1 (utils/Counters.sol)\r\n\r\npragma solidity ^0.8.0;\r\n\r\n/**\r\n * @title Counters\r\n * @author Matt Condon (@shrugs)\r\n * @dev Provides counters that can only be incremented, decremented or reset. This can be used e.g. to track the number\r\n * of elements in a mapping, issuing ERC721 ids, or counting request ids.\r\n *\r\n * Include with `using Counters for Counters.Counter;`\r\n */\r\nlibrary Counters {\r\n    struct Counter {\r\n        // This variable should never be directly accessed by users of the library: interactions must be restricted to\r\n        // the library's function. As of Solidity v0.5.2, this cannot be enforced, though there is a proposal to add\r\n        // this feature: see https://github.com/ethereum/solidity/issues/4637\r\n        uint256 _value; // default: 0\r\n    }\r\n\r\n    function current(Counter storage counter) internal view returns (uint256) {\r\n        return counter._value;\r\n    }\r\n\r\n    function increment(Counter storage counter) internal {\r\n        unchecked {\r\n            counter._value += 1;\r\n        }\r\n    }\r\n\r\n    function decrement(Counter storage counter) internal {\r\n        uint256 value = counter._value;\r\n        require(value > 0, \"Counter: decrement overflow\");\r\n        unchecked {\r\n            counter._value = value - 1;\r\n        }\r\n    }\r\n\r\n    function reset(Counter storage counter) internal {\r\n        counter._value = 0;\r\n    }\r\n}\r\n\r\n// File: @openzeppelin/contracts/utils/Strings.sol\r\n\r\n// OpenZeppelin Contracts v4.4.1 (utils/Strings.sol)\r\n\r\npragma solidity ^0.8.0;\r\n\r\n/**\r\n * @dev String operations.\r\n */\r\nlibrary Strings {\r\n    bytes16 private constant _HEX_SYMBOLS = \"0123456789abcdef\";\r\n\r\n    /**\r\n     * @dev Converts a `uint256` to its ASCII `string` decimal representation.\r\n     */\r\n    function toString(uint256 value) internal pure returns (string memory) {\r\n        // Inspired by OraclizeAPI's implementation - MIT licence\r\n        // https://github.com/oraclize/ethereum-api/blob/b42146b063c7d6ee1358846c198246239e9360e8/oraclizeAPI_0.4.25.sol\r\n\r\n        if (value == 0) {\r\n            return \"0\";\r\n        }\r\n        uint256 temp = value;\r\n        uint256 digits;\r\n        while (temp != 0) {\r\n            digits++;\r\n            temp /= 10;\r\n        }\r\n        bytes memory buffer = new bytes(digits);\r\n        while (value != 0) {\r\n            digits -= 1;\r\n            buffer[digits] = bytes1(uint8(48 + uint256(value % 10)));\r\n            value /= 10;\r\n        }\r\n        return string(buffer);\r\n    }\r\n\r\n    /**\r\n     * @dev Converts a `uint256` to its ASCII `string` hexadecimal representation.\r\n     */\r\n    function toHexString(uint256 value) internal pure returns (string memory) {\r\n        if (value == 0) {\r\n            return \"0x00\";\r\n        }\r\n        uint256 temp = value;\r\n        uint256 length = 0;\r\n        while (temp != 0) {\r\n            length++;\r\n            temp >>= 8;\r\n        }\r\n        return toHexString(value, length);\r\n    }\r\n\r\n    /**\r\n     * @dev Converts a `uint256` to its ASCII `string` hexadecimal representation with fixed length.\r\n     */\r\n    function toHexString(uint256 value, uint256 length)\r\n        internal\r\n        pure\r\n        returns (string memory)\r\n    {\r\n        bytes memory buffer = new bytes(2 * length + 2);\r\n        buffer[0] = \"0\";\r\n        buffer[1] = \"x\";\r\n        for (uint256 i = 2 * length + 1; i > 1; --i) {\r\n            buffer[i] = _HEX_SYMBOLS[value & 0xf];\r\n            value >>= 4;\r\n        }\r\n        require(value == 0, \"Strings: hex length insufficient\");\r\n        return string(buffer);\r\n    }\r\n}\r\n\r\n// File: @openzeppelin/contracts/utils/Context.sol\r\n\r\n// OpenZeppelin Contracts v4.4.1 (utils/Context.sol)\r\n\r\npragma solidity ^0.8.0;\r\n\r\n/**\r\n * @dev Provides information about the current execution context, including the\r\n * sender of the transaction and its data. While these are generally available\r\n * via msg.sender and msg.data, they should not be accessed in such a direct\r\n * manner, since when dealing with meta-transactions the account sending and\r\n * paying for execution may not be the actual sender (as far as an application\r\n * is concerned).\r\n *\r\n * This contract is only required for intermediate, library-like contracts.\r\n */\r\nabstract contract Context {\r\n    function _msgSender() internal view virtual returns (address) {\r\n        return msg.sender;\r\n    }\r\n\r\n    function _msgData() internal view virtual returns (bytes calldata) {\r\n        return msg.data;\r\n    }\r\n}\r\n\r\n// File: @openzeppelin/contracts/access/Ownable.sol\r\n\r\n// OpenZeppelin Contracts v4.4.1 (access/Ownable.sol)\r\n\r\npragma solidity ^0.8.0;\r\n\r\n/**\r\n * @dev Contract module which provides a basic access control mechanism, where\r\n * there is an account (an owner) that can be granted exclusive access to\r\n * specific functions.\r\n *\r\n * By default, the owner account will be the one that deploys the contract. This\r\n * can later be changed with {transferOwnership}.\r\n *\r\n * This module is used through inheritance. It will make available the modifier\r\n * `onlyOwner`, which can be applied to your functions to restrict their use to\r\n * the owner.\r\n */\r\nabstract contract Ownable is Context {\r\n    address private _owner;\r\n\r\n    event OwnershipTransferred(\r\n        address indexed previousOwner,\r\n        address indexed newOwner\r\n    );\r\n\r\n    /**\r\n     * @dev Initializes the contract setting the deployer as the initial owner.\r\n     */\r\n    constructor() {\r\n        _transferOwnership(_msgSender());\r\n    }\r\n\r\n    /**\r\n     * @dev Returns the address of the current owner.\r\n     */\r\n    function owner() public view virtual returns (address) {\r\n        return _owner;\r\n    }\r\n\r\n    /**\r\n     * @dev Throws if called by any account other than the owner.\r\n     */\r\n    modifier onlyOwner() {\r\n        require(owner() == _msgSender(), \"Ownable: caller is not the owner\");\r\n        _;\r\n    }\r\n\r\n    /**\r\n     * @dev Leaves the contract without owner. It will not be possible to call\r\n     * `onlyOwner` functions anymore. Can only be called by the current owner.\r\n     *\r\n     * NOTE: Renouncing ownership will leave the contract without an owner,\r\n     * thereby removing any functionality that is only available to the owner.\r\n     */\r\n    function renounceOwnership() public virtual onlyOwner {\r\n        _transferOwnership(address(0));\r\n    }\r\n\r\n    /**\r\n     * @dev Transfers ownership of the contract to a new account (`newOwner`).\r\n     * Can only be called by the current owner.\r\n     */\r\n    function transferOwnership(address newOwner) public virtual onlyOwner {\r\n        require(\r\n            newOwner != address(0),\r\n            \"Ownable: new owner is the zero address\"\r\n        );\r\n        _transferOwnership(newOwner);\r\n    }\r\n\r\n    /**\r\n     * @dev Transfers ownership of the contract to a new account (`newOwner`).\r\n     * Internal function without access restriction.\r\n     */\r\n    function _transferOwnership(address newOwner) internal virtual {\r\n        address oldOwner = _owner;\r\n        _owner = newOwner;\r\n        emit OwnershipTransferred(oldOwner, newOwner);\r\n    }\r\n}\r\n\r\n// File: @openzeppelin/contracts/utils/Address.sol\r\n\r\n// OpenZeppelin Contracts (last updated v4.5.0) (utils/Address.sol)\r\n\r\npragma solidity ^0.8.1;\r\n\r\n/**\r\n * @dev Collection of functions related to the address type\r\n */\r\nlibrary Address {\r\n    /**\r\n     * @dev Returns true if `account` is a contract.\r\n     *\r\n     * [IMPORTANT]\r\n     * ====\r\n     * It is unsafe to assume that an address for which this function returns\r\n     * false is an externally-owned account (EOA) and not a contract.\r\n     *\r\n     * Among others, `isContract` will return false for the following\r\n     * types of addresses:\r\n     *\r\n     *  - an externally-owned account\r\n     *  - a contract in construction\r\n     *  - an address where a contract will be created\r\n     *  - an address where a contract lived, but was destroyed\r\n     * ====\r\n     *\r\n     * [IMPORTANT]\r\n     * ====\r\n     * You shouldn't rely on `isContract` to protect against flash loan attacks!\r\n     *\r\n     * Preventing calls from contracts is highly discouraged. It breaks composability, breaks support for smart wallets\r\n     * like Gnosis Safe, and does not provide security since it can be circumvented by calling from a contract\r\n     * constructor.\r\n     * ====\r\n     */\r\n    function isContract(address account) internal view returns (bool) {\r\n        // This method relies on extcodesize/address.code.length, which returns 0\r\n        // for contracts in construction, since the code is only stored at the end\r\n        // of the constructor execution.\r\n\r\n        return account.code.length > 0;\r\n    }\r\n\r\n    /**\r\n     * @dev Replacement for Solidity's `transfer`: sends `amount` wei to\r\n     * `recipient`, forwarding all available gas and reverting on errors.\r\n     *\r\n     * https://eips.ethereum.org/EIPS/eip-1884[EIP1884] increases the gas cost\r\n     * of certain opcodes, possibly making contracts go over the 2300 gas limit\r\n     * imposed by `transfer`, making them unable to receive funds via\r\n     * `transfer`. {sendValue} removes this limitation.\r\n     *\r\n     * https://diligence.consensys.net/posts/2019/09/stop-using-soliditys-transfer-now/[Learn more].\r\n     *\r\n     * IMPORTANT: because control is transferred to `recipient`, care must be\r\n     * taken to not create reentrancy vulnerabilities. Consider using\r\n     * {ReentrancyGuard} or the\r\n     * https://solidity.readthedocs.io/en/v0.5.11/security-considerations.html#use-the-checks-effects-interactions-pattern[checks-effects-interactions pattern].\r\n     */\r\n    function sendValue(address payable recipient, uint256 amount) internal {\r\n        require(\r\n            address(this).balance >= amount,\r\n            \"Address: insufficient balance\"\r\n        );\r\n\r\n        (bool success, ) = recipient.call{value: amount}(\"\");\r\n        require(\r\n            success,\r\n            \"Address: unable to send value, recipient may have reverted\"\r\n        );\r\n    }\r\n\r\n    /**\r\n     * @dev Performs a Solidity function call using a low level `call`. A\r\n     * plain `call` is an unsafe replacement for a function call: use this\r\n     * function instead.\r\n     *\r\n     * If `target` reverts with a revert reason, it is bubbled up by this\r\n     * function (like regular Solidity function calls).\r\n     *\r\n     * Returns the raw returned data. To convert to the expected return value,\r\n     * use https://solidity.readthedocs.io/en/latest/units-and-global-variables.html?highlight=abi.decode#abi-encoding-and-decoding-functions[`abi.decode`].\r\n     *\r\n     * Requirements:\r\n     *\r\n     * - `target` must be a contract.\r\n     * - calling `target` with `data` must not revert.\r\n     *\r\n     * _Available since v3.1._\r\n     */\r\n    function functionCall(address target, bytes memory data)\r\n        internal\r\n        returns (bytes memory)\r\n    {\r\n        return functionCall(target, data, \"Address: low-level call failed\");\r\n    }\r\n\r\n    /**\r\n     * @dev Same as {xref-Address-functionCall-address-bytes-}[`functionCall`], but with\r\n     * `errorMessage` as a fallback revert reason when `target` reverts.\r\n     *\r\n     * _Available since v3.1._\r\n     */\r\n    function functionCall(\r\n        address target,\r\n        bytes memory data,\r\n        string memory errorMessage\r\n    ) internal returns (bytes memory) {\r\n        return functionCallWithValue(target, data, 0, errorMessage);\r\n    }\r\n\r\n    /**\r\n     * @dev Same as {xref-Address-functionCall-address-bytes-}[`functionCall`],\r\n     * but also transferring `value` wei to `target`.\r\n     *\r\n     * Requirements:\r\n     *\r\n     * - the calling contract must have an ETH balance of at least `value`.\r\n     * - the called Solidity function must be `payable`.\r\n     *\r\n     * _Available since v3.1._\r\n     */\r\n    function functionCallWithValue(\r\n        address target,\r\n        bytes memory data,\r\n        uint256 value\r\n    ) internal returns (bytes memory) {\r\n        return\r\n            functionCallWithValue(\r\n                target,\r\n                data,\r\n                value,\r\n                \"Address: low-level call with value failed\"\r\n            );\r\n    }\r\n\r\n    /**\r\n     * @dev Same as {xref-Address-functionCallWithValue-address-bytes-uint256-}[`functionCallWithValue`], but\r\n     * with `errorMessage` as a fallback revert reason when `target` reverts.\r\n     *\r\n     * _Available since v3.1._\r\n     */\r\n    function functionCallWithValue(\r\n        address target,\r\n        bytes memory data,\r\n        uint256 value,\r\n        string memory errorMessage\r\n    ) internal returns (bytes memory) {\r\n        require(\r\n            address(this).balance >= value,\r\n            \"Address: insufficient balance for call\"\r\n        );\r\n        require(isContract(target), \"Address: call to non-contract\");\r\n\r\n        (bool success, bytes memory returndata) = target.call{value: value}(\r\n            data\r\n        );\r\n        return verifyCallResult(success, returndata, errorMessage);\r\n    }\r\n\r\n    /**\r\n     * @dev Same as {xref-Address-functionCall-address-bytes-}[`functionCall`],\r\n     * but performing a static call.\r\n     *\r\n     * _Available since v3.3._\r\n     */\r\n    function functionStaticCall(address target, bytes memory data)\r\n        internal\r\n        view\r\n        returns (bytes memory)\r\n    {\r\n        return\r\n            functionStaticCall(\r\n                target,\r\n                data,\r\n                \"Address: low-level static call failed\"\r\n            );\r\n    }\r\n\r\n    /**\r\n     * @dev Same as {xref-Address-functionCall-address-bytes-string-}[`functionCall`],\r\n     * but performing a static call.\r\n     *\r\n     * _Available since v3.3._\r\n     */\r\n    function functionStaticCall(\r\n        address target,\r\n        bytes memory data,\r\n        string memory errorMessage\r\n    ) internal view returns (bytes memory) {\r\n        require(isContract(target), \"Address: static call to non-contract\");\r\n\r\n        (bool success, bytes memory returndata) = target.staticcall(data);\r\n        return verifyCallResult(success, returndata, errorMessage);\r\n    }\r\n\r\n    /**\r\n     * @dev Same as {xref-Address-functionCall-address-bytes-}[`functionCall`],\r\n     * but performing a delegate call.\r\n     *\r\n     * _Available since v3.4._\r\n     */\r\n    function functionDelegateCall(address target, bytes memory data)\r\n        internal\r\n        returns (bytes memory)\r\n    {\r\n        return\r\n            functionDelegateCall(\r\n                target,\r\n                data,\r\n                \"Address: low-level delegate call failed\"\r\n            );\r\n    }\r\n\r\n    /**\r\n     * @dev Same as {xref-Address-functionCall-address-bytes-string-}[`functionCall`],\r\n     * but performing a delegate call.\r\n     *\r\n     * _Available since v3.4._\r\n     */\r\n    function functionDelegateCall(\r\n        address target,\r\n        bytes memory data,\r\n        string memory errorMessage\r\n    ) internal returns (bytes memory) {\r\n        require(isContract(target), \"Address: delegate call to non-contract\");\r\n\r\n        (bool success, bytes memory returndata) = target.delegatecall(data);\r\n        return verifyCallResult(success, returndata, errorMessage);\r\n    }\r\n\r\n    /**\r\n     * @dev Tool to verifies that a low level call was successful, and revert if it wasn't, either by bubbling the\r\n     * revert reason using the provided one.\r\n     *\r\n     * _Available since v4.3._\r\n     */\r\n    function verifyCallResult(\r\n        bool success,\r\n        bytes memory returndata,\r\n        string memory errorMessage\r\n    ) internal pure returns (bytes memory) {\r\n        if (success) {\r\n            return returndata;\r\n        } else {\r\n            // Look for revert reason and bubble it up if present\r\n            if (returndata.length > 0) {\r\n                // The easiest way to bubble the revert reason is using memory via assembly\r\n\r\n                assembly {\r\n                    let returndata_size := mload(returndata)\r\n                    revert(add(32, returndata), returndata_size)\r\n                }\r\n            } else {\r\n                revert(errorMessage);\r\n            }\r\n        }\r\n    }\r\n}\r\n\r\n// File: @openzeppelin/contracts/token/ERC721/IERC721Receiver.sol\r\n\r\n// OpenZeppelin Contracts v4.4.1 (token/ERC721/IERC721Receiver.sol)\r\n\r\npragma solidity ^0.8.0;\r\n\r\n/**\r\n * @title ERC721 token receiver interface\r\n * @dev Interface for any contract that wants to support safeTransfers\r\n * from ERC721 asset contracts.\r\n */\r\ninterface IERC721Receiver {\r\n    /**\r\n     * @dev Whenever an {IERC721} `tokenId` token is transferred to this contract via {IERC721-safeTransferFrom}\r\n     * by `operator` from `from`, this function is called.\r\n     *\r\n     * It must return its Solidity selector to confirm the token transfer.\r\n     * If any other value is returned or the interface is not implemented by the recipient, the transfer will be reverted.\r\n     *\r\n     * The selector can be obtained in Solidity with `IERC721.onERC721Received.selector`.\r\n     */\r\n    function onERC721Received(\r\n        address operator,\r\n        address from,\r\n        uint256 tokenId,\r\n        bytes calldata data\r\n    ) external returns (bytes4);\r\n}\r\n\r\n// File: @openzeppelin/contracts/utils/introspection/IERC165.sol\r\n\r\n// OpenZeppelin Contracts v4.4.1 (utils/introspection/IERC165.sol)\r\n\r\npragma solidity ^0.8.0;\r\n\r\n/**\r\n * @dev Interface of the ERC165 standard, as defined in the\r\n * https://eips.ethereum.org/EIPS/eip-165[EIP].\r\n *\r\n * Implementers can declare support of contract interfaces, which can then be\r\n * queried by others ({ERC165Checker}).\r\n *\r\n * For an implementation, see {ERC165}.\r\n */\r\ninterface IERC165 {\r\n    /**\r\n     * @dev Returns true if this contract implements the interface defined by\r\n     * `interfaceId`. See the corresponding\r\n     * https://eips.ethereum.org/EIPS/eip-165#how-interfaces-are-identified[EIP section]\r\n     * to learn more about how these ids are created.\r\n     *\r\n     * This function call must use less than 30 000 gas.\r\n     */\r\n    function supportsInterface(bytes4 interfaceId) external view returns (bool);\r\n}\r\n\r\n// File: @openzeppelin/contracts/utils/introspection/ERC165.sol\r\n\r\n// OpenZeppelin Contracts v4.4.1 (utils/introspection/ERC165.sol)\r\n\r\npragma solidity ^0.8.0;\r\n\r\n/**\r\n * @dev Implementation of the {IERC165} interface.\r\n *\r\n * Contracts that want to implement ERC165 should inherit from this contract and override {supportsInterface} to check\r\n * for the additional interface id that will be supported. For example:\r\n *\r\n * ```solidity\r\n * function supportsInterface(bytes4 interfaceId) public view virtual override returns (bool) {\r\n *     return interfaceId == type(MyInterface).interfaceId || super.supportsInterface(interfaceId);\r\n * }\r\n * ```\r\n *\r\n * Alternatively, {ERC165Storage} provides an easier to use but more expensive implementation.\r\n */\r\nabstract contract ERC165 is IERC165 {\r\n    /**\r\n     * @dev See {IERC165-supportsInterface}.\r\n     */\r\n    function supportsInterface(bytes4 interfaceId)\r\n        public\r\n        view\r\n        virtual\r\n        override\r\n        returns (bool)\r\n    {\r\n        return interfaceId == type(IERC165).interfaceId;\r\n    }\r\n}\r\n\r\n// File: @openzeppelin/contracts/token/ERC721/IERC721.sol\r\n\r\n// OpenZeppelin Contracts v4.4.1 (token/ERC721/IERC721.sol)\r\n\r\npragma solidity ^0.8.0;\r\n\r\n/**\r\n * @dev Required interface of an ERC721 compliant contract.\r\n */\r\ninterface IERC721 is IERC165 {\r\n    /**\r\n     * @dev Emitted when `tokenId` token is transferred from `from` to `to`.\r\n     */\r\n    event Transfer(\r\n        address indexed from,\r\n        address indexed to,\r\n        uint256 indexed tokenId\r\n    );\r\n\r\n    /**\r\n     * @dev Emitted when `owner` enables `approved` to manage the `tokenId` token.\r\n     */\r\n    event Approval(\r\n        address indexed owner,\r\n        address indexed approved,\r\n        uint256 indexed tokenId\r\n    );\r\n\r\n    /**\r\n     * @dev Emitted when `owner` enables or disables (`approved`) `operator` to manage all of its assets.\r\n     */\r\n    event ApprovalForAll(\r\n        address indexed owner,\r\n        address indexed operator,\r\n        bool approved\r\n    );\r\n\r\n    /**\r\n     * @dev Returns the number of tokens in ``owner``'s account.\r\n     */\r\n    function balanceOf(address owner) external view returns (uint256 balance);\r\n\r\n    /**\r\n     * @dev Returns the owner of the `tokenId` token.\r\n     *\r\n     * Requirements:\r\n     *\r\n     * - `tokenId` must exist.\r\n     */\r\n    function ownerOf(uint256 tokenId) external view returns (address owner);\r\n\r\n    /**\r\n     * @dev Safely transfers `tokenId` token from `from` to `to`, checking first that contract recipients\r\n     * are aware of the ERC721 protocol to prevent tokens from being forever locked.\r\n     *\r\n     * Requirements:\r\n     *\r\n     * - `from` cannot be the zero address.\r\n     * - `to` cannot be the zero address.\r\n     * - `tokenId` token must exist and be owned by `from`.\r\n     * - If the caller is not `from`, it must be have been allowed to move this token by either {approve} or {setApprovalForAll}.\r\n     * - If `to` refers to a smart contract, it must implement {IERC721Receiver-onERC721Received}, which is called upon a safe transfer.\r\n     *\r\n     * Emits a {Transfer} event.\r\n     */\r\n    function safeTransferFrom(\r\n        address from,\r\n        address to,\r\n        uint256 tokenId\r\n    ) external;\r\n\r\n    /**\r\n     * @dev Transfers `tokenId` token from `from` to `to`.\r\n     *\r\n     * WARNING: Usage of this method is discouraged, use {safeTransferFrom} whenever possible.\r\n     *\r\n     * Requirements:\r\n     *\r\n     * - `from` cannot be the zero address.\r\n     * - `to` cannot be the zero address.\r\n     * - `tokenId` token must be owned by `from`.\r\n     * - If the caller is not `from`, it must be approved to move this token by either {approve} or {setApprovalForAll}.\r\n     *\r\n     * Emits a {Transfer} event.\r\n     */\r\n    function transferFrom(\r\n        address from,\r\n        address to,\r\n        uint256 tokenId\r\n    ) external;\r\n\r\n    /**\r\n     * @dev Gives permission to `to` to transfer `tokenId` token to another account.\r\n     * The approval is cleared when the token is transferred.\r\n     *\r\n     * Only a single account can be approved at a time, so approving the zero address clears previous approvals.\r\n     *\r\n     * Requirements:\r\n     *\r\n     * - The caller must own the token or be an approved operator.\r\n     * - `tokenId` must exist.\r\n     *\r\n     * Emits an {Approval} event.\r\n     */\r\n    function approve(address to, uint256 tokenId) external;\r\n\r\n    /**\r\n     * @dev Returns the account approved for `tokenId` token.\r\n     *\r\n     * Requirements:\r\n     *\r\n     * - `tokenId` must exist.\r\n     */\r\n    function getApproved(uint256 tokenId)\r\n        external\r\n        view\r\n        returns (address operator);\r\n\r\n    /**\r\n     * @dev Approve or remove `operator` as an operator for the caller.\r\n     * Operators can call {transferFrom} or {safeTransferFrom} for any token owned by the caller.\r\n     *\r\n     * Requirements:\r\n     *\r\n     * - The `operator` cannot be the caller.\r\n     *\r\n     * Emits an {ApprovalForAll} event.\r\n     */\r\n    function setApprovalForAll(address operator, bool _approved) external;\r\n\r\n    /**\r\n     * @dev Returns if the `operator` is allowed to manage all of the assets of `owner`.\r\n     *\r\n     * See {setApprovalForAll}\r\n     */\r\n    function isApprovedForAll(address owner, address operator)\r\n        external\r\n        view\r\n        returns (bool);\r\n\r\n    /**\r\n     * @dev Safely transfers `tokenId` token from `from` to `to`.\r\n     *\r\n     * Requirements:\r\n     *\r\n     * - `from` cannot be the zero address.\r\n     * - `to` cannot be the zero address.\r\n     * - `tokenId` token must exist and be owned by `from`.\r\n     * - If the caller is not `from`, it must be approved to move this token by either {approve} or {setApprovalForAll}.\r\n     * - If `to` refers to a smart contract, it must implement {IERC721Receiver-onERC721Received}, which is called upon a safe transfer.\r\n     *\r\n     * Emits a {Transfer} event.\r\n     */\r\n    function safeTransferFrom(\r\n        address from,\r\n        address to,\r\n        uint256 tokenId,\r\n        bytes calldata data\r\n    ) external;\r\n}\r\n\r\n// File: @openzeppelin/contracts/token/ERC721/extensions/IERC721Metadata.sol\r\n\r\n// OpenZeppelin Contracts v4.4.1 (token/ERC721/extensions/IERC721Metadata.sol)\r\n\r\npragma solidity ^0.8.0;\r\n\r\n/**\r\n * @title ERC-721 Non-Fungible Token Standard, optional metadata extension\r\n * @dev See https://eips.ethereum.org/EIPS/eip-721\r\n */\r\ninterface IERC721Metadata is IERC721 {\r\n    /**\r\n     * @dev Returns the token collection name.\r\n     */\r\n    function name() external view returns (string memory);\r\n\r\n    /**\r\n     * @dev Returns the token collection symbol.\r\n     */\r\n    function symbol() external view returns (string memory);\r\n\r\n    /**\r\n     * @dev Returns the Uniform Resource Identifier (URI) for `tokenId` token.\r\n     */\r\n    function tokenURI(uint256 tokenId) external view returns (string memory);\r\n}\r\n\r\n// File: @openzeppelin/contracts/token/ERC721/ERC721.sol\r\n\r\n// OpenZeppelin Contracts (last updated v4.5.0) (token/ERC721/ERC721.sol)\r\n\r\npragma solidity ^0.8.0;\r\n\r\n/**\r\n * @dev Implementation of https://eips.ethereum.org/EIPS/eip-721[ERC721] Non-Fungible Token Standard, including\r\n * the Metadata extension, but not including the Enumerable extension, which is available separately as\r\n * {ERC721Enumerable}.\r\n */\r\ncontract ERC721 is Context, ERC165, IERC721, IERC721Metadata {\r\n    using Address for address;\r\n    using Strings for uint256;\r\n\r\n    // Token name\r\n    string private _name;\r\n\r\n    // Token symbol\r\n    string private _symbol;\r\n\r\n    // Mapping from token ID to owner address\r\n    mapping(uint256 => address) private _owners;\r\n\r\n    // Mapping owner address to token count\r\n    mapping(address => uint256) private _balances;\r\n\r\n    // Mapping from token ID to approved address\r\n    mapping(uint256 => address) private _tokenApprovals;\r\n\r\n    // Mapping from owner to operator approvals\r\n    mapping(address => mapping(address => bool)) private _operatorApprovals;\r\n\r\n    /**\r\n     * @dev Initializes the contract by setting a `name` and a `symbol` to the token collection.\r\n     */\r\n    constructor(string memory name_, string memory symbol_) {\r\n        _name = name_;\r\n        _symbol = symbol_;\r\n    }\r\n\r\n    /**\r\n     * @dev See {IERC165-supportsInterface}.\r\n     */\r\n    function supportsInterface(bytes4 interfaceId)\r\n        public\r\n        view\r\n        virtual\r\n        override(ERC165, IERC165)\r\n        returns (bool)\r\n    {\r\n        return\r\n            interfaceId == type(IERC721).interfaceId ||\r\n            interfaceId == type(IERC721Metadata).interfaceId ||\r\n            super.supportsInterface(interfaceId);\r\n    }\r\n\r\n    /**\r\n     * @dev See {IERC721-balanceOf}.\r\n     */\r\n    function balanceOf(address owner)\r\n        public\r\n        view\r\n        virtual\r\n        override\r\n        returns (uint256)\r\n    {\r\n        require(\r\n            owner != address(0),\r\n            \"ERC721: balance query for the zero address\"\r\n        );\r\n        return _balances[owner];\r\n    }\r\n\r\n    /**\r\n     * @dev See {IERC721-ownerOf}.\r\n     */\r\n    function ownerOf(uint256 tokenId)\r\n        public\r\n        view\r\n        virtual\r\n        override\r\n        returns (address)\r\n    {\r\n        address owner = _owners[tokenId];\r\n        require(\r\n            owner != address(0),\r\n            \"ERC721: owner query for nonexistent token\"\r\n        );\r\n        return owner;\r\n    }\r\n\r\n    /**\r\n     * @dev See {IERC721Metadata-name}.\r\n     */\r\n    function name() public view virtual override returns (string memory) {\r\n        return _name;\r\n    }\r\n\r\n    /**\r\n     * @dev See {IERC721Metadata-symbol}.\r\n     */\r\n    function symbol() public view virtual override returns (string memory) {\r\n        return _symbol;\r\n    }\r\n\r\n    /**\r\n     * @dev See {IERC721Metadata-tokenURI}.\r\n     */\r\n    function tokenURI(uint256 tokenId)\r\n        public\r\n        view\r\n        virtual\r\n        override\r\n        returns (string memory)\r\n    {\r\n        require(\r\n            _exists(tokenId),\r\n            \"ERC721Metadata: URI query for nonexistent token\"\r\n        );\r\n\r\n        string memory baseURI = _baseURI();\r\n        return\r\n            bytes(baseURI).length > 0\r\n                ? string(abi.encodePacked(baseURI, tokenId.toString()))\r\n                : \"\";\r\n    }\r\n\r\n    /**\r\n     * @dev Base URI for computing {tokenURI}. If set, the resulting URI for each\r\n     * token will be the concatenation of the `baseURI` and the `tokenId`. Empty\r\n     * by default, can be overriden in child contracts.\r\n     */\r\n    function _baseURI() internal view virtual returns (string memory) {\r\n        return \"\";\r\n    }\r\n\r\n    /**\r\n     * @dev See {IERC721-approve}.\r\n     */\r\n    function approve(address to, uint256 tokenId) public virtual override {\r\n        address owner = ERC721.ownerOf(tokenId);\r\n        require(to != owner, \"ERC721: approval to current owner\");\r\n\r\n        require(\r\n            _msgSender() == owner || isApprovedForAll(owner, _msgSender()),\r\n            \"ERC721: approve caller is not owner nor approved for all\"\r\n        );\r\n\r\n        _approve(to, tokenId);\r\n    }\r\n\r\n    /**\r\n     * @dev See {IERC721-getApproved}.\r\n     */\r\n    function getApproved(uint256 tokenId)\r\n        public\r\n        view\r\n        virtual\r\n        override\r\n        returns (address)\r\n    {\r\n        require(\r\n            _exists(tokenId),\r\n            \"ERC721: approved query for nonexistent token\"\r\n        );\r\n\r\n        return _tokenApprovals[tokenId];\r\n    }\r\n\r\n    /**\r\n     * @dev See {IERC721-setApprovalForAll}.\r\n     */\r\n    function setApprovalForAll(address operator, bool approved)\r\n        public\r\n        virtual\r\n        override\r\n    {\r\n        _setApprovalForAll(_msgSender(), operator, approved);\r\n    }\r\n\r\n    /**\r\n     * @dev See {IERC721-isApprovedForAll}.\r\n     */\r\n    function isApprovedForAll(address owner, address operator)\r\n        public\r\n        view\r\n        virtual\r\n        override\r\n        returns (bool)\r\n    {\r\n        return _operatorApprovals[owner][operator];\r\n    }\r\n\r\n    /**\r\n     * @dev See {IERC721-transferFrom}.\r\n     */\r\n    function transferFrom(\r\n        address from,\r\n        address to,\r\n        uint256 tokenId\r\n    ) public virtual override {\r\n        //solhint-disable-next-line max-line-length\r\n        require(\r\n            _isApprovedOrOwner(_msgSender(), tokenId),\r\n            \"ERC721: transfer caller is not owner nor approved\"\r\n        );\r\n\r\n        _transfer(from, to, tokenId);\r\n    }\r\n\r\n    /**\r\n     * @dev See {IERC721-safeTransferFrom}.\r\n     */\r\n    function safeTransferFrom(\r\n        address from,\r\n        address to,\r\n        uint256 tokenId\r\n    ) public virtual override {\r\n        safeTransferFrom(from, to, tokenId, \"\");\r\n    }\r\n\r\n    /**\r\n     * @dev See {IERC721-safeTransferFrom}.\r\n     */\r\n    function safeTransferFrom(\r\n        address from,\r\n        address to,\r\n        uint256 tokenId,\r\n        bytes memory _data\r\n    ) public virtual override {\r\n        require(\r\n            _isApprovedOrOwner(_msgSender(), tokenId),\r\n            \"ERC721: transfer caller is not owner nor approved\"\r\n        );\r\n        _safeTransfer(from, to, tokenId, _data);\r\n    }\r\n\r\n    /**\r\n     * @dev Safely transfers `tokenId` token from `from` to `to`, checking first that contract recipients\r\n     * are aware of the ERC721 protocol to prevent tokens from being forever locked.\r\n     *\r\n     * `_data` is additional data, it has no specified format and it is sent in call to `to`.\r\n     *\r\n     * This internal function is equivalent to {safeTransferFrom}, and can be used to e.g.\r\n     * implement alternative mechanisms to perform token transfer, such as signature-based.\r\n     *\r\n     * Requirements:\r\n     *\r\n     * - `from` cannot be the zero address.\r\n     * - `to` cannot be the zero address.\r\n     * - `tokenId` token must exist and be owned by `from`.\r\n     * - If `to` refers to a smart contract, it must implement {IERC721Receiver-onERC721Received}, which is called upon a safe transfer.\r\n     *\r\n     * Emits a {Transfer} event.\r\n     */\r\n    function _safeTransfer(\r\n        address from,\r\n        address to,\r\n        uint256 tokenId,\r\n        bytes memory _data\r\n    ) internal virtual {\r\n        _transfer(from, to, tokenId);\r\n        require(\r\n            _checkOnERC721Received(from, to, tokenId, _data),\r\n            \"ERC721: transfer to non ERC721Receiver implementer\"\r\n        );\r\n    }\r\n\r\n    /**\r\n     * @dev Returns whether `tokenId` exists.\r\n     *\r\n     * Tokens can be managed by their owner or approved accounts via {approve} or {setApprovalForAll}.\r\n     *\r\n     * Tokens start existing when they are minted (`_mint`),\r\n     * and stop existing when they are burned (`_burn`).\r\n     */\r\n    function _exists(uint256 tokenId) internal view virtual returns (bool) {\r\n        return _owners[tokenId] != address(0);\r\n    }\r\n\r\n    /**\r\n     * @dev Returns whether `spender` is allowed to manage `tokenId`.\r\n     *\r\n     * Requirements:\r\n     *\r\n     * - `tokenId` must exist.\r\n     */\r\n    function _isApprovedOrOwner(address spender, uint256 tokenId)\r\n        internal\r\n        view\r\n        virtual\r\n        returns (bool)\r\n    {\r\n        require(\r\n            _exists(tokenId),\r\n            \"ERC721: operator query for nonexistent token\"\r\n        );\r\n        address owner = ERC721.ownerOf(tokenId);\r\n        return (spender == owner ||\r\n            getApproved(tokenId) == spender ||\r\n            isApprovedForAll(owner, spender));\r\n    }\r\n\r\n    /**\r\n     * @dev Safely mints `tokenId` and transfers it to `to`.\r\n     *\r\n     * Requirements:\r\n     *\r\n     * - `tokenId` must not exist.\r\n     * - If `to` refers to a smart contract, it must implement {IERC721Receiver-onERC721Received}, which is called upon a safe transfer.\r\n     *\r\n     * Emits a {Transfer} event.\r\n     */\r\n    function _safeMint(address to, uint256 tokenId) internal virtual {\r\n        _safeMint(to, tokenId, \"\");\r\n    }\r\n\r\n    /**\r\n     * @dev Same as {xref-ERC721-_safeMint-address-uint256-}[`_safeMint`], with an additional `data` parameter which is\r\n     * forwarded in {IERC721Receiver-onERC721Received} to contract recipients.\r\n     */\r\n    function _safeMint(\r\n        address to,\r\n        uint256 tokenId,\r\n        bytes memory _data\r\n    ) internal virtual {\r\n        _mint(to, tokenId);\r\n        require(\r\n            _checkOnERC721Received(address(0), to, tokenId, _data),\r\n            \"ERC721: transfer to non ERC721Receiver implementer\"\r\n        );\r\n    }\r\n\r\n    /**\r\n     * @dev Mints `tokenId` and transfers it to `to`.\r\n     *\r\n     * WARNING: Usage of this method is discouraged, use {_safeMint} whenever possible\r\n     *\r\n     * Requirements:\r\n     *\r\n     * - `tokenId` must not exist.\r\n     * - `to` cannot be the zero address.\r\n     *\r\n     * Emits a {Transfer} event.\r\n     */\r\n    function _mint(address to, uint256 tokenId) internal virtual {\r\n        require(to != address(0), \"ERC721: mint to the zero address\");\r\n        require(!_exists(tokenId), \"ERC721: token already minted\");\r\n\r\n        _beforeTokenTransfer(address(0), to, tokenId);\r\n\r\n        _balances[to] += 1;\r\n        _owners[tokenId] = to;\r\n\r\n        emit Transfer(address(0), to, tokenId);\r\n\r\n        _afterTokenTransfer(address(0), to, tokenId);\r\n    }\r\n\r\n    /**\r\n     * @dev Destroys `tokenId`.\r\n     * The approval is cleared when the token is burned.\r\n     *\r\n     * Requirements:\r\n     *\r\n     * - `tokenId` must exist.\r\n     *\r\n     * Emits a {Transfer} event.\r\n     */\r\n    function _burn(uint256 tokenId) internal virtual {\r\n        address owner = ERC721.ownerOf(tokenId);\r\n\r\n        _beforeTokenTransfer(owner, address(0), tokenId);\r\n\r\n        // Clear approvals\r\n        _approve(address(0), tokenId);\r\n\r\n        _balances[owner] -= 1;\r\n        delete _owners[tokenId];\r\n\r\n        emit Transfer(owner, address(0), tokenId);\r\n\r\n        _afterTokenTransfer(owner, address(0), tokenId);\r\n    }\r\n\r\n    /**\r\n     * @dev Transfers `tokenId` from `from` to `to`.\r\n     *  As opposed to {transferFrom}, this imposes no restrictions on msg.sender.\r\n     *\r\n     * Requirements:\r\n     *\r\n     * - `to` cannot be the zero address.\r\n     * - `tokenId` token must be owned by `from`.\r\n     *\r\n     * Emits a {Transfer} event.\r\n     */\r\n    function _transfer(\r\n        address from,\r\n        address to,\r\n        uint256 tokenId\r\n    ) internal virtual {\r\n        require(\r\n            ERC721.ownerOf(tokenId) == from,\r\n            \"ERC721: transfer from incorrect owner\"\r\n        );\r\n        require(to != address(0), \"ERC721: transfer to the zero address\");\r\n\r\n        _beforeTokenTransfer(from, to, tokenId);\r\n\r\n        // Clear approvals from the previous owner\r\n        _approve(address(0), tokenId);\r\n\r\n        _balances[from] -= 1;\r\n        _balances[to] += 1;\r\n        _owners[tokenId] = to;\r\n\r\n        emit Transfer(from, to, tokenId);\r\n\r\n        _afterTokenTransfer(from, to, tokenId);\r\n    }\r\n\r\n    /**\r\n     * @dev Approve `to` to operate on `tokenId`\r\n     *\r\n     * Emits a {Approval} event.\r\n     */\r\n    function _approve(address to, uint256 tokenId) internal virtual {\r\n        _tokenApprovals[tokenId] = to;\r\n        emit Approval(ERC721.ownerOf(tokenId), to, tokenId);\r\n    }\r\n\r\n    /**\r\n     * @dev Approve `operator` to operate on all of `owner` tokens\r\n     *\r\n     * Emits a {ApprovalForAll} event.\r\n     */\r\n    function _setApprovalForAll(\r\n        address owner,\r\n        address operator,\r\n        bool approved\r\n    ) internal virtual {\r\n        require(owner != operator, \"ERC721: approve to caller\");\r\n        _operatorApprovals[owner][operator] = approved;\r\n        emit ApprovalForAll(owner, operator, approved);\r\n    }\r\n\r\n    /**\r\n     * @dev Internal function to invoke {IERC721Receiver-onERC721Received} on a target address.\r\n     * The call is not executed if the target address is not a contract.\r\n     *\r\n     * @param from address representing the previous owner of the given token ID\r\n     * @param to target address that will receive the tokens\r\n     * @param tokenId uint256 ID of the token to be transferred\r\n     * @param _data bytes optional data to send along with the call\r\n     * @return bool whether the call correctly returned the expected magic value\r\n     */\r\n    function _checkOnERC721Received(\r\n        address from,\r\n        address to,\r\n        uint256 tokenId,\r\n        bytes memory _data\r\n    ) private returns (bool) {\r\n        if (to.isContract()) {\r\n            try\r\n                IERC721Receiver(to).onERC721Received(\r\n                    _msgSender(),\r\n                    from,\r\n                    tokenId,\r\n                    _data\r\n                )\r\n            returns (bytes4 retval) {\r\n                return retval == IERC721Receiver.onERC721Received.selector;\r\n            } catch (bytes memory reason) {\r\n                if (reason.length == 0) {\r\n                    revert(\r\n                        \"ERC721: transfer to non ERC721Receiver implementer\"\r\n                    );\r\n                } else {\r\n                    assembly {\r\n                        revert(add(32, reason), mload(reason))\r\n                    }\r\n                }\r\n            }\r\n        } else {\r\n            return true;\r\n        }\r\n    }\r\n\r\n    /**\r\n     * @dev Hook that is called before any token transfer. This includes minting\r\n     * and burning.\r\n     *\r\n     * Calling conditions:\r\n     *\r\n     * - When `from` and `to` are both non-zero, ``from``'s `tokenId` will be\r\n     * transferred to `to`.\r\n     * - When `from` is zero, `tokenId` will be minted for `to`.\r\n     * - When `to` is zero, ``from``'s `tokenId` will be burned.\r\n     * - `from` and `to` are never both zero.\r\n     *\r\n     * To learn more about hooks, head to xref:ROOT:extending-contracts.adoc#using-hooks[Using Hooks].\r\n     */\r\n    function _beforeTokenTransfer(\r\n        address from,\r\n        address to,\r\n        uint256 tokenId\r\n    ) internal virtual {}\r\n\r\n    /**\r\n     * @dev Hook that is called after any transfer of tokens. This includes\r\n     * minting and burning.\r\n     *\r\n     * Calling conditions:\r\n     *\r\n     * - when `from` and `to` are both non-zero.\r\n     * - `from` and `to` are never both zero.\r\n     *\r\n     * To learn more about hooks, head to xref:ROOT:extending-contracts.adoc#using-hooks[Using Hooks].\r\n     */\r\n    function _afterTokenTransfer(\r\n        address from,\r\n        address to,\r\n        uint256 tokenId\r\n    ) internal virtual {}\r\n}\r\n\r\n// File: contracts/ReadyVerseIcons.sol\r\n\r\npragma solidity >=0.7.0 <0.9.0;\r\n\r\ncontract TestTokens is ERC721, Ownable {\r\n    using Strings for uint256;\r\n    using Counters for Counters.Counter;\r\n\r\n    Counters.Counter private supply;\r\n\r\n    string public uriPrefix =\r\n        \"ipfs://QmU5YSkcedgbUrompLMtq7JmoX7k1qsLEsqyhevEYQkJFN/\";\r\n    string public uriSuffix = \".json\";\r\n\r\n    uint256 public cost = .005 ether;\r\n    uint256 public maxSupply = 10;\r\n    uint256 public maxMintAmountPerTx = 20;\r\n\r\n    bool public paused = false;\r\n\r\n    constructor() ERC721(\"TestTokens\", \"TT\") {}\r\n\r\n    modifier mintCompliance(uint256 _mintAmount) {\r\n        require(\r\n            _mintAmount > 0 && _mintAmount <= maxMintAmountPerTx,\r\n            \"Invalid mint amount!\"\r\n        );\r\n        require(\r\n            supply.current() + _mintAmount <= maxSupply,\r\n            \"Max supply exceeded!\"\r\n        );\r\n        _;\r\n    }\r\n\r\n    function totalSupply() public view returns (uint256) {\r\n        return supply.current();\r\n    }\r\n\r\n    function mint(uint256 _mintAmount)\r\n        public\r\n        payable\r\n        mintCompliance(_mintAmount)\r\n    {\r\n        require(!paused, \"The contract is paused!\");\r\n        require(msg.value >= cost * _mintAmount, \"Insufficient funds!\");\r\n\r\n        _mintLoop(msg.sender, _mintAmount);\r\n    }\r\n\r\n    function mintForAddress(uint256 _mintAmount, address _receiver)\r\n        public\r\n        mintCompliance(_mintAmount)\r\n        onlyOwner\r\n    {\r\n        _mintLoop(_receiver, _mintAmount);\r\n    }\r\n\r\n    function walletOfOwner(address _owner)\r\n        public\r\n        view\r\n        returns (uint256[] memory)\r\n    {\r\n        uint256 ownerTokenCount = balanceOf(_owner);\r\n        uint256[] memory ownedTokenIds = new uint256[](ownerTokenCount);\r\n        uint256 currentTokenId = 1;\r\n        uint256 ownedTokenIndex = 0;\r\n\r\n        while (\r\n            ownedTokenIndex < ownerTokenCount && currentTokenId <= maxSupply\r\n        ) {\r\n            address currentTokenOwner = ownerOf(currentTokenId);\r\n\r\n            if (currentTokenOwner == _owner) {\r\n                ownedTokenIds[ownedTokenIndex] = currentTokenId;\r\n\r\n                ownedTokenIndex++;\r\n            }\r\n\r\n            currentTokenId++;\r\n        }\r\n\r\n        return ownedTokenIds;\r\n    }\r\n\r\n    function tokenURI(uint256 _tokenId)\r\n        public\r\n        view\r\n        virtual\r\n        override\r\n        returns (string memory)\r\n    {\r\n        require(\r\n            _exists(_tokenId),\r\n            \"ERC721Metadata: Token does not exist. No valid metadata.\"\r\n        );\r\n\r\n        string memory currentBaseURI = _baseURI();\r\n        return\r\n            bytes(currentBaseURI).length > 0\r\n                ? string(\r\n                    abi.encodePacked(\r\n                        currentBaseURI,\r\n                        _tokenId.toString(),\r\n                        uriSuffix\r\n                    )\r\n                )\r\n                : \"\";\r\n    }\r\n\r\n    function setCost(uint256 _cost) public onlyOwner {\r\n        cost = _cost;\r\n    }\r\n\r\n    function setMaxMintAmountPerTx(uint256 _maxMintAmountPerTx)\r\n        public\r\n        onlyOwner\r\n    {\r\n        maxMintAmountPerTx = _maxMintAmountPerTx;\r\n    }\r\n\r\n    function setPaused(bool _state) public onlyOwner {\r\n        paused = _state;\r\n    }\r\n\r\n    function withdraw() public onlyOwner {\r\n        (bool os, ) = payable(owner()).call{value: address(this).balance}(\"\");\r\n        require(os);\r\n    }\r\n\r\n    function _mintLoop(address _receiver, uint256 _mintAmount) internal {\r\n        for (uint256 i = 0; i < _mintAmount; i++) {\r\n            supply.increment();\r\n            _safeMint(_receiver, supply.current());\r\n        }\r\n    }\r\n\r\n    function _baseURI() internal view virtual override returns (string memory) {\r\n        return uriPrefix;\r\n    }\r\n}\r\n",
  "sourcePath": "C:\\Users\\icufi\\Dropbox\\PROJECT PUBLIC RECORD\\CODE solidity\\CONTRACTS\\DEVELOPMENT PUBLIC RECORD\\contracts\\TestTokens.sol",
  "compiler": {
    "name": "solc",
    "version": "0.8.11+commit.d7f03943.Emscripten.clang"
  },
  "schemaVersion": "3.4.6",
  "updatedAt": "2022-03-16T01:13:02.057Z",
  "networkType": "ethereum",
  "devdoc": {
    "kind": "dev",
    "methods": {
      "approve(address,uint256)": {
        "details": "See {IERC721-approve}."
      },
      "balanceOf(address)": {
        "details": "See {IERC721-balanceOf}."
      },
      "getApproved(uint256)": {
        "details": "See {IERC721-getApproved}."
      },
      "isApprovedForAll(address,address)": {
        "details": "See {IERC721-isApprovedForAll}."
      },
      "name()": {
        "details": "See {IERC721Metadata-name}."
      },
      "owner()": {
        "details": "Returns the address of the current owner."
      },
      "ownerOf(uint256)": {
        "details": "See {IERC721-ownerOf}."
      },
      "renounceOwnership()": {
        "details": "Leaves the contract without owner. It will not be possible to call `onlyOwner` functions anymore. Can only be called by the current owner. NOTE: Renouncing ownership will leave the contract without an owner, thereby removing any functionality that is only available to the owner."
      },
      "safeTransferFrom(address,address,uint256)": {
        "details": "See {IERC721-safeTransferFrom}."
      },
      "safeTransferFrom(address,address,uint256,bytes)": {
        "details": "See {IERC721-safeTransferFrom}."
      },
      "setApprovalForAll(address,bool)": {
        "details": "See {IERC721-setApprovalForAll}."
      },
      "supportsInterface(bytes4)": {
        "details": "See {IERC165-supportsInterface}."
      },
      "symbol()": {
        "details": "See {IERC721Metadata-symbol}."
      },
      "transferFrom(address,address,uint256)": {
        "details": "See {IERC721-transferFrom}."
      },
      "transferOwnership(address)": {
        "details": "Transfers ownership of the contract to a new account (`newOwner`). Can only be called by the current owner."
      }
    },
    "version": 1
  },
  "userdoc": {
    "kind": "user",
    "methods": {},
    "version": 1
  }
}