{
  "contractName": "VisibleModes",
  "abi": [
    {
      "inputs": [],
      "stateMutability": "nonpayable",
      "type": "constructor"
    },
    {
      "anonymous": false,
      "inputs": [
        {
          "indexed": true,
          "internalType": "address",
          "name": "owner",
          "type": "address"
        },
        {
          "indexed": true,
          "internalType": "address",
          "name": "approved",
          "type": "address"
        },
        {
          "indexed": true,
          "internalType": "uint256",
          "name": "tokenId",
          "type": "uint256"
        }
      ],
      "name": "Approval",
      "type": "event"
    },
    {
      "anonymous": false,
      "inputs": [
        {
          "indexed": true,
          "internalType": "address",
          "name": "owner",
          "type": "address"
        },
        {
          "indexed": true,
          "internalType": "address",
          "name": "operator",
          "type": "address"
        },
        {
          "indexed": false,
          "internalType": "bool",
          "name": "approved",
          "type": "bool"
        }
      ],
      "name": "ApprovalForAll",
      "type": "event"
    },
    {
      "anonymous": false,
      "inputs": [
        {
          "indexed": true,
          "internalType": "address",
          "name": "previousOwner",
          "type": "address"
        },
        {
          "indexed": true,
          "internalType": "address",
          "name": "newOwner",
          "type": "address"
        }
      ],
      "name": "OwnershipTransferred",
      "type": "event"
    },
    {
      "anonymous": false,
      "inputs": [
        {
          "indexed": true,
          "internalType": "address",
          "name": "from",
          "type": "address"
        },
        {
          "indexed": true,
          "internalType": "address",
          "name": "to",
          "type": "address"
        },
        {
          "indexed": true,
          "internalType": "uint256",
          "name": "tokenId",
          "type": "uint256"
        }
      ],
      "name": "Transfer",
      "type": "event"
    },
    {
      "inputs": [
        {
          "internalType": "bytes32",
          "name": "",
          "type": "bytes32"
        }
      ],
      "name": "DNATokenCheck",
      "outputs": [
        {
          "internalType": "uint256",
          "name": "",
          "type": "uint256"
        }
      ],
      "stateMutability": "view",
      "type": "function",
      "constant": true
    },
    {
      "inputs": [],
      "name": "addrMirror",
      "outputs": [
        {
          "internalType": "address",
          "name": "",
          "type": "address"
        }
      ],
      "stateMutability": "view",
      "type": "function",
      "constant": true
    },
    {
      "inputs": [
        {
          "internalType": "address",
          "name": "to",
          "type": "address"
        },
        {
          "internalType": "uint256",
          "name": "tokenId",
          "type": "uint256"
        }
      ],
      "name": "approve",
      "outputs": [],
      "stateMutability": "nonpayable",
      "type": "function"
    },
    {
      "inputs": [
        {
          "internalType": "address",
          "name": "owner",
          "type": "address"
        }
      ],
      "name": "balanceOf",
      "outputs": [
        {
          "internalType": "uint256",
          "name": "",
          "type": "uint256"
        }
      ],
      "stateMutability": "view",
      "type": "function",
      "constant": true
    },
    {
      "inputs": [],
      "name": "btAddr",
      "outputs": [
        {
          "internalType": "address",
          "name": "",
          "type": "address"
        }
      ],
      "stateMutability": "view",
      "type": "function",
      "constant": true
    },
    {
      "inputs": [
        {
          "internalType": "uint256",
          "name": "tokenId",
          "type": "uint256"
        }
      ],
      "name": "getApproved",
      "outputs": [
        {
          "internalType": "address",
          "name": "",
          "type": "address"
        }
      ],
      "stateMutability": "view",
      "type": "function",
      "constant": true
    },
    {
      "inputs": [
        {
          "internalType": "address",
          "name": "owner",
          "type": "address"
        },
        {
          "internalType": "address",
          "name": "operator",
          "type": "address"
        }
      ],
      "name": "isApprovedForAll",
      "outputs": [
        {
          "internalType": "bool",
          "name": "",
          "type": "bool"
        }
      ],
      "stateMutability": "view",
      "type": "function",
      "constant": true
    },
    {
      "inputs": [
        {
          "internalType": "string",
          "name": "",
          "type": "string"
        }
      ],
      "name": "modes",
      "outputs": [
        {
          "internalType": "uint256",
          "name": "",
          "type": "uint256"
        }
      ],
      "stateMutability": "view",
      "type": "function",
      "constant": true
    },
    {
      "inputs": [],
      "name": "name",
      "outputs": [
        {
          "internalType": "string",
          "name": "",
          "type": "string"
        }
      ],
      "stateMutability": "view",
      "type": "function",
      "constant": true
    },
    {
      "inputs": [],
      "name": "owner",
      "outputs": [
        {
          "internalType": "address",
          "name": "",
          "type": "address"
        }
      ],
      "stateMutability": "view",
      "type": "function",
      "constant": true
    },
    {
      "inputs": [
        {
          "internalType": "uint256",
          "name": "tokenId",
          "type": "uint256"
        }
      ],
      "name": "ownerOf",
      "outputs": [
        {
          "internalType": "address",
          "name": "",
          "type": "address"
        }
      ],
      "stateMutability": "view",
      "type": "function",
      "constant": true
    },
    {
      "inputs": [],
      "name": "paused",
      "outputs": [
        {
          "internalType": "bool",
          "name": "",
          "type": "bool"
        }
      ],
      "stateMutability": "view",
      "type": "function",
      "constant": true
    },
    {
      "inputs": [],
      "name": "renounceOwnership",
      "outputs": [],
      "stateMutability": "nonpayable",
      "type": "function"
    },
    {
      "inputs": [],
      "name": "safeCheckAddr",
      "outputs": [
        {
          "internalType": "address",
          "name": "",
          "type": "address"
        }
      ],
      "stateMutability": "view",
      "type": "function",
      "constant": true
    },
    {
      "inputs": [
        {
          "internalType": "address",
          "name": "from",
          "type": "address"
        },
        {
          "internalType": "address",
          "name": "to",
          "type": "address"
        },
        {
          "internalType": "uint256",
          "name": "tokenId",
          "type": "uint256"
        }
      ],
      "name": "safeTransferFrom",
      "outputs": [],
      "stateMutability": "nonpayable",
      "type": "function"
    },
    {
      "inputs": [
        {
          "internalType": "address",
          "name": "from",
          "type": "address"
        },
        {
          "internalType": "address",
          "name": "to",
          "type": "address"
        },
        {
          "internalType": "uint256",
          "name": "tokenId",
          "type": "uint256"
        },
        {
          "internalType": "bytes",
          "name": "_data",
          "type": "bytes"
        }
      ],
      "name": "safeTransferFrom",
      "outputs": [],
      "stateMutability": "nonpayable",
      "type": "function"
    },
    {
      "inputs": [
        {
          "internalType": "address",
          "name": "operator",
          "type": "address"
        },
        {
          "internalType": "bool",
          "name": "approved",
          "type": "bool"
        }
      ],
      "name": "setApprovalForAll",
      "outputs": [],
      "stateMutability": "nonpayable",
      "type": "function"
    },
    {
      "inputs": [
        {
          "internalType": "bytes4",
          "name": "interfaceId",
          "type": "bytes4"
        }
      ],
      "name": "supportsInterface",
      "outputs": [
        {
          "internalType": "bool",
          "name": "",
          "type": "bool"
        }
      ],
      "stateMutability": "view",
      "type": "function",
      "constant": true
    },
    {
      "inputs": [],
      "name": "symbol",
      "outputs": [
        {
          "internalType": "string",
          "name": "",
          "type": "string"
        }
      ],
      "stateMutability": "view",
      "type": "function",
      "constant": true
    },
    {
      "inputs": [
        {
          "internalType": "address",
          "name": "from",
          "type": "address"
        },
        {
          "internalType": "address",
          "name": "to",
          "type": "address"
        },
        {
          "internalType": "uint256",
          "name": "tokenId",
          "type": "uint256"
        }
      ],
      "name": "transferFrom",
      "outputs": [],
      "stateMutability": "nonpayable",
      "type": "function"
    },
    {
      "inputs": [
        {
          "internalType": "address",
          "name": "newOwner",
          "type": "address"
        }
      ],
      "name": "transferOwnership",
      "outputs": [],
      "stateMutability": "nonpayable",
      "type": "function"
    },
    {
      "inputs": [],
      "name": "totalSupply",
      "outputs": [
        {
          "internalType": "uint256",
          "name": "",
          "type": "uint256"
        }
      ],
      "stateMutability": "view",
      "type": "function",
      "constant": true
    },
    {
      "inputs": [
        {
          "internalType": "string",
          "name": "_name",
          "type": "string"
        },
        {
          "internalType": "string",
          "name": "_description",
          "type": "string"
        },
        {
          "internalType": "string",
          "name": "_image",
          "type": "string"
        },
        {
          "internalType": "string",
          "name": "_message",
          "type": "string"
        },
        {
          "internalType": "string",
          "name": "_prCreateDate",
          "type": "string"
        },
        {
          "internalType": "string",
          "name": "_attrNFTName",
          "type": "string"
        },
        {
          "internalType": "string",
          "name": "_attrKeyword",
          "type": "string"
        },
        {
          "internalType": "string",
          "name": "_mode",
          "type": "string"
        },
        {
          "internalType": "address",
          "name": "_receiver",
          "type": "address"
        },
        {
          "internalType": "bytes32",
          "name": "_DNA",
          "type": "bytes32"
        }
      ],
      "name": "safeMint",
      "outputs": [],
      "stateMutability": "payable",
      "type": "function",
      "payable": true
    },
    {
      "inputs": [
        {
          "internalType": "uint256",
          "name": "_tokenId",
          "type": "uint256"
        }
      ],
      "name": "tokenURI",
      "outputs": [
        {
          "internalType": "string",
          "name": "",
          "type": "string"
        }
      ],
      "stateMutability": "view",
      "type": "function",
      "constant": true
    },
    {
      "inputs": [
        {
          "internalType": "bool",
          "name": "_state",
          "type": "bool"
        }
      ],
      "name": "pause",
      "outputs": [],
      "stateMutability": "nonpayable",
      "type": "function"
    },
    {
      "inputs": [
        {
          "internalType": "uint256",
          "name": "_cost",
          "type": "uint256"
        }
      ],
      "name": "setCost",
      "outputs": [],
      "stateMutability": "nonpayable",
      "type": "function"
    },
    {
      "inputs": [
        {
          "internalType": "address",
          "name": "_btAddr",
          "type": "address"
        }
      ],
      "name": "setIconsAddr",
      "outputs": [],
      "stateMutability": "nonpayable",
      "type": "function"
    },
    {
      "inputs": [
        {
          "internalType": "address",
          "name": "_addrMirror",
          "type": "address"
        }
      ],
      "name": "setAddrMirror",
      "outputs": [],
      "stateMutability": "nonpayable",
      "type": "function"
    },
    {
      "inputs": [
        {
          "internalType": "address",
          "name": "_safeCheckAddr",
          "type": "address"
        }
      ],
      "name": "setSafeCheckAddr",
      "outputs": [],
      "stateMutability": "nonpayable",
      "type": "function"
    },
    {
      "inputs": [
        {
          "internalType": "uint256",
          "name": "_tokenId",
          "type": "uint256"
        }
      ],
      "name": "getName",
      "outputs": [
        {
          "internalType": "string",
          "name": "",
          "type": "string"
        }
      ],
      "stateMutability": "view",
      "type": "function",
      "constant": true
    },
    {
      "inputs": [
        {
          "internalType": "uint256",
          "name": "_tokenId",
          "type": "uint256"
        }
      ],
      "name": "getDescription",
      "outputs": [
        {
          "internalType": "string",
          "name": "",
          "type": "string"
        }
      ],
      "stateMutability": "view",
      "type": "function",
      "constant": true
    },
    {
      "inputs": [
        {
          "internalType": "uint256",
          "name": "_tokenId",
          "type": "uint256"
        }
      ],
      "name": "getImage",
      "outputs": [
        {
          "internalType": "string",
          "name": "",
          "type": "string"
        }
      ],
      "stateMutability": "view",
      "type": "function",
      "constant": true
    },
    {
      "inputs": [
        {
          "internalType": "uint256",
          "name": "_tokenId",
          "type": "uint256"
        }
      ],
      "name": "getMessage",
      "outputs": [
        {
          "internalType": "string",
          "name": "",
          "type": "string"
        }
      ],
      "stateMutability": "view",
      "type": "function",
      "constant": true
    },
    {
      "inputs": [
        {
          "internalType": "uint256",
          "name": "_tokenId",
          "type": "uint256"
        }
      ],
      "name": "getprCreateDate",
      "outputs": [
        {
          "internalType": "string",
          "name": "",
          "type": "string"
        }
      ],
      "stateMutability": "view",
      "type": "function",
      "constant": true
    },
    {
      "inputs": [
        {
          "internalType": "uint256",
          "name": "_tokenId",
          "type": "uint256"
        }
      ],
      "name": "getAttrNFTName",
      "outputs": [
        {
          "internalType": "string",
          "name": "",
          "type": "string"
        }
      ],
      "stateMutability": "view",
      "type": "function",
      "constant": true
    },
    {
      "inputs": [
        {
          "internalType": "uint256",
          "name": "_tokenId",
          "type": "uint256"
        }
      ],
      "name": "getAttrKeyword",
      "outputs": [
        {
          "internalType": "string",
          "name": "",
          "type": "string"
        }
      ],
      "stateMutability": "view",
      "type": "function",
      "constant": true
    },
    {
      "inputs": [
        {
          "internalType": "uint256",
          "name": "_tokenId",
          "type": "uint256"
        }
      ],
      "name": "getMode",
      "outputs": [
        {
          "internalType": "string",
          "name": "",
          "type": "string"
        }
      ],
      "stateMutability": "view",
      "type": "function",
      "constant": true
    },
    {
      "inputs": [
        {
          "internalType": "uint256",
          "name": "_tokenId",
          "type": "uint256"
        }
      ],
      "name": "getAttrCreatorAddr",
      "outputs": [
        {
          "internalType": "address",
          "name": "",
          "type": "address"
        }
      ],
      "stateMutability": "view",
      "type": "function",
      "constant": true
    },
    {
      "inputs": [
        {
          "internalType": "string",
          "name": "_mode",
          "type": "string"
        }
      ],
      "name": "getModeCount",
      "outputs": [
        {
          "internalType": "uint256",
          "name": "",
          "type": "uint256"
        }
      ],
      "stateMutability": "view",
      "type": "function",
      "constant": true
    },
    {
      "inputs": [
        {
          "internalType": "uint256",
          "name": "_tokenId",
          "type": "uint256"
        }
      ],
      "name": "DNA",
      "outputs": [
        {
          "internalType": "bytes32",
          "name": "",
          "type": "bytes32"
        }
      ],
      "stateMutability": "view",
      "type": "function",
      "constant": true
    },
    {
      "inputs": [],
      "name": "withdraw",
      "outputs": [],
      "stateMutability": "payable",
      "type": "function",
      "payable": true
    }
  ],
  "bytecode": "0x60806040526000600a60146101000a81548160ff0219169083151502179055506001600b556611c37937e08000600c553480156200003c57600080fd5b506040518060400160405280600d81526020017f56697369626c65204d6f646573000000000000000000000000000000000000008152506040518060400160405280600281526020017f564d0000000000000000000000000000000000000000000000000000000000008152508160009080519060200190620000c1929190620001d1565b508060019080519060200190620000da929190620001d1565b505050620000fd620000f16200010360201b60201c565b6200010b60201b60201c565b620002e6565b600033905090565b6000600660009054906101000a900473ffffffffffffffffffffffffffffffffffffffff16905081600660006101000a81548173ffffffffffffffffffffffffffffffffffffffff021916908373ffffffffffffffffffffffffffffffffffffffff1602179055508173ffffffffffffffffffffffffffffffffffffffff168173ffffffffffffffffffffffffffffffffffffffff167f8be0079c531659141344cd1fd0a4f28419497f9722a3daafe3b4186f6b6457e060405160405180910390a35050565b828054620001df90620002b0565b90600052602060002090601f0160209004810192826200020357600085556200024f565b82601f106200021e57805160ff19168380011785556200024f565b828001600101855582156200024f579182015b828111156200024e57825182559160200191906001019062000231565b5b5090506200025e919062000262565b5090565b5b808211156200027d57600081600090555060010162000263565b5090565b7f4e487b7100000000000000000000000000000000000000000000000000000000600052602260045260246000fd5b60006002820490506001821680620002c957607f821691505b60208210811415620002e057620002df62000281565b5b50919050565b615fff80620002f66000396000f3fe6080604052600436106102465760003560e01c80634925ec5511610139578063806fd9d3116100b6578063ac84e1f51161007a578063ac84e1f514610917578063b88d4fde14610933578063c87b56dd1461095c578063e077624014610999578063e985e9c5146109c4578063f2fde38b14610a0157610246565b8063806fd9d31461083257806386f79edb1461085b5780638da5cb5b1461089857806395d89b41146108c3578063a22cb465146108ee57610246565b80636b8ff574116100fd5780636b8ff5741461072757806370a0823114610764578063715018a6146107a15780637328cfde146107b8578063732d97c2146107f557610246565b80634925ec551461061c5780634f38bcb6146106595780635c6c2fd9146106965780635c975abb146106bf5780636352211e146106ea57610246565b8063211ca128116101c75780633a721a961161018b5780633a721a96146105465780633ab871c9146105835780633ccfd60b146105c057806342842e0e146105ca57806344a0d68a146105f357610246565b8063211ca1281461044f57806323b872dd1461047a5780632607aafa146104a35780632c5a10a7146104e057806338af12dc1461050957610246565b8063095ea7b31161020e578063095ea7b3146103565780630d24399b1461037f57806318160ddd146103aa5780631c1ce5f9146103d55780631faadd4a1461041257610246565b806301ffc9a71461024b57806302329a2914610288578063044bd540146102b157806306fdde03146102ee578063081812fc14610319575b600080fd5b34801561025757600080fd5b50610272600480360381019061026d9190613fa3565b610a2a565b60405161027f9190613feb565b60405180910390f35b34801561029457600080fd5b506102af60048036038101906102aa9190614032565b610b0c565b005b3480156102bd57600080fd5b506102d860048036038101906102d39190614095565b610ba5565b6040516102e591906140db565b60405180910390f35b3480156102fa57600080fd5b50610303610bbd565b604051610310919061418f565b60405180910390f35b34801561032557600080fd5b50610340600480360381019061033b91906141dd565b610c4f565b60405161034d919061424b565b60405180910390f35b34801561036257600080fd5b5061037d60048036038101906103789190614292565b610cd4565b005b34801561038b57600080fd5b50610394610dec565b6040516103a1919061424b565b60405180910390f35b3480156103b657600080fd5b506103bf610e12565b6040516103cc91906140db565b60405180910390f35b3480156103e157600080fd5b506103fc60048036038101906103f791906141dd565b610e23565b604051610409919061424b565b60405180910390f35b34801561041e57600080fd5b50610439600480360381019061043491906141dd565b610ebd565b604051610446919061418f565b60405180910390f35b34801561045b57600080fd5b50610464610fbf565b604051610471919061424b565b60405180910390f35b34801561048657600080fd5b506104a1600480360381019061049c91906142d2565b610fe5565b005b3480156104af57600080fd5b506104ca60048036038101906104c591906141dd565b611045565b6040516104d7919061418f565b60405180910390f35b3480156104ec57600080fd5b5061050760048036038101906105029190614325565b611147565b005b34801561051557600080fd5b50610530600480360381019061052b9190614487565b611207565b60405161053d91906140db565b60405180910390f35b34801561055257600080fd5b5061056d600480360381019061056891906141dd565b611235565b60405161057a919061418f565b60405180910390f35b34801561058f57600080fd5b506105aa60048036038101906105a591906141dd565b611337565b6040516105b7919061418f565b60405180910390f35b6105c8611439565b005b3480156105d657600080fd5b506105f160048036038101906105ec91906142d2565b611535565b005b3480156105ff57600080fd5b5061061a600480360381019061061591906141dd565b611555565b005b34801561062857600080fd5b50610643600480360381019061063e91906141dd565b6115db565b604051610650919061418f565b60405180910390f35b34801561066557600080fd5b50610680600480360381019061067b9190614487565b6116dd565b60405161068d91906140db565b60405180910390f35b3480156106a257600080fd5b506106bd60048036038101906106b89190614325565b611705565b005b3480156106cb57600080fd5b506106d46117c5565b6040516106e19190613feb565b60405180910390f35b3480156106f657600080fd5b50610711600480360381019061070c91906141dd565b6117d8565b60405161071e919061424b565b60405180910390f35b34801561073357600080fd5b5061074e600480360381019061074991906141dd565b61188a565b60405161075b919061418f565b60405180910390f35b34801561077057600080fd5b5061078b60048036038101906107869190614325565b61198c565b60405161079891906140db565b60405180910390f35b3480156107ad57600080fd5b506107b6611a44565b005b3480156107c457600080fd5b506107df60048036038101906107da91906141dd565b611acc565b6040516107ec91906144df565b60405180910390f35b34801561080157600080fd5b5061081c600480360381019061081791906141dd565b611bfb565b604051610829919061418f565b60405180910390f35b34801561083e57600080fd5b5061085960048036038101906108549190614325565b611cfd565b005b34801561086757600080fd5b50610882600480360381019061087d91906141dd565b611dbd565b60405161088f919061418f565b60405180910390f35b3480156108a457600080fd5b506108ad611ebf565b6040516108ba919061424b565b60405180910390f35b3480156108cf57600080fd5b506108d8611ee9565b6040516108e5919061418f565b60405180910390f35b3480156108fa57600080fd5b50610915600480360381019061091091906144fa565b611f7b565b005b610931600480360381019061092c919061453a565b611f91565b005b34801561093f57600080fd5b5061095a6004803603810190610955919061479a565b6123a2565b005b34801561096857600080fd5b50610983600480360381019061097e91906141dd565b612404565b604051610990919061418f565b60405180910390f35b3480156109a557600080fd5b506109ae612ccb565b6040516109bb919061424b565b60405180910390f35b3480156109d057600080fd5b506109eb60048036038101906109e6919061481d565b612cf1565b6040516109f89190613feb565b60405180910390f35b348015610a0d57600080fd5b50610a286004803603810190610a239190614325565b612d85565b005b60007f80ac58cd000000000000000000000000000000000000000000000000000000007bffffffffffffffffffffffffffffffffffffffffffffffffffffffff1916827bffffffffffffffffffffffffffffffffffffffffffffffffffffffff19161480610af557507f5b5e139f000000000000000000000000000000000000000000000000000000007bffffffffffffffffffffffffffffffffffffffffffffffffffffffff1916827bffffffffffffffffffffffffffffffffffffffffffffffffffffffff1916145b80610b055750610b0482612e7d565b5b9050919050565b610b14612ee7565b73ffffffffffffffffffffffffffffffffffffffff16610b32611ebf565b73ffffffffffffffffffffffffffffffffffffffff1614610b88576040517f08c379a0000000000000000000000000000000000000000000000000000000008152600401610b7f906148a9565b60405180910390fd5b80600a60146101000a81548160ff02191690831515021790555050565b600e6020528060005260406000206000915090505481565b606060008054610bcc906148f8565b80601f0160208091040260200160405190810160405280929190818152602001828054610bf8906148f8565b8015610c455780601f10610c1a57610100808354040283529160200191610c45565b820191906000526020600020905b815481529060010190602001808311610c2857829003601f168201915b5050505050905090565b6000610c5a82612eef565b610c99576040517f08c379a0000000000000000000000000000000000000000000000000000000008152600401610c909061499c565b60405180910390fd5b6004600083815260200190815260200160002060009054906101000a900473ffffffffffffffffffffffffffffffffffffffff169050919050565b6000610cdf826117d8565b90508073ffffffffffffffffffffffffffffffffffffffff168373ffffffffffffffffffffffffffffffffffffffff161415610d50576040517f08c379a0000000000000000000000000000000000000000000000000000000008152600401610d4790614a2e565b60405180910390fd5b8073ffffffffffffffffffffffffffffffffffffffff16610d6f612ee7565b73ffffffffffffffffffffffffffffffffffffffff161480610d9e5750610d9d81610d98612ee7565b612cf1565b5b610ddd576040517f08c379a0000000000000000000000000000000000000000000000000000000008152600401610dd490614ac0565b60405180910390fd5b610de78383612f5b565b505050565b600960009054906101000a900473ffffffffffffffffffffffffffffffffffffffff1681565b6000610e1e6007613014565b905090565b6000600a60009054906101000a900473ffffffffffffffffffffffffffffffffffffffff1673ffffffffffffffffffffffffffffffffffffffff163373ffffffffffffffffffffffffffffffffffffffff1614610e7f57600080fd5b600d600083815260200190815260200160002060080160009054906101000a900473ffffffffffffffffffffffffffffffffffffffff169050919050565b6060600a60009054906101000a900473ffffffffffffffffffffffffffffffffffffffff1673ffffffffffffffffffffffffffffffffffffffff163373ffffffffffffffffffffffffffffffffffffffff1614610f1957600080fd5b600d60008381526020019081526020016000206005018054610f3a906148f8565b80601f0160208091040260200160405190810160405280929190818152602001828054610f66906148f8565b8015610fb35780601f10610f8857610100808354040283529160200191610fb3565b820191906000526020600020905b815481529060010190602001808311610f9657829003601f168201915b50505050509050919050565b600a60009054906101000a900473ffffffffffffffffffffffffffffffffffffffff1681565b610ff6610ff0612ee7565b82613022565b611035576040517f08c379a000000000000000000000000000000000000000000000000000000000815260040161102c90614b52565b60405180910390fd5b611040838383613100565b505050565b6060600a60009054906101000a900473ffffffffffffffffffffffffffffffffffffffff1673ffffffffffffffffffffffffffffffffffffffff163373ffffffffffffffffffffffffffffffffffffffff16146110a157600080fd5b600d600083815260200190815260200160002060020180546110c2906148f8565b80601f01602080910402602001604051908101604052809291908181526020018280546110ee906148f8565b801561113b5780601f106111105761010080835404028352916020019161113b565b820191906000526020600020905b81548152906001019060200180831161111e57829003601f168201915b50505050509050919050565b61114f612ee7565b73ffffffffffffffffffffffffffffffffffffffff1661116d611ebf565b73ffffffffffffffffffffffffffffffffffffffff16146111c3576040517f08c379a00000000000000000000000000000000000000000000000000000000081526004016111ba906148a9565b60405180910390fd5b80600a60006101000a81548173ffffffffffffffffffffffffffffffffffffffff021916908373ffffffffffffffffffffffffffffffffffffffff16021790555050565b600f818051602081018201805184825260208301602085012081835280955050505050506000915090505481565b6060600a60009054906101000a900473ffffffffffffffffffffffffffffffffffffffff1673ffffffffffffffffffffffffffffffffffffffff163373ffffffffffffffffffffffffffffffffffffffff161461129157600080fd5b600d600083815260200190815260200160002060070180546112b2906148f8565b80601f01602080910402602001604051908101604052809291908181526020018280546112de906148f8565b801561132b5780601f106113005761010080835404028352916020019161132b565b820191906000526020600020905b81548152906001019060200180831161130e57829003601f168201915b50505050509050919050565b6060600a60009054906101000a900473ffffffffffffffffffffffffffffffffffffffff1673ffffffffffffffffffffffffffffffffffffffff163373ffffffffffffffffffffffffffffffffffffffff161461139357600080fd5b600d600083815260200190815260200160002060060180546113b4906148f8565b80601f01602080910402602001604051908101604052809291908181526020018280546113e0906148f8565b801561142d5780601f106114025761010080835404028352916020019161142d565b820191906000526020600020905b81548152906001019060200180831161141057829003601f168201915b50505050509050919050565b611441612ee7565b73ffffffffffffffffffffffffffffffffffffffff1661145f611ebf565b73ffffffffffffffffffffffffffffffffffffffff16146114b5576040517f08c379a00000000000000000000000000000000000000000000000000000000081526004016114ac906148a9565b60405180910390fd5b60006114bf611ebf565b73ffffffffffffffffffffffffffffffffffffffff16476040516114e290614ba3565b60006040518083038185875af1925050503d806000811461151f576040519150601f19603f3d011682016040523d82523d6000602084013e611524565b606091505b505090508061153257600080fd5b50565b611550838383604051806020016040528060008152506123a2565b505050565b61155d612ee7565b73ffffffffffffffffffffffffffffffffffffffff1661157b611ebf565b73ffffffffffffffffffffffffffffffffffffffff16146115d1576040517f08c379a00000000000000000000000000000000000000000000000000000000081526004016115c8906148a9565b60405180910390fd5b80600c8190555050565b6060600a60009054906101000a900473ffffffffffffffffffffffffffffffffffffffff1673ffffffffffffffffffffffffffffffffffffffff163373ffffffffffffffffffffffffffffffffffffffff161461163757600080fd5b600d60008381526020019081526020016000206001018054611658906148f8565b80601f0160208091040260200160405190810160405280929190818152602001828054611684906148f8565b80156116d15780601f106116a6576101008083540402835291602001916116d1565b820191906000526020600020905b8154815290600101906020018083116116b457829003601f168201915b50505050509050919050565b6000600f826040516116ef9190614bf4565b9081526020016040518091039020549050919050565b61170d612ee7565b73ffffffffffffffffffffffffffffffffffffffff1661172b611ebf565b73ffffffffffffffffffffffffffffffffffffffff1614611781576040517f08c379a0000000000000000000000000000000000000000000000000000000008152600401611778906148a9565b60405180910390fd5b80600860006101000a81548173ffffffffffffffffffffffffffffffffffffffff021916908373ffffffffffffffffffffffffffffffffffffffff16021790555050565b600a60149054906101000a900460ff1681565b6000806002600084815260200190815260200160002060009054906101000a900473ffffffffffffffffffffffffffffffffffffffff169050600073ffffffffffffffffffffffffffffffffffffffff168173ffffffffffffffffffffffffffffffffffffffff161415611881576040517f08c379a000000000000000000000000000000000000000000000000000000000815260040161187890614c7d565b60405180910390fd5b80915050919050565b6060600a60009054906101000a900473ffffffffffffffffffffffffffffffffffffffff1673ffffffffffffffffffffffffffffffffffffffff163373ffffffffffffffffffffffffffffffffffffffff16146118e657600080fd5b600d60008381526020019081526020016000206000018054611907906148f8565b80601f0160208091040260200160405190810160405280929190818152602001828054611933906148f8565b80156119805780601f1061195557610100808354040283529160200191611980565b820191906000526020600020905b81548152906001019060200180831161196357829003601f168201915b50505050509050919050565b60008073ffffffffffffffffffffffffffffffffffffffff168273ffffffffffffffffffffffffffffffffffffffff1614156119fd576040517f08c379a00000000000000000000000000000000000000000000000000000000081526004016119f490614d0f565b60405180910390fd5b600360008373ffffffffffffffffffffffffffffffffffffffff1673ffffffffffffffffffffffffffffffffffffffff168152602001908152602001600020549050919050565b611a4c612ee7565b73ffffffffffffffffffffffffffffffffffffffff16611a6a611ebf565b73ffffffffffffffffffffffffffffffffffffffff1614611ac0576040517f08c379a0000000000000000000000000000000000000000000000000000000008152600401611ab7906148a9565b60405180910390fd5b611aca6000613367565b565b6000600a60009054906101000a900473ffffffffffffffffffffffffffffffffffffffff1673ffffffffffffffffffffffffffffffffffffffff163373ffffffffffffffffffffffffffffffffffffffff1614611b2857600080fd5b6000600d6000848152602001908152602001600020600001600d6000858152602001908152602001600020600101600d6000868152602001908152602001600020600201600d6000878152602001908152602001600020600301600d6000888152602001908152602001600020600401600d6000898152602001908152602001600020600501600d60008a8152602001908152602001600020600601604051602001611bda9796959493929190614dc3565b60405160208183030381529060405280519060200120905080915050919050565b6060600a60009054906101000a900473ffffffffffffffffffffffffffffffffffffffff1673ffffffffffffffffffffffffffffffffffffffff163373ffffffffffffffffffffffffffffffffffffffff1614611c5757600080fd5b600d60008381526020019081526020016000206004018054611c78906148f8565b80601f0160208091040260200160405190810160405280929190818152602001828054611ca4906148f8565b8015611cf15780601f10611cc657610100808354040283529160200191611cf1565b820191906000526020600020905b815481529060010190602001808311611cd457829003601f168201915b50505050509050919050565b611d05612ee7565b73ffffffffffffffffffffffffffffffffffffffff16611d23611ebf565b73ffffffffffffffffffffffffffffffffffffffff1614611d79576040517f08c379a0000000000000000000000000000000000000000000000000000000008152600401611d70906148a9565b60405180910390fd5b80600960006101000a81548173ffffffffffffffffffffffffffffffffffffffff021916908373ffffffffffffffffffffffffffffffffffffffff16021790555050565b6060600a60009054906101000a900473ffffffffffffffffffffffffffffffffffffffff1673ffffffffffffffffffffffffffffffffffffffff163373ffffffffffffffffffffffffffffffffffffffff1614611e1957600080fd5b600d60008381526020019081526020016000206003018054611e3a906148f8565b80601f0160208091040260200160405190810160405280929190818152602001828054611e66906148f8565b8015611eb35780601f10611e8857610100808354040283529160200191611eb3565b820191906000526020600020905b815481529060010190602001808311611e9657829003601f168201915b50505050509050919050565b6000600660009054906101000a900473ffffffffffffffffffffffffffffffffffffffff16905090565b606060018054611ef8906148f8565b80601f0160208091040260200160405190810160405280929190818152602001828054611f24906148f8565b8015611f715780601f10611f4657610100808354040283529160200191611f71565b820191906000526020600020905b815481529060010190602001808311611f5457829003601f168201915b5050505050905090565b611f8d611f86612ee7565b838361342d565b5050565b600a60149054906101000a900460ff1615611fe1576040517f08c379a0000000000000000000000000000000000000000000000000000000008152600401611fd890614e74565b60405180910390fd5b6000600860009054906101000a900473ffffffffffffffffffffffffffffffffffffffff16905060008173ffffffffffffffffffffffffffffffffffffffff166370a08231336040518263ffffffff1660e01b8152600401612043919061424b565b602060405180830381865afa158015612060573d6000803e3d6000fd5b505050506040513d601f19601f820116820180604052508101906120849190614ea9565b9050600b548110156120cb576040517f08c379a00000000000000000000000000000000000000000000000000000000081526004016120c290614f48565b60405180910390fd5b600c543410156120da57600080fd5b60006120e4610e12565b90506000600f876040516120f89190614bf4565b90815260200160405180910390205490508d600d600060018561211b9190614f97565b8152602001908152602001600020600001908051906020019061213f929190613e94565b508c600d60006001856121529190614f97565b81526020019081526020016000206001019080519060200190612176929190613e94565b508b600d60006001856121899190614f97565b815260200190815260200160002060020190805190602001906121ad929190613e94565b508a600d60006001856121c09190614f97565b815260200190815260200160002060030190805190602001906121e4929190613e94565b5089600d60006001856121f79190614f97565b8152602001908152602001600020600401908051906020019061221b929190613e94565b5088600d600060018561222e9190614f97565b81526020019081526020016000206005019080519060200190612252929190613e94565b5087600d60006001856122659190614f97565b81526020019081526020016000206006019080519060200190612289929190613e94565b5086600d600060018561229c9190614f97565b815260200190815260200160002060070190805190602001906122c0929190613e94565b5033600d60006001856122d39190614f97565b815260200190815260200160002060080160006101000a81548173ffffffffffffffffffffffffffffffffffffffff021916908373ffffffffffffffffffffffffffffffffffffffff16021790555060018261232f9190614f97565b600e6000878152602001908152602001600020819055506001816123539190614f97565b600f886040516123639190614bf4565b90815260200160405180910390208190555061237f600761359a565b6123928661238d6007613014565b6135b0565b5050505050505050505050505050565b6123b36123ad612ee7565b83613022565b6123f2576040517f08c379a00000000000000000000000000000000000000000000000000000000081526004016123e990614b52565b60405180910390fd5b6123fe848484846135ce565b50505050565b606061240f82612eef565b61244e576040517f08c379a00000000000000000000000000000000000000000000000000000000081526004016124459061505f565b60405180910390fd5b6000600960009054906101000a900473ffffffffffffffffffffffffffffffffffffffff16905060008173ffffffffffffffffffffffffffffffffffffffff1663d7d14ddd856040518263ffffffff1660e01b81526004016124b091906140db565b602060405180830381865afa1580156124cd573d6000803e3d6000fd5b505050506040513d601f19601f820116820180604052508101906124f19190615094565b9050600d6000858152602001908152602001600020600001600d6000868152602001908152602001600020600101600d6000878152602001908152602001600020600201600d6000888152602001908152602001600020600301600d6000898152602001908152602001600020600401600d60008a8152602001908152602001600020600501600d60008b8152602001908152602001600020600601600d60008c81526020019081526020016000206007016040516020016125ba9897969594939291906150c1565b604051602081830303815290604052805190602001208114612611576040517f08c379a00000000000000000000000000000000000000000000000000000000081526004016126089061517f565b60405180910390fd5b60008273ffffffffffffffffffffffffffffffffffffffff1663e009d9a6866040518263ffffffff1660e01b815260040161264c91906140db565b602060405180830381865afa158015612669573d6000803e3d6000fd5b505050506040513d601f19601f8201168201806040525081019061268d91906151b4565b9050600d600086815260200190815260200160002060080160009054906101000a900473ffffffffffffffffffffffffffffffffffffffff1673ffffffffffffffffffffffffffffffffffffffff168173ffffffffffffffffffffffffffffffffffffffff1614612733576040517f08c379a000000000000000000000000000000000000000000000000000000000815260040161272a9061522d565b60405180910390fd5b6000600d600087815260200190815260200160002060405180610120016040529081600082018054612764906148f8565b80601f0160208091040260200160405190810160405280929190818152602001828054612790906148f8565b80156127dd5780601f106127b2576101008083540402835291602001916127dd565b820191906000526020600020905b8154815290600101906020018083116127c057829003601f168201915b505050505081526020016001820180546127f6906148f8565b80601f0160208091040260200160405190810160405280929190818152602001828054612822906148f8565b801561286f5780601f106128445761010080835404028352916020019161286f565b820191906000526020600020905b81548152906001019060200180831161285257829003601f168201915b50505050508152602001600282018054612888906148f8565b80601f01602080910402602001604051908101604052809291908181526020018280546128b4906148f8565b80156129015780601f106128d657610100808354040283529160200191612901565b820191906000526020600020905b8154815290600101906020018083116128e457829003601f168201915b5050505050815260200160038201805461291a906148f8565b80601f0160208091040260200160405190810160405280929190818152602001828054612946906148f8565b80156129935780601f1061296857610100808354040283529160200191612993565b820191906000526020600020905b81548152906001019060200180831161297657829003601f168201915b505050505081526020016004820180546129ac906148f8565b80601f01602080910402602001604051908101604052809291908181526020018280546129d8906148f8565b8015612a255780601f106129fa57610100808354040283529160200191612a25565b820191906000526020600020905b815481529060010190602001808311612a0857829003601f168201915b50505050508152602001600582018054612a3e906148f8565b80601f0160208091040260200160405190810160405280929190818152602001828054612a6a906148f8565b8015612ab75780601f10612a8c57610100808354040283529160200191612ab7565b820191906000526020600020905b815481529060010190602001808311612a9a57829003601f168201915b50505050508152602001600682018054612ad0906148f8565b80601f0160208091040260200160405190810160405280929190818152602001828054612afc906148f8565b8015612b495780601f10612b1e57610100808354040283529160200191612b49565b820191906000526020600020905b815481529060010190602001808311612b2c57829003601f168201915b50505050508152602001600782018054612b62906148f8565b80601f0160208091040260200160405190810160405280929190818152602001828054612b8e906148f8565b8015612bdb5780601f10612bb057610100808354040283529160200191612bdb565b820191906000526020600020905b815481529060010190602001808311612bbe57829003601f168201915b505050505081526020016008820160009054906101000a900473ffffffffffffffffffffffffffffffffffffffff1673ffffffffffffffffffffffffffffffffffffffff1673ffffffffffffffffffffffffffffffffffffffff16815250509050612ca18160000151826020015183604001518460a001518560c0015186608001518760600151612c7089610100015161362a565b8960e00151604051602001612c8d99989796959493929190615675565b604051602081830303815290604052613925565b604051602001612cb191906157b9565b604051602081830303815290604052945050505050919050565b600860009054906101000a900473ffffffffffffffffffffffffffffffffffffffff1681565b6000600560008473ffffffffffffffffffffffffffffffffffffffff1673ffffffffffffffffffffffffffffffffffffffff16815260200190815260200160002060008373ffffffffffffffffffffffffffffffffffffffff1673ffffffffffffffffffffffffffffffffffffffff16815260200190815260200160002060009054906101000a900460ff16905092915050565b612d8d612ee7565b73ffffffffffffffffffffffffffffffffffffffff16612dab611ebf565b73ffffffffffffffffffffffffffffffffffffffff1614612e01576040517f08c379a0000000000000000000000000000000000000000000000000000000008152600401612df8906148a9565b60405180910390fd5b600073ffffffffffffffffffffffffffffffffffffffff168173ffffffffffffffffffffffffffffffffffffffff161415612e71576040517f08c379a0000000000000000000000000000000000000000000000000000000008152600401612e689061584d565b60405180910390fd5b612e7a81613367565b50565b60007f01ffc9a7000000000000000000000000000000000000000000000000000000007bffffffffffffffffffffffffffffffffffffffffffffffffffffffff1916827bffffffffffffffffffffffffffffffffffffffffffffffffffffffff1916149050919050565b600033905090565b60008073ffffffffffffffffffffffffffffffffffffffff166002600084815260200190815260200160002060009054906101000a900473ffffffffffffffffffffffffffffffffffffffff1673ffffffffffffffffffffffffffffffffffffffff1614159050919050565b816004600083815260200190815260200160002060006101000a81548173ffffffffffffffffffffffffffffffffffffffff021916908373ffffffffffffffffffffffffffffffffffffffff160217905550808273ffffffffffffffffffffffffffffffffffffffff16612fce836117d8565b73ffffffffffffffffffffffffffffffffffffffff167f8c5be1e5ebec7d5bd14f71427d1e84f3dd0314c0f7b2291e5b200ac8c7c3b92560405160405180910390a45050565b600081600001549050919050565b600061302d82612eef565b61306c576040517f08c379a0000000000000000000000000000000000000000000000000000000008152600401613063906158df565b60405180910390fd5b6000613077836117d8565b90508073ffffffffffffffffffffffffffffffffffffffff168473ffffffffffffffffffffffffffffffffffffffff1614806130e657508373ffffffffffffffffffffffffffffffffffffffff166130ce84610c4f565b73ffffffffffffffffffffffffffffffffffffffff16145b806130f757506130f68185612cf1565b5b91505092915050565b8273ffffffffffffffffffffffffffffffffffffffff16613120826117d8565b73ffffffffffffffffffffffffffffffffffffffff1614613176576040517f08c379a000000000000000000000000000000000000000000000000000000000815260040161316d90615971565b60405180910390fd5b600073ffffffffffffffffffffffffffffffffffffffff168273ffffffffffffffffffffffffffffffffffffffff1614156131e6576040517f08c379a00000000000000000000000000000000000000000000000000000000081526004016131dd90615a03565b60405180910390fd5b6131f1838383613aaa565b6131fc600082612f5b565b6001600360008573ffffffffffffffffffffffffffffffffffffffff1673ffffffffffffffffffffffffffffffffffffffff168152602001908152602001600020600082825461324c9190615a23565b925050819055506001600360008473ffffffffffffffffffffffffffffffffffffffff1673ffffffffffffffffffffffffffffffffffffffff16815260200190815260200160002060008282546132a39190614f97565b92505081905550816002600083815260200190815260200160002060006101000a81548173ffffffffffffffffffffffffffffffffffffffff021916908373ffffffffffffffffffffffffffffffffffffffff160217905550808273ffffffffffffffffffffffffffffffffffffffff168473ffffffffffffffffffffffffffffffffffffffff167fddf252ad1be2c89b69c2b068fc378daa952ba7f163c4a11628f55a4df523b3ef60405160405180910390a4613362838383613aaf565b505050565b6000600660009054906101000a900473ffffffffffffffffffffffffffffffffffffffff16905081600660006101000a81548173ffffffffffffffffffffffffffffffffffffffff021916908373ffffffffffffffffffffffffffffffffffffffff1602179055508173ffffffffffffffffffffffffffffffffffffffff168173ffffffffffffffffffffffffffffffffffffffff167f8be0079c531659141344cd1fd0a4f28419497f9722a3daafe3b4186f6b6457e060405160405180910390a35050565b8173ffffffffffffffffffffffffffffffffffffffff168373ffffffffffffffffffffffffffffffffffffffff16141561349c576040517f08c379a000000000000000000000000000000000000000000000000000000000815260040161349390615aa3565b60405180910390fd5b80600560008573ffffffffffffffffffffffffffffffffffffffff1673ffffffffffffffffffffffffffffffffffffffff16815260200190815260200160002060008473ffffffffffffffffffffffffffffffffffffffff1673ffffffffffffffffffffffffffffffffffffffff16815260200190815260200160002060006101000a81548160ff0219169083151502179055508173ffffffffffffffffffffffffffffffffffffffff168373ffffffffffffffffffffffffffffffffffffffff167f17307eab39ab6107e8899845ad3d59bd9653f200f220920489ca2b5937696c318360405161358d9190613feb565b60405180910390a3505050565b6001816000016000828254019250508190555050565b6135ca828260405180602001604052806000815250613ab4565b5050565b6135d9848484613100565b6135e584848484613b0f565b613624576040517f08c379a000000000000000000000000000000000000000000000000000000000815260040161361b90615b35565b60405180910390fd5b50505050565b606060008260405160200161363f9190615b9d565b60405160208183030381529060405290506000602a67ffffffffffffffff81111561366d5761366c61435c565b5b6040519080825280601f01601f19166020018201604052801561369f5781602001600182028036833780820191505090505b5090507f3000000000000000000000000000000000000000000000000000000000000000816000815181106136d7576136d6615bb8565b5b60200101907effffffffffffffffffffffffffffffffffffffffffffffffffffffffffffff1916908160001a9053507f78000000000000000000000000000000000000000000000000000000000000008160018151811061373b5761373a615bb8565b5b60200101907effffffffffffffffffffffffffffffffffffffffffffffffffffffffffffff1916908160001a90535060005b601481101561391a576000601084838151811061378d5761378c615bb8565b5b602001015160f81c60f81b60f81c6137a59190615c23565b905060008160106137b69190615c54565b8584815181106137c9576137c8615bb8565b5b602001015160f81c60f81b60f81c6137e19190615c8f565b90506000600a8360ff1610613805576057836137fd9190615cc3565b60f81b613816565b6030836138129190615cc3565b60f81b5b90506000600a8360ff161061383a576057836138329190615cc3565b60f81b61384b565b6030836138479190615cc3565b60f81b5b90508086600387600261385e9190615cfa565b6138689190614f97565b8151811061387957613878615bb8565b5b60200101907effffffffffffffffffffffffffffffffffffffffffffffffffffffffffffff1916908160001a905350818660028760026138b99190615cfa565b6138c39190614f97565b815181106138d4576138d3615bb8565b5b60200101907effffffffffffffffffffffffffffffffffffffffffffffffffffffffffffff1916908160001a90535050505050808061391290615d54565b91505061376d565b508092505050919050565b606060008251141561394857604051806020016040528060008152509050613aa5565b6000604051806060016040528060408152602001615f8a60409139905060006003600285516139779190614f97565b6139819190615d9d565b600461398d9190615cfa565b9050600060208261399e9190614f97565b67ffffffffffffffff8111156139b7576139b661435c565b5b6040519080825280601f01601f1916602001820160405280156139e95781602001600182028036833780820191505090505b509050818152600183018586518101602084015b81831015613a64576003830192508251603f8160121c1685015160f81b8252600182019150603f81600c1c1685015160f81b8252600182019150603f8160061c1685015160f81b8252600182019150603f811685015160f81b8252600182019150506139fd565b600389510660018114613a7e5760028114613a8e57613a99565b613d3d60f01b6002830352613a99565b603d60f81b60018303525b50505050508093505050505b919050565b505050565b505050565b613abe8383613c97565b613acb6000848484613b0f565b613b0a576040517f08c379a0000000000000000000000000000000000000000000000000000000008152600401613b0190615b35565b60405180910390fd5b505050565b6000613b308473ffffffffffffffffffffffffffffffffffffffff16613e71565b15613c8a578373ffffffffffffffffffffffffffffffffffffffff1663150b7a02613b59612ee7565b8786866040518563ffffffff1660e01b8152600401613b7b9493929190615e23565b6020604051808303816000875af1925050508015613bb757506040513d601f19601f82011682018060405250810190613bb49190615e84565b60015b613c3a573d8060008114613be7576040519150601f19603f3d011682016040523d82523d6000602084013e613bec565b606091505b50600081511415613c32576040517f08c379a0000000000000000000000000000000000000000000000000000000008152600401613c2990615b35565b60405180910390fd5b805181602001fd5b63150b7a0260e01b7bffffffffffffffffffffffffffffffffffffffffffffffffffffffff1916817bffffffffffffffffffffffffffffffffffffffffffffffffffffffff191614915050613c8f565b600190505b949350505050565b600073ffffffffffffffffffffffffffffffffffffffff168273ffffffffffffffffffffffffffffffffffffffff161415613d07576040517f08c379a0000000000000000000000000000000000000000000000000000000008152600401613cfe90615efd565b60405180910390fd5b613d1081612eef565b15613d50576040517f08c379a0000000000000000000000000000000000000000000000000000000008152600401613d4790615f69565b60405180910390fd5b613d5c60008383613aaa565b6001600360008473ffffffffffffffffffffffffffffffffffffffff1673ffffffffffffffffffffffffffffffffffffffff1681526020019081526020016000206000828254613dac9190614f97565b92505081905550816002600083815260200190815260200160002060006101000a81548173ffffffffffffffffffffffffffffffffffffffff021916908373ffffffffffffffffffffffffffffffffffffffff160217905550808273ffffffffffffffffffffffffffffffffffffffff16600073ffffffffffffffffffffffffffffffffffffffff167fddf252ad1be2c89b69c2b068fc378daa952ba7f163c4a11628f55a4df523b3ef60405160405180910390a4613e6d60008383613aaf565b5050565b6000808273ffffffffffffffffffffffffffffffffffffffff163b119050919050565b828054613ea0906148f8565b90600052602060002090601f016020900481019282613ec25760008555613f09565b82601f10613edb57805160ff1916838001178555613f09565b82800160010185558215613f09579182015b82811115613f08578251825591602001919060010190613eed565b5b509050613f169190613f1a565b5090565b5b80821115613f33576000816000905550600101613f1b565b5090565b6000604051905090565b600080fd5b600080fd5b60007fffffffff0000000000000000000000000000000000000000000000000000000082169050919050565b613f8081613f4b565b8114613f8b57600080fd5b50565b600081359050613f9d81613f77565b92915050565b600060208284031215613fb957613fb8613f41565b5b6000613fc784828501613f8e565b91505092915050565b60008115159050919050565b613fe581613fd0565b82525050565b60006020820190506140006000830184613fdc565b92915050565b61400f81613fd0565b811461401a57600080fd5b50565b60008135905061402c81614006565b92915050565b60006020828403121561404857614047613f41565b5b60006140568482850161401d565b91505092915050565b6000819050919050565b6140728161405f565b811461407d57600080fd5b50565b60008135905061408f81614069565b92915050565b6000602082840312156140ab576140aa613f41565b5b60006140b984828501614080565b91505092915050565b6000819050919050565b6140d5816140c2565b82525050565b60006020820190506140f060008301846140cc565b92915050565b600081519050919050565b600082825260208201905092915050565b60005b83811015614130578082015181840152602081019050614115565b8381111561413f576000848401525b50505050565b6000601f19601f8301169050919050565b6000614161826140f6565b61416b8185614101565b935061417b818560208601614112565b61418481614145565b840191505092915050565b600060208201905081810360008301526141a98184614156565b905092915050565b6141ba816140c2565b81146141c557600080fd5b50565b6000813590506141d7816141b1565b92915050565b6000602082840312156141f3576141f2613f41565b5b6000614201848285016141c8565b91505092915050565b600073ffffffffffffffffffffffffffffffffffffffff82169050919050565b60006142358261420a565b9050919050565b6142458161422a565b82525050565b6000602082019050614260600083018461423c565b92915050565b61426f8161422a565b811461427a57600080fd5b50565b60008135905061428c81614266565b92915050565b600080604083850312156142a9576142a8613f41565b5b60006142b78582860161427d565b92505060206142c8858286016141c8565b9150509250929050565b6000806000606084860312156142eb576142ea613f41565b5b60006142f98682870161427d565b935050602061430a8682870161427d565b925050604061431b868287016141c8565b9150509250925092565b60006020828403121561433b5761433a613f41565b5b60006143498482850161427d565b91505092915050565b600080fd5b600080fd5b7f4e487b7100000000000000000000000000000000000000000000000000000000600052604160045260246000fd5b61439482614145565b810181811067ffffffffffffffff821117156143b3576143b261435c565b5b80604052505050565b60006143c6613f37565b90506143d2828261438b565b919050565b600067ffffffffffffffff8211156143f2576143f161435c565b5b6143fb82614145565b9050602081019050919050565b82818337600083830152505050565b600061442a614425846143d7565b6143bc565b90508281526020810184848401111561444657614445614357565b5b614451848285614408565b509392505050565b600082601f83011261446e5761446d614352565b5b813561447e848260208601614417565b91505092915050565b60006020828403121561449d5761449c613f41565b5b600082013567ffffffffffffffff8111156144bb576144ba613f46565b5b6144c784828501614459565b91505092915050565b6144d98161405f565b82525050565b60006020820190506144f460008301846144d0565b92915050565b6000806040838503121561451157614510613f41565b5b600061451f8582860161427d565b92505060206145308582860161401d565b9150509250929050565b6000806000806000806000806000806101408b8d03121561455e5761455d613f41565b5b60008b013567ffffffffffffffff81111561457c5761457b613f46565b5b6145888d828e01614459565b9a505060208b013567ffffffffffffffff8111156145a9576145a8613f46565b5b6145b58d828e01614459565b99505060408b013567ffffffffffffffff8111156145d6576145d5613f46565b5b6145e28d828e01614459565b98505060608b013567ffffffffffffffff81111561460357614602613f46565b5b61460f8d828e01614459565b97505060808b013567ffffffffffffffff8111156146305761462f613f46565b5b61463c8d828e01614459565b96505060a08b013567ffffffffffffffff81111561465d5761465c613f46565b5b6146698d828e01614459565b95505060c08b013567ffffffffffffffff81111561468a57614689613f46565b5b6146968d828e01614459565b94505060e08b013567ffffffffffffffff8111156146b7576146b6613f46565b5b6146c38d828e01614459565b9350506101006146d58d828e0161427d565b9250506101206146e78d828e01614080565b9150509295989b9194979a5092959850565b600067ffffffffffffffff8211156147145761471361435c565b5b61471d82614145565b9050602081019050919050565b600061473d614738846146f9565b6143bc565b90508281526020810184848401111561475957614758614357565b5b614764848285614408565b509392505050565b600082601f83011261478157614780614352565b5b813561479184826020860161472a565b91505092915050565b600080600080608085870312156147b4576147b3613f41565b5b60006147c28782880161427d565b94505060206147d38782880161427d565b93505060406147e4878288016141c8565b925050606085013567ffffffffffffffff81111561480557614804613f46565b5b6148118782880161476c565b91505092959194509250565b6000806040838503121561483457614833613f41565b5b60006148428582860161427d565b92505060206148538582860161427d565b9150509250929050565b7f4f776e61626c653a2063616c6c6572206973206e6f7420746865206f776e6572600082015250565b6000614893602083614101565b915061489e8261485d565b602082019050919050565b600060208201905081810360008301526148c281614886565b9050919050565b7f4e487b7100000000000000000000000000000000000000000000000000000000600052602260045260246000fd5b6000600282049050600182168061491057607f821691505b60208210811415614924576149236148c9565b5b50919050565b7f4552433732313a20617070726f76656420717565727920666f72206e6f6e657860008201527f697374656e7420746f6b656e0000000000000000000000000000000000000000602082015250565b6000614986602c83614101565b91506149918261492a565b604082019050919050565b600060208201905081810360008301526149b581614979565b9050919050565b7f4552433732313a20617070726f76616c20746f2063757272656e74206f776e6560008201527f7200000000000000000000000000000000000000000000000000000000000000602082015250565b6000614a18602183614101565b9150614a23826149bc565b604082019050919050565b60006020820190508181036000830152614a4781614a0b565b9050919050565b7f4552433732313a20617070726f76652063616c6c6572206973206e6f74206f7760008201527f6e6572206e6f7220617070726f76656420666f7220616c6c0000000000000000602082015250565b6000614aaa603883614101565b9150614ab582614a4e565b604082019050919050565b60006020820190508181036000830152614ad981614a9d565b9050919050565b7f4552433732313a207472616e736665722063616c6c6572206973206e6f74206f60008201527f776e6572206e6f7220617070726f766564000000000000000000000000000000602082015250565b6000614b3c603183614101565b9150614b4782614ae0565b604082019050919050565b60006020820190508181036000830152614b6b81614b2f565b9050919050565b600081905092915050565b50565b6000614b8d600083614b72565b9150614b9882614b7d565b600082019050919050565b6000614bae82614b80565b9150819050919050565b600081905092915050565b6000614bce826140f6565b614bd88185614bb8565b9350614be8818560208601614112565b80840191505092915050565b6000614c008284614bc3565b915081905092915050565b7f4552433732313a206f776e657220717565727920666f72206e6f6e657869737460008201527f656e7420746f6b656e0000000000000000000000000000000000000000000000602082015250565b6000614c67602983614101565b9150614c7282614c0b565b604082019050919050565b60006020820190508181036000830152614c9681614c5a565b9050919050565b7f4552433732313a2062616c616e636520717565727920666f7220746865207a6560008201527f726f206164647265737300000000000000000000000000000000000000000000602082015250565b6000614cf9602a83614101565b9150614d0482614c9d565b604082019050919050565b60006020820190508181036000830152614d2881614cec565b9050919050565b60008190508160005260206000209050919050565b60008154614d51816148f8565b614d5b8186614bb8565b94506001821660008114614d765760018114614d8757614dba565b60ff19831686528186019350614dba565b614d9085614d2f565b60005b83811015614db257815481890152600182019150602081019050614d93565b838801955050505b50505092915050565b6000614dcf828a614d44565b9150614ddb8289614d44565b9150614de78288614d44565b9150614df38287614d44565b9150614dff8286614d44565b9150614e0b8285614d44565b9150614e178284614d44565b915081905098975050505050505050565b7f436f6e7472616374206973207061757365640000000000000000000000000000600082015250565b6000614e5e601283614101565b9150614e6982614e28565b602082019050919050565b60006020820190508181036000830152614e8d81614e51565b9050919050565b600081519050614ea3816141b1565b92915050565b600060208284031215614ebf57614ebe613f41565b5b6000614ecd84828501614e94565b91505092915050565b7f596f7520646f6e2774206f776e20616e79204275696c64657220546f6b656e2060008201527f4e46547300000000000000000000000000000000000000000000000000000000602082015250565b6000614f32602483614101565b9150614f3d82614ed6565b604082019050919050565b60006020820190508181036000830152614f6181614f25565b9050919050565b7f4e487b7100000000000000000000000000000000000000000000000000000000600052601160045260246000fd5b6000614fa2826140c2565b9150614fad836140c2565b9250827fffffffffffffffffffffffffffffffffffffffffffffffffffffffffffffffff03821115614fe257614fe1614f68565b5b828201905092915050565b7f4552433732314d657461646174613a2055524920717565727920666f72206e6f60008201527f6e6578697374656e7420746f6b656e0000000000000000000000000000000000602082015250565b6000615049602f83614101565b915061505482614fed565b604082019050919050565b600060208201905081810360008301526150788161503c565b9050919050565b60008151905061508e81614069565b92915050565b6000602082840312156150aa576150a9613f41565b5b60006150b88482850161507f565b91505092915050565b60006150cd828b614d44565b91506150d9828a614d44565b91506150e58289614d44565b91506150f18288614d44565b91506150fd8287614d44565b91506151098286614d44565b91506151158285614d44565b91506151218284614d44565b91508190509998505050505050505050565b7f496e76616c6964206d6574616461746121000000000000000000000000000000600082015250565b6000615169601183614101565b915061517482615133565b602082019050919050565b600060208201905081810360008301526151988161515c565b9050919050565b6000815190506151ae81614266565b92915050565b6000602082840312156151ca576151c9613f41565b5b60006151d88482850161519f565b91505092915050565b7f496e76616c69642063726561746f722100000000000000000000000000000000600082015250565b6000615217601083614101565b9150615222826151e1565b602082019050919050565b600060208201905081810360008301526152468161520a565b9050919050565b7f7b226e616d65223a220000000000000000000000000000000000000000000000600082015250565b6000615283600983614bb8565b915061528e8261524d565b600982019050919050565b7f222c20226465736372697074696f6e223a220000000000000000000000000000600082015250565b60006152cf601283614bb8565b91506152da82615299565b601282019050919050565b7f222c2022696d616765223a220000000000000000000000000000000000000000600082015250565b600061531b600c83614bb8565b9150615326826152e5565b600c82019050919050565b7f222c202261747472696275746573223a205b7b2274726169745f74797065223a60008201527f20227265636f7264206f66222c202276616c7565223a20220000000000000000602082015250565b600061538d603883614bb8565b915061539882615331565b603882019050919050565b7f227d2c7b2274726169745f74797065223a202263726561746f72206b6579776f60008201527f7264222c202276616c7565223a20220000000000000000000000000000000000602082015250565b60006153ff602f83614bb8565b915061540a826153a3565b602f82019050919050565b7f227d2c7b2274726169745f74797065223a20226372656174696f6e206461746560008201527f222c202276616c7565223a202200000000000000000000000000000000000000602082015250565b6000615471602d83614bb8565b915061547c82615415565b602d82019050919050565b7f227d2c7b2274726169745f74797065223a202263726561746f72206d6573736160008201527f6765222c202276616c7565223a20220000000000000000000000000000000000602082015250565b60006154e3602f83614bb8565b91506154ee82615487565b602f82019050919050565b7f227d2c7b2274726169745f74797065223a202263726561746f7220616464726560008201527f7373222c202276616c7565223a20220000000000000000000000000000000000602082015250565b6000615555602f83614bb8565b9150615560826154f9565b602f82019050919050565b7f227d2c7b2274726169745f74797065223a20224e4654206d6f6465222c20227660008201527f616c7565223a2022000000000000000000000000000000000000000000000000602082015250565b60006155c7602883614bb8565b91506155d28261556b565b602882019050919050565b7f227d000000000000000000000000000000000000000000000000000000000000600082015250565b6000615613600283614bb8565b915061561e826155dd565b600282019050919050565b7f5d7d000000000000000000000000000000000000000000000000000000000000600082015250565b600061565f600283614bb8565b915061566a82615629565b600282019050919050565b600061568082615276565b915061568c828c614bc3565b9150615697826152c2565b91506156a3828b614bc3565b91506156ae8261530e565b91506156ba828a614bc3565b91506156c582615380565b91506156d18289614bc3565b91506156dc826153f2565b91506156e88288614bc3565b91506156f382615464565b91506156ff8287614bc3565b915061570a826154d6565b91506157168286614bc3565b915061572182615548565b915061572d8285614bc3565b9150615738826155ba565b91506157448284614bc3565b915061574f82615606565b915061575a82615652565b91508190509a9950505050505050505050565b7f646174613a6170706c69636174696f6e2f6a736f6e3b6261736536342c000000600082015250565b60006157a3601d83614bb8565b91506157ae8261576d565b601d82019050919050565b60006157c482615796565b91506157d08284614bc3565b915081905092915050565b7f4f776e61626c653a206e6577206f776e657220697320746865207a65726f206160008201527f6464726573730000000000000000000000000000000000000000000000000000602082015250565b6000615837602683614101565b9150615842826157db565b604082019050919050565b600060208201905081810360008301526158668161582a565b9050919050565b7f4552433732313a206f70657261746f7220717565727920666f72206e6f6e657860008201527f697374656e7420746f6b656e0000000000000000000000000000000000000000602082015250565b60006158c9602c83614101565b91506158d48261586d565b604082019050919050565b600060208201905081810360008301526158f8816158bc565b9050919050565b7f4552433732313a207472616e736665722066726f6d20696e636f72726563742060008201527f6f776e6572000000000000000000000000000000000000000000000000000000602082015250565b600061595b602583614101565b9150615966826158ff565b604082019050919050565b6000602082019050818103600083015261598a8161594e565b9050919050565b7f4552433732313a207472616e7366657220746f20746865207a65726f2061646460008201527f7265737300000000000000000000000000000000000000000000000000000000602082015250565b60006159ed602483614101565b91506159f882615991565b604082019050919050565b60006020820190508181036000830152615a1c816159e0565b9050919050565b6000615a2e826140c2565b9150615a39836140c2565b925082821015615a4c57615a4b614f68565b5b828203905092915050565b7f4552433732313a20617070726f766520746f2063616c6c657200000000000000600082015250565b6000615a8d601983614101565b9150615a9882615a57565b602082019050919050565b60006020820190508181036000830152615abc81615a80565b9050919050565b7f4552433732313a207472616e7366657220746f206e6f6e20455243373231526560008201527f63656976657220696d706c656d656e7465720000000000000000000000000000602082015250565b6000615b1f603283614101565b9150615b2a82615ac3565b604082019050919050565b60006020820190508181036000830152615b4e81615b12565b9050919050565b60008160601b9050919050565b6000615b6d82615b55565b9050919050565b6000615b7f82615b62565b9050919050565b615b97615b928261422a565b615b74565b82525050565b6000615ba98284615b86565b60148201915081905092915050565b7f4e487b7100000000000000000000000000000000000000000000000000000000600052603260045260246000fd5b600060ff82169050919050565b7f4e487b7100000000000000000000000000000000000000000000000000000000600052601260045260246000fd5b6000615c2e82615be7565b9150615c3983615be7565b925082615c4957615c48615bf4565b5b828204905092915050565b6000615c5f82615be7565b9150615c6a83615be7565b92508160ff0483118215151615615c8457615c83614f68565b5b828202905092915050565b6000615c9a82615be7565b9150615ca583615be7565b925082821015615cb857615cb7614f68565b5b828203905092915050565b6000615cce82615be7565b9150615cd983615be7565b92508260ff03821115615cef57615cee614f68565b5b828201905092915050565b6000615d05826140c2565b9150615d10836140c2565b9250817fffffffffffffffffffffffffffffffffffffffffffffffffffffffffffffffff0483118215151615615d4957615d48614f68565b5b828202905092915050565b6000615d5f826140c2565b91507fffffffffffffffffffffffffffffffffffffffffffffffffffffffffffffffff821415615d9257615d91614f68565b5b600182019050919050565b6000615da8826140c2565b9150615db3836140c2565b925082615dc357615dc2615bf4565b5b828204905092915050565b600081519050919050565b600082825260208201905092915050565b6000615df582615dce565b615dff8185615dd9565b9350615e0f818560208601614112565b615e1881614145565b840191505092915050565b6000608082019050615e38600083018761423c565b615e45602083018661423c565b615e5260408301856140cc565b8181036060830152615e648184615dea565b905095945050505050565b600081519050615e7e81613f77565b92915050565b600060208284031215615e9a57615e99613f41565b5b6000615ea884828501615e6f565b91505092915050565b7f4552433732313a206d696e7420746f20746865207a65726f2061646472657373600082015250565b6000615ee7602083614101565b9150615ef282615eb1565b602082019050919050565b60006020820190508181036000830152615f1681615eda565b9050919050565b7f4552433732313a20746f6b656e20616c7265616479206d696e74656400000000600082015250565b6000615f53601c83614101565b9150615f5e82615f1d565b602082019050919050565b60006020820190508181036000830152615f8281615f46565b905091905056fe4142434445464748494a4b4c4d4e4f505152535455565758595a6162636465666768696a6b6c6d6e6f707172737475767778797a303132333435363738392b2fa2646970667358221220f443439c875a7e5f5315c8945a2b342ec08fcf4ed52057387c81ef831115cb0164736f6c634300080b0033",
  "immutableReferences": {},
  "source": "// SPDX-License-Identifier: MIT\r\n\r\n// File: contracts/Base64.sol\r\n\r\npragma solidity ^0.8.0;\r\n\r\n/// @title Base64\r\n/// @author Brecht Devos - <brecht@loopring.org>\r\n/// @notice Provides a function for encoding some bytes in base64\r\nlibrary Base64 {\r\n    string internal constant TABLE =\r\n        \"ABCDEFGHIJKLMNOPQRSTUVWXYZabcdefghijklmnopqrstuvwxyz0123456789+/\";\r\n\r\n    function encode(bytes memory data) internal pure returns (string memory) {\r\n        if (data.length == 0) return \"\";\r\n\r\n        // load the table into memory\r\n        string memory table = TABLE;\r\n\r\n        // multiply by 4/3 rounded up\r\n        uint256 encodedLen = 4 * ((data.length + 2) / 3);\r\n\r\n        // add some extra buffer at the end required for the writing\r\n        string memory result = new string(encodedLen + 32);\r\n\r\n        assembly {\r\n            // set the actual output length\r\n            mstore(result, encodedLen)\r\n\r\n            // prepare the lookup table\r\n            let tablePtr := add(table, 1)\r\n\r\n            // input ptr\r\n            let dataPtr := data\r\n            let endPtr := add(dataPtr, mload(data))\r\n\r\n            // result ptr, jump over length\r\n            let resultPtr := add(result, 32)\r\n\r\n            // run over the input, 3 bytes at a time\r\n            for {\r\n\r\n            } lt(dataPtr, endPtr) {\r\n\r\n            } {\r\n                dataPtr := add(dataPtr, 3)\r\n\r\n                // read 3 bytes\r\n                let input := mload(dataPtr)\r\n\r\n                // write 4 characters\r\n                mstore(\r\n                    resultPtr,\r\n                    shl(248, mload(add(tablePtr, and(shr(18, input), 0x3F))))\r\n                )\r\n                resultPtr := add(resultPtr, 1)\r\n                mstore(\r\n                    resultPtr,\r\n                    shl(248, mload(add(tablePtr, and(shr(12, input), 0x3F))))\r\n                )\r\n                resultPtr := add(resultPtr, 1)\r\n                mstore(\r\n                    resultPtr,\r\n                    shl(248, mload(add(tablePtr, and(shr(6, input), 0x3F))))\r\n                )\r\n                resultPtr := add(resultPtr, 1)\r\n                mstore(\r\n                    resultPtr,\r\n                    shl(248, mload(add(tablePtr, and(input, 0x3F))))\r\n                )\r\n                resultPtr := add(resultPtr, 1)\r\n            }\r\n\r\n            // padding with '='\r\n            switch mod(mload(data), 3)\r\n            case 1 {\r\n                mstore(sub(resultPtr, 2), shl(240, 0x3d3d))\r\n            }\r\n            case 2 {\r\n                mstore(sub(resultPtr, 1), shl(248, 0x3d))\r\n            }\r\n        }\r\n\r\n        return result;\r\n    }\r\n}\r\n// File: @openzeppelin/contracts/utils/Counters.sol\r\n\r\n// OpenZeppelin Contracts v4.4.1 (utils/Counters.sol)\r\n\r\npragma solidity ^0.8.0;\r\n\r\n/**\r\n * @title Counters\r\n * @author Matt Condon (@shrugs)\r\n * @dev Provides counters that can only be incremented, decremented or reset. This can be used e.g. to track the number\r\n * of elements in a mapping, issuing ERC721 ids, or counting request ids.\r\n *\r\n * Include with `using Counters for Counters.Counter;`\r\n */\r\nlibrary Counters {\r\n    struct Counter {\r\n        // This variable should never be directly accessed by users of the library: interactions must be restricted to\r\n        // the library's function. As of Solidity v0.5.2, this cannot be enforced, though there is a proposal to add\r\n        // this feature: see https://github.com/ethereum/solidity/issues/4637\r\n        uint256 _value; // default: 0\r\n    }\r\n\r\n    function current(Counter storage counter) internal view returns (uint256) {\r\n        return counter._value;\r\n    }\r\n\r\n    function increment(Counter storage counter) internal {\r\n        unchecked {\r\n            counter._value += 1;\r\n        }\r\n    }\r\n\r\n    function decrement(Counter storage counter) internal {\r\n        uint256 value = counter._value;\r\n        require(value > 0, \"Counter: decrement overflow\");\r\n        unchecked {\r\n            counter._value = value - 1;\r\n        }\r\n    }\r\n\r\n    function reset(Counter storage counter) internal {\r\n        counter._value = 0;\r\n    }\r\n}\r\n\r\n// File: @openzeppelin/contracts/utils/Strings.sol\r\n\r\n// OpenZeppelin Contracts v4.4.1 (utils/Strings.sol)\r\n\r\npragma solidity ^0.8.0;\r\n\r\n/**\r\n * @dev String operations.\r\n */\r\nlibrary Strings {\r\n    bytes16 private constant _HEX_SYMBOLS = \"0123456789abcdef\";\r\n\r\n    /**\r\n     * @dev Converts a `uint256` to its ASCII `string` decimal representation.\r\n     */\r\n    function toString(uint256 value) internal pure returns (string memory) {\r\n        // Inspired by OraclizeAPI's implementation - MIT licence\r\n        // https://github.com/oraclize/ethereum-api/blob/b42146b063c7d6ee1358846c198246239e9360e8/oraclizeAPI_0.4.25.sol\r\n\r\n        if (value == 0) {\r\n            return \"0\";\r\n        }\r\n        uint256 temp = value;\r\n        uint256 digits;\r\n        while (temp != 0) {\r\n            digits++;\r\n            temp /= 10;\r\n        }\r\n        bytes memory buffer = new bytes(digits);\r\n        while (value != 0) {\r\n            digits -= 1;\r\n            buffer[digits] = bytes1(uint8(48 + uint256(value % 10)));\r\n            value /= 10;\r\n        }\r\n        return string(buffer);\r\n    }\r\n\r\n    /**\r\n     * @dev Converts a `uint256` to its ASCII `string` hexadecimal representation.\r\n     */\r\n    function toHexString(uint256 value) internal pure returns (string memory) {\r\n        if (value == 0) {\r\n            return \"0x00\";\r\n        }\r\n        uint256 temp = value;\r\n        uint256 length = 0;\r\n        while (temp != 0) {\r\n            length++;\r\n            temp >>= 8;\r\n        }\r\n        return toHexString(value, length);\r\n    }\r\n\r\n    /**\r\n     * @dev Converts a `uint256` to its ASCII `string` hexadecimal representation with fixed length.\r\n     */\r\n    function toHexString(uint256 value, uint256 length)\r\n        internal\r\n        pure\r\n        returns (string memory)\r\n    {\r\n        bytes memory buffer = new bytes(2 * length + 2);\r\n        buffer[0] = \"0\";\r\n        buffer[1] = \"x\";\r\n        for (uint256 i = 2 * length + 1; i > 1; --i) {\r\n            buffer[i] = _HEX_SYMBOLS[value & 0xf];\r\n            value >>= 4;\r\n        }\r\n        require(value == 0, \"Strings: hex length insufficient\");\r\n        return string(buffer);\r\n    }\r\n}\r\n\r\n// File: @openzeppelin/contracts/utils/Context.sol\r\n\r\n// OpenZeppelin Contracts v4.4.1 (utils/Context.sol)\r\n\r\npragma solidity ^0.8.0;\r\n\r\n/**\r\n * @dev Provides information about the current execution context, including the\r\n * sender of the transaction and its data. While these are generally available\r\n * via msg.sender and msg.data, they should not be accessed in such a direct\r\n * manner, since when dealing with meta-transactions the account sending and\r\n * paying for execution may not be the actual sender (as far as an application\r\n * is concerned).\r\n *\r\n * This contract is only required for intermediate, library-like contracts.\r\n */\r\nabstract contract Context {\r\n    function _msgSender() internal view virtual returns (address) {\r\n        return msg.sender;\r\n    }\r\n\r\n    function _msgData() internal view virtual returns (bytes calldata) {\r\n        return msg.data;\r\n    }\r\n}\r\n\r\n// File: @openzeppelin/contracts/access/Ownable.sol\r\n\r\n// OpenZeppelin Contracts v4.4.1 (access/Ownable.sol)\r\n\r\npragma solidity ^0.8.0;\r\n\r\n/**\r\n * @dev Contract module which provides a basic access control mechanism, where\r\n * there is an account (an owner) that can be granted exclusive access to\r\n * specific functions.\r\n *\r\n * By default, the owner account will be the one that deploys the contract. This\r\n * can later be changed with {transferOwnership}.\r\n *\r\n * This module is used through inheritance. It will make available the modifier\r\n * `onlyOwner`, which can be applied to your functions to restrict their use to\r\n * the owner.\r\n */\r\nabstract contract Ownable is Context {\r\n    address private _owner;\r\n\r\n    event OwnershipTransferred(\r\n        address indexed previousOwner,\r\n        address indexed newOwner\r\n    );\r\n\r\n    /**\r\n     * @dev Initializes the contract setting the deployer as the initial owner.\r\n     */\r\n    constructor() {\r\n        _transferOwnership(_msgSender());\r\n    }\r\n\r\n    /**\r\n     * @dev Returns the address of the current owner.\r\n     */\r\n    function owner() public view virtual returns (address) {\r\n        return _owner;\r\n    }\r\n\r\n    /**\r\n     * @dev Throws if called by any account other than the owner.\r\n     */\r\n    modifier onlyOwner() {\r\n        require(owner() == _msgSender(), \"Ownable: caller is not the owner\");\r\n        _;\r\n    }\r\n\r\n    /**\r\n     * @dev Leaves the contract without owner. It will not be possible to call\r\n     * `onlyOwner` functions anymore. Can only be called by the current owner.\r\n     *\r\n     * NOTE: Renouncing ownership will leave the contract without an owner,\r\n     * thereby removing any functionality that is only available to the owner.\r\n     */\r\n    function renounceOwnership() public virtual onlyOwner {\r\n        _transferOwnership(address(0));\r\n    }\r\n\r\n    /**\r\n     * @dev Transfers ownership of the contract to a new account (`newOwner`).\r\n     * Can only be called by the current owner.\r\n     */\r\n    function transferOwnership(address newOwner) public virtual onlyOwner {\r\n        require(\r\n            newOwner != address(0),\r\n            \"Ownable: new owner is the zero address\"\r\n        );\r\n        _transferOwnership(newOwner);\r\n    }\r\n\r\n    /**\r\n     * @dev Transfers ownership of the contract to a new account (`newOwner`).\r\n     * Internal function without access restriction.\r\n     */\r\n    function _transferOwnership(address newOwner) internal virtual {\r\n        address oldOwner = _owner;\r\n        _owner = newOwner;\r\n        emit OwnershipTransferred(oldOwner, newOwner);\r\n    }\r\n}\r\n\r\n// File: @openzeppelin/contracts/utils/Address.sol\r\n\r\n// OpenZeppelin Contracts (last updated v4.5.0) (utils/Address.sol)\r\n\r\npragma solidity ^0.8.1;\r\n\r\n/**\r\n * @dev Collection of functions related to the address type\r\n */\r\nlibrary Address {\r\n    /**\r\n     * @dev Returns true if `account` is a contract.\r\n     *\r\n     * [IMPORTANT]\r\n     * ====\r\n     * It is unsafe to assume that an address for which this function returns\r\n     * false is an externally-owned account (EOA) and not a contract.\r\n     *\r\n     * Among others, `isContract` will return false for the following\r\n     * types of addresses:\r\n     *\r\n     *  - an externally-owned account\r\n     *  - a contract in construction\r\n     *  - an address where a contract will be created\r\n     *  - an address where a contract lived, but was destroyed\r\n     * ====\r\n     *\r\n     * [IMPORTANT]\r\n     * ====\r\n     * You shouldn't rely on `isContract` to protect against flash loan attacks!\r\n     *\r\n     * Preventing calls from contracts is highly discouraged. It breaks composability, breaks support for smart wallets\r\n     * like Gnosis Safe, and does not provide security since it can be circumvented by calling from a contract\r\n     * constructor.\r\n     * ====\r\n     */\r\n    function isContract(address account) internal view returns (bool) {\r\n        // This method relies on extcodesize/address.code.length, which returns 0\r\n        // for contracts in construction, since the code is only stored at the end\r\n        // of the constructor execution.\r\n\r\n        return account.code.length > 0;\r\n    }\r\n\r\n    /**\r\n     * @dev Replacement for Solidity's `transfer`: sends `amount` wei to\r\n     * `recipient`, forwarding all available gas and reverting on errors.\r\n     *\r\n     * https://eips.ethereum.org/EIPS/eip-1884[EIP1884] increases the gas cost\r\n     * of certain opcodes, possibly making contracts go over the 2300 gas limit\r\n     * imposed by `transfer`, making them unable to receive funds via\r\n     * `transfer`. {sendValue} removes this limitation.\r\n     *\r\n     * https://diligence.consensys.net/posts/2019/09/stop-using-soliditys-transfer-now/[Learn more].\r\n     *\r\n     * IMPORTANT: because control is transferred to `recipient`, care must be\r\n     * taken to not create reentrancy vulnerabilities. Consider using\r\n     * {ReentrancyGuard} or the\r\n     * https://solidity.readthedocs.io/en/v0.5.11/security-considerations.html#use-the-checks-effects-interactions-pattern[checks-effects-interactions pattern].\r\n     */\r\n    function sendValue(address payable recipient, uint256 amount) internal {\r\n        require(\r\n            address(this).balance >= amount,\r\n            \"Address: insufficient balance\"\r\n        );\r\n\r\n        (bool success, ) = recipient.call{value: amount}(\"\");\r\n        require(\r\n            success,\r\n            \"Address: unable to send value, recipient may have reverted\"\r\n        );\r\n    }\r\n\r\n    /**\r\n     * @dev Performs a Solidity function call using a low level `call`. A\r\n     * plain `call` is an unsafe replacement for a function call: use this\r\n     * function instead.\r\n     *\r\n     * If `target` reverts with a revert reason, it is bubbled up by this\r\n     * function (like regular Solidity function calls).\r\n     *\r\n     * Returns the raw returned data. To convert to the expected return value,\r\n     * use https://solidity.readthedocs.io/en/latest/units-and-global-variables.html?highlight=abi.decode#abi-encoding-and-decoding-functions[`abi.decode`].\r\n     *\r\n     * Requirements:\r\n     *\r\n     * - `target` must be a contract.\r\n     * - calling `target` with `data` must not revert.\r\n     *\r\n     * _Available since v3.1._\r\n     */\r\n    function functionCall(address target, bytes memory data)\r\n        internal\r\n        returns (bytes memory)\r\n    {\r\n        return functionCall(target, data, \"Address: low-level call failed\");\r\n    }\r\n\r\n    /**\r\n     * @dev Same as {xref-Address-functionCall-address-bytes-}[`functionCall`], but with\r\n     * `errorMessage` as a fallback revert reason when `target` reverts.\r\n     *\r\n     * _Available since v3.1._\r\n     */\r\n    function functionCall(\r\n        address target,\r\n        bytes memory data,\r\n        string memory errorMessage\r\n    ) internal returns (bytes memory) {\r\n        return functionCallWithValue(target, data, 0, errorMessage);\r\n    }\r\n\r\n    /**\r\n     * @dev Same as {xref-Address-functionCall-address-bytes-}[`functionCall`],\r\n     * but also transferring `value` wei to `target`.\r\n     *\r\n     * Requirements:\r\n     *\r\n     * - the calling contract must have an ETH balance of at least `value`.\r\n     * - the called Solidity function must be `payable`.\r\n     *\r\n     * _Available since v3.1._\r\n     */\r\n    function functionCallWithValue(\r\n        address target,\r\n        bytes memory data,\r\n        uint256 value\r\n    ) internal returns (bytes memory) {\r\n        return\r\n            functionCallWithValue(\r\n                target,\r\n                data,\r\n                value,\r\n                \"Address: low-level call with value failed\"\r\n            );\r\n    }\r\n\r\n    /**\r\n     * @dev Same as {xref-Address-functionCallWithValue-address-bytes-uint256-}[`functionCallWithValue`], but\r\n     * with `errorMessage` as a fallback revert reason when `target` reverts.\r\n     *\r\n     * _Available since v3.1._\r\n     */\r\n    function functionCallWithValue(\r\n        address target,\r\n        bytes memory data,\r\n        uint256 value,\r\n        string memory errorMessage\r\n    ) internal returns (bytes memory) {\r\n        require(\r\n            address(this).balance >= value,\r\n            \"Address: insufficient balance for call\"\r\n        );\r\n        require(isContract(target), \"Address: call to non-contract\");\r\n\r\n        (bool success, bytes memory returndata) = target.call{value: value}(\r\n            data\r\n        );\r\n        return verifyCallResult(success, returndata, errorMessage);\r\n    }\r\n\r\n    /**\r\n     * @dev Same as {xref-Address-functionCall-address-bytes-}[`functionCall`],\r\n     * but performing a static call.\r\n     *\r\n     * _Available since v3.3._\r\n     */\r\n    function functionStaticCall(address target, bytes memory data)\r\n        internal\r\n        view\r\n        returns (bytes memory)\r\n    {\r\n        return\r\n            functionStaticCall(\r\n                target,\r\n                data,\r\n                \"Address: low-level static call failed\"\r\n            );\r\n    }\r\n\r\n    /**\r\n     * @dev Same as {xref-Address-functionCall-address-bytes-string-}[`functionCall`],\r\n     * but performing a static call.\r\n     *\r\n     * _Available since v3.3._\r\n     */\r\n    function functionStaticCall(\r\n        address target,\r\n        bytes memory data,\r\n        string memory errorMessage\r\n    ) internal view returns (bytes memory) {\r\n        require(isContract(target), \"Address: static call to non-contract\");\r\n\r\n        (bool success, bytes memory returndata) = target.staticcall(data);\r\n        return verifyCallResult(success, returndata, errorMessage);\r\n    }\r\n\r\n    /**\r\n     * @dev Same as {xref-Address-functionCall-address-bytes-}[`functionCall`],\r\n     * but performing a delegate call.\r\n     *\r\n     * _Available since v3.4._\r\n     */\r\n    function functionDelegateCall(address target, bytes memory data)\r\n        internal\r\n        returns (bytes memory)\r\n    {\r\n        return\r\n            functionDelegateCall(\r\n                target,\r\n                data,\r\n                \"Address: low-level delegate call failed\"\r\n            );\r\n    }\r\n\r\n    /**\r\n     * @dev Same as {xref-Address-functionCall-address-bytes-string-}[`functionCall`],\r\n     * but performing a delegate call.\r\n     *\r\n     * _Available since v3.4._\r\n     */\r\n    function functionDelegateCall(\r\n        address target,\r\n        bytes memory data,\r\n        string memory errorMessage\r\n    ) internal returns (bytes memory) {\r\n        require(isContract(target), \"Address: delegate call to non-contract\");\r\n\r\n        (bool success, bytes memory returndata) = target.delegatecall(data);\r\n        return verifyCallResult(success, returndata, errorMessage);\r\n    }\r\n\r\n    /**\r\n     * @dev Tool to verifies that a low level call was successful, and revert if it wasn't, either by bubbling the\r\n     * revert reason using the provided one.\r\n     *\r\n     * _Available since v4.3._\r\n     */\r\n    function verifyCallResult(\r\n        bool success,\r\n        bytes memory returndata,\r\n        string memory errorMessage\r\n    ) internal pure returns (bytes memory) {\r\n        if (success) {\r\n            return returndata;\r\n        } else {\r\n            // Look for revert reason and bubble it up if present\r\n            if (returndata.length > 0) {\r\n                // The easiest way to bubble the revert reason is using memory via assembly\r\n\r\n                assembly {\r\n                    let returndata_size := mload(returndata)\r\n                    revert(add(32, returndata), returndata_size)\r\n                }\r\n            } else {\r\n                revert(errorMessage);\r\n            }\r\n        }\r\n    }\r\n}\r\n\r\n// File: @openzeppelin/contracts/token/ERC721/IERC721Receiver.sol\r\n\r\n// OpenZeppelin Contracts v4.4.1 (token/ERC721/IERC721Receiver.sol)\r\n\r\npragma solidity ^0.8.0;\r\n\r\n/**\r\n * @title ERC721 token receiver interface\r\n * @dev Interface for any contract that wants to support safeTransfers\r\n * from ERC721 asset contracts.\r\n */\r\ninterface IERC721Receiver {\r\n    /**\r\n     * @dev Whenever an {IERC721} `tokenId` token is transferred to this contract via {IERC721-safeTransferFrom}\r\n     * by `operator` from `from`, this function is called.\r\n     *\r\n     * It must return its Solidity selector to confirm the token transfer.\r\n     * If any other value is returned or the interface is not implemented by the recipient, the transfer will be reverted.\r\n     *\r\n     * The selector can be obtained in Solidity with `IERC721.onERC721Received.selector`.\r\n     */\r\n    function onERC721Received(\r\n        address operator,\r\n        address from,\r\n        uint256 tokenId,\r\n        bytes calldata data\r\n    ) external returns (bytes4);\r\n}\r\n\r\n// File: @openzeppelin/contracts/utils/introspection/IERC165.sol\r\n\r\n// OpenZeppelin Contracts v4.4.1 (utils/introspection/IERC165.sol)\r\n\r\npragma solidity ^0.8.0;\r\n\r\n/**\r\n * @dev Interface of the ERC165 standard, as defined in the\r\n * https://eips.ethereum.org/EIPS/eip-165[EIP].\r\n *\r\n * Implementers can declare support of contract interfaces, which can then be\r\n * queried by others ({ERC165Checker}).\r\n *\r\n * For an implementation, see {ERC165}.\r\n */\r\ninterface IERC165 {\r\n    /**\r\n     * @dev Returns true if this contract implements the interface defined by\r\n     * `interfaceId`. See the corresponding\r\n     * https://eips.ethereum.org/EIPS/eip-165#how-interfaces-are-identified[EIP section]\r\n     * to learn more about how these ids are created.\r\n     *\r\n     * This function call must use less than 30 000 gas.\r\n     */\r\n    function supportsInterface(bytes4 interfaceId) external view returns (bool);\r\n}\r\n\r\n// File: @openzeppelin/contracts/utils/introspection/ERC165.sol\r\n\r\n// OpenZeppelin Contracts v4.4.1 (utils/introspection/ERC165.sol)\r\n\r\npragma solidity ^0.8.0;\r\n\r\n/**\r\n * @dev Implementation of the {IERC165} interface.\r\n *\r\n * Contracts that want to implement ERC165 should inherit from this contract and override {supportsInterface} to check\r\n * for the additional interface id that will be supported. For example:\r\n *\r\n * ```solidity\r\n * function supportsInterface(bytes4 interfaceId) public view virtual override returns (bool) {\r\n *     return interfaceId == type(MyInterface).interfaceId || super.supportsInterface(interfaceId);\r\n * }\r\n * ```\r\n *\r\n * Alternatively, {ERC165Storage} provides an easier to use but more expensive implementation.\r\n */\r\nabstract contract ERC165 is IERC165 {\r\n    /**\r\n     * @dev See {IERC165-supportsInterface}.\r\n     */\r\n    function supportsInterface(bytes4 interfaceId)\r\n        public\r\n        view\r\n        virtual\r\n        override\r\n        returns (bool)\r\n    {\r\n        return interfaceId == type(IERC165).interfaceId;\r\n    }\r\n}\r\n\r\n// File: @openzeppelin/contracts/token/ERC721/IERC721.sol\r\n\r\n// OpenZeppelin Contracts v4.4.1 (token/ERC721/IERC721.sol)\r\n\r\npragma solidity ^0.8.0;\r\n\r\n/**\r\n * @dev Required interface of an ERC721 compliant contract.\r\n */\r\ninterface IERC721 is IERC165 {\r\n    /**\r\n     * @dev Emitted when `tokenId` token is transferred from `from` to `to`.\r\n     */\r\n    event Transfer(\r\n        address indexed from,\r\n        address indexed to,\r\n        uint256 indexed tokenId\r\n    );\r\n\r\n    /**\r\n     * @dev Emitted when `owner` enables `approved` to manage the `tokenId` token.\r\n     */\r\n    event Approval(\r\n        address indexed owner,\r\n        address indexed approved,\r\n        uint256 indexed tokenId\r\n    );\r\n\r\n    /**\r\n     * @dev Emitted when `owner` enables or disables (`approved`) `operator` to manage all of its assets.\r\n     */\r\n    event ApprovalForAll(\r\n        address indexed owner,\r\n        address indexed operator,\r\n        bool approved\r\n    );\r\n\r\n    /**\r\n     * @dev Returns the number of tokens in ``owner``'s account.\r\n     */\r\n    function balanceOf(address owner) external view returns (uint256 balance);\r\n\r\n    /**\r\n     * @dev Returns the owner of the `tokenId` token.\r\n     *\r\n     * Requirements:\r\n     *\r\n     * - `tokenId` must exist.\r\n     */\r\n    function ownerOf(uint256 tokenId) external view returns (address owner);\r\n\r\n    /**\r\n     * @dev Safely transfers `tokenId` token from `from` to `to`, checking first that contract recipients\r\n     * are aware of the ERC721 protocol to prevent tokens from being forever locked.\r\n     *\r\n     * Requirements:\r\n     *\r\n     * - `from` cannot be the zero address.\r\n     * - `to` cannot be the zero address.\r\n     * - `tokenId` token must exist and be owned by `from`.\r\n     * - If the caller is not `from`, it must be have been allowed to move this token by either {approve} or {setApprovalForAll}.\r\n     * - If `to` refers to a smart contract, it must implement {IERC721Receiver-onERC721Received}, which is called upon a safe transfer.\r\n     *\r\n     * Emits a {Transfer} event.\r\n     */\r\n    function safeTransferFrom(\r\n        address from,\r\n        address to,\r\n        uint256 tokenId\r\n    ) external;\r\n\r\n    /**\r\n     * @dev Transfers `tokenId` token from `from` to `to`.\r\n     *\r\n     * WARNING: Usage of this method is discouraged, use {safeTransferFrom} whenever possible.\r\n     *\r\n     * Requirements:\r\n     *\r\n     * - `from` cannot be the zero address.\r\n     * - `to` cannot be the zero address.\r\n     * - `tokenId` token must be owned by `from`.\r\n     * - If the caller is not `from`, it must be approved to move this token by either {approve} or {setApprovalForAll}.\r\n     *\r\n     * Emits a {Transfer} event.\r\n     */\r\n    function transferFrom(\r\n        address from,\r\n        address to,\r\n        uint256 tokenId\r\n    ) external;\r\n\r\n    /**\r\n     * @dev Gives permission to `to` to transfer `tokenId` token to another account.\r\n     * The approval is cleared when the token is transferred.\r\n     *\r\n     * Only a single account can be approved at a time, so approving the zero address clears previous approvals.\r\n     *\r\n     * Requirements:\r\n     *\r\n     * - The caller must own the token or be an approved operator.\r\n     * - `tokenId` must exist.\r\n     *\r\n     * Emits an {Approval} event.\r\n     */\r\n    function approve(address to, uint256 tokenId) external;\r\n\r\n    /**\r\n     * @dev Returns the account approved for `tokenId` token.\r\n     *\r\n     * Requirements:\r\n     *\r\n     * - `tokenId` must exist.\r\n     */\r\n    function getApproved(uint256 tokenId)\r\n        external\r\n        view\r\n        returns (address operator);\r\n\r\n    /**\r\n     * @dev Approve or remove `operator` as an operator for the caller.\r\n     * Operators can call {transferFrom} or {safeTransferFrom} for any token owned by the caller.\r\n     *\r\n     * Requirements:\r\n     *\r\n     * - The `operator` cannot be the caller.\r\n     *\r\n     * Emits an {ApprovalForAll} event.\r\n     */\r\n    function setApprovalForAll(address operator, bool _approved) external;\r\n\r\n    /**\r\n     * @dev Returns if the `operator` is allowed to manage all of the assets of `owner`.\r\n     *\r\n     * See {setApprovalForAll}\r\n     */\r\n    function isApprovedForAll(address owner, address operator)\r\n        external\r\n        view\r\n        returns (bool);\r\n\r\n    /**\r\n     * @dev Safely transfers `tokenId` token from `from` to `to`.\r\n     *\r\n     * Requirements:\r\n     *\r\n     * - `from` cannot be the zero address.\r\n     * - `to` cannot be the zero address.\r\n     * - `tokenId` token must exist and be owned by `from`.\r\n     * - If the caller is not `from`, it must be approved to move this token by either {approve} or {setApprovalForAll}.\r\n     * - If `to` refers to a smart contract, it must implement {IERC721Receiver-onERC721Received}, which is called upon a safe transfer.\r\n     *\r\n     * Emits a {Transfer} event.\r\n     */\r\n    function safeTransferFrom(\r\n        address from,\r\n        address to,\r\n        uint256 tokenId,\r\n        bytes calldata data\r\n    ) external;\r\n}\r\n\r\n// File: @openzeppelin/contracts/token/ERC721/extensions/IERC721Metadata.sol\r\n\r\n// OpenZeppelin Contracts v4.4.1 (token/ERC721/extensions/IERC721Metadata.sol)\r\n\r\npragma solidity ^0.8.0;\r\n\r\n/**\r\n * @title ERC-721 Non-Fungible Token Standard, optional metadata extension\r\n * @dev See https://eips.ethereum.org/EIPS/eip-721\r\n */\r\ninterface IERC721Metadata is IERC721 {\r\n    /**\r\n     * @dev Returns the token collection name.\r\n     */\r\n    function name() external view returns (string memory);\r\n\r\n    /**\r\n     * @dev Returns the token collection symbol.\r\n     */\r\n    function symbol() external view returns (string memory);\r\n\r\n    /**\r\n     * @dev Returns the Uniform Resource Identifier (URI) for `tokenId` token.\r\n     */\r\n    function tokenURI(uint256 tokenId) external view returns (string memory);\r\n}\r\n\r\n// File: @openzeppelin/contracts/token/ERC721/ERC721.sol\r\n\r\n// OpenZeppelin Contracts (last updated v4.5.0) (token/ERC721/ERC721.sol)\r\n\r\npragma solidity ^0.8.0;\r\n\r\n/**\r\n * @dev Implementation of https://eips.ethereum.org/EIPS/eip-721[ERC721] Non-Fungible Token Standard, including\r\n * the Metadata extension, but not including the Enumerable extension, which is available separately as\r\n * {ERC721Enumerable}.\r\n */\r\ncontract ERC721 is Context, ERC165, IERC721, IERC721Metadata {\r\n    using Address for address;\r\n    using Strings for uint256;\r\n\r\n    // Token name\r\n    string private _name;\r\n\r\n    // Token symbol\r\n    string private _symbol;\r\n\r\n    // Mapping from token ID to owner address\r\n    mapping(uint256 => address) private _owners;\r\n\r\n    // Mapping owner address to token count\r\n    mapping(address => uint256) private _balances;\r\n\r\n    // Mapping from token ID to approved address\r\n    mapping(uint256 => address) private _tokenApprovals;\r\n\r\n    // Mapping from owner to operator approvals\r\n    mapping(address => mapping(address => bool)) private _operatorApprovals;\r\n\r\n    /**\r\n     * @dev Initializes the contract by setting a `name` and a `symbol` to the token collection.\r\n     */\r\n    constructor(string memory name_, string memory symbol_) {\r\n        _name = name_;\r\n        _symbol = symbol_;\r\n    }\r\n\r\n    /**\r\n     * @dev See {IERC165-supportsInterface}.\r\n     */\r\n    function supportsInterface(bytes4 interfaceId)\r\n        public\r\n        view\r\n        virtual\r\n        override(ERC165, IERC165)\r\n        returns (bool)\r\n    {\r\n        return\r\n            interfaceId == type(IERC721).interfaceId ||\r\n            interfaceId == type(IERC721Metadata).interfaceId ||\r\n            super.supportsInterface(interfaceId);\r\n    }\r\n\r\n    /**\r\n     * @dev See {IERC721-balanceOf}.\r\n     */\r\n    function balanceOf(address owner)\r\n        public\r\n        view\r\n        virtual\r\n        override\r\n        returns (uint256)\r\n    {\r\n        require(\r\n            owner != address(0),\r\n            \"ERC721: balance query for the zero address\"\r\n        );\r\n        return _balances[owner];\r\n    }\r\n\r\n    /**\r\n     * @dev See {IERC721-ownerOf}.\r\n     */\r\n    function ownerOf(uint256 tokenId)\r\n        public\r\n        view\r\n        virtual\r\n        override\r\n        returns (address)\r\n    {\r\n        address owner = _owners[tokenId];\r\n        require(\r\n            owner != address(0),\r\n            \"ERC721: owner query for nonexistent token\"\r\n        );\r\n        return owner;\r\n    }\r\n\r\n    /**\r\n     * @dev See {IERC721Metadata-name}.\r\n     */\r\n    function name() public view virtual override returns (string memory) {\r\n        return _name;\r\n    }\r\n\r\n    /**\r\n     * @dev See {IERC721Metadata-symbol}.\r\n     */\r\n    function symbol() public view virtual override returns (string memory) {\r\n        return _symbol;\r\n    }\r\n\r\n    /**\r\n     * @dev See {IERC721Metadata-tokenURI}.\r\n     */\r\n    function tokenURI(uint256 tokenId)\r\n        public\r\n        view\r\n        virtual\r\n        override\r\n        returns (string memory)\r\n    {\r\n        require(\r\n            _exists(tokenId),\r\n            \"ERC721Metadata: URI query for nonexistent token\"\r\n        );\r\n\r\n        string memory baseURI = _baseURI();\r\n        return\r\n            bytes(baseURI).length > 0\r\n                ? string(abi.encodePacked(baseURI, tokenId.toString()))\r\n                : \"\";\r\n    }\r\n\r\n    /**\r\n     * @dev Base URI for computing {tokenURI}. If set, the resulting URI for each\r\n     * token will be the concatenation of the `baseURI` and the `tokenId`. Empty\r\n     * by default, can be overriden in child contracts.\r\n     */\r\n    function _baseURI() internal view virtual returns (string memory) {\r\n        return \"\";\r\n    }\r\n\r\n    /**\r\n     * @dev See {IERC721-approve}.\r\n     */\r\n    function approve(address to, uint256 tokenId) public virtual override {\r\n        address owner = ERC721.ownerOf(tokenId);\r\n        require(to != owner, \"ERC721: approval to current owner\");\r\n\r\n        require(\r\n            _msgSender() == owner || isApprovedForAll(owner, _msgSender()),\r\n            \"ERC721: approve caller is not owner nor approved for all\"\r\n        );\r\n\r\n        _approve(to, tokenId);\r\n    }\r\n\r\n    /**\r\n     * @dev See {IERC721-getApproved}.\r\n     */\r\n    function getApproved(uint256 tokenId)\r\n        public\r\n        view\r\n        virtual\r\n        override\r\n        returns (address)\r\n    {\r\n        require(\r\n            _exists(tokenId),\r\n            \"ERC721: approved query for nonexistent token\"\r\n        );\r\n\r\n        return _tokenApprovals[tokenId];\r\n    }\r\n\r\n    /**\r\n     * @dev See {IERC721-setApprovalForAll}.\r\n     */\r\n    function setApprovalForAll(address operator, bool approved)\r\n        public\r\n        virtual\r\n        override\r\n    {\r\n        _setApprovalForAll(_msgSender(), operator, approved);\r\n    }\r\n\r\n    /**\r\n     * @dev See {IERC721-isApprovedForAll}.\r\n     */\r\n    function isApprovedForAll(address owner, address operator)\r\n        public\r\n        view\r\n        virtual\r\n        override\r\n        returns (bool)\r\n    {\r\n        return _operatorApprovals[owner][operator];\r\n    }\r\n\r\n    /**\r\n     * @dev See {IERC721-transferFrom}.\r\n     */\r\n    function transferFrom(\r\n        address from,\r\n        address to,\r\n        uint256 tokenId\r\n    ) public virtual override {\r\n        //solhint-disable-next-line max-line-length\r\n        require(\r\n            _isApprovedOrOwner(_msgSender(), tokenId),\r\n            \"ERC721: transfer caller is not owner nor approved\"\r\n        );\r\n\r\n        _transfer(from, to, tokenId);\r\n    }\r\n\r\n    /**\r\n     * @dev See {IERC721-safeTransferFrom}.\r\n     */\r\n    function safeTransferFrom(\r\n        address from,\r\n        address to,\r\n        uint256 tokenId\r\n    ) public virtual override {\r\n        safeTransferFrom(from, to, tokenId, \"\");\r\n    }\r\n\r\n    /**\r\n     * @dev See {IERC721-safeTransferFrom}.\r\n     */\r\n    function safeTransferFrom(\r\n        address from,\r\n        address to,\r\n        uint256 tokenId,\r\n        bytes memory _data\r\n    ) public virtual override {\r\n        require(\r\n            _isApprovedOrOwner(_msgSender(), tokenId),\r\n            \"ERC721: transfer caller is not owner nor approved\"\r\n        );\r\n        _safeTransfer(from, to, tokenId, _data);\r\n    }\r\n\r\n    /**\r\n     * @dev Safely transfers `tokenId` token from `from` to `to`, checking first that contract recipients\r\n     * are aware of the ERC721 protocol to prevent tokens from being forever locked.\r\n     *\r\n     * `_data` is additional data, it has no specified format and it is sent in call to `to`.\r\n     *\r\n     * This internal function is equivalent to {safeTransferFrom}, and can be used to e.g.\r\n     * implement alternative mechanisms to perform token transfer, such as signature-based.\r\n     *\r\n     * Requirements:\r\n     *\r\n     * - `from` cannot be the zero address.\r\n     * - `to` cannot be the zero address.\r\n     * - `tokenId` token must exist and be owned by `from`.\r\n     * - If `to` refers to a smart contract, it must implement {IERC721Receiver-onERC721Received}, which is called upon a safe transfer.\r\n     *\r\n     * Emits a {Transfer} event.\r\n     */\r\n    function _safeTransfer(\r\n        address from,\r\n        address to,\r\n        uint256 tokenId,\r\n        bytes memory _data\r\n    ) internal virtual {\r\n        _transfer(from, to, tokenId);\r\n        require(\r\n            _checkOnERC721Received(from, to, tokenId, _data),\r\n            \"ERC721: transfer to non ERC721Receiver implementer\"\r\n        );\r\n    }\r\n\r\n    /**\r\n     * @dev Returns whether `tokenId` exists.\r\n     *\r\n     * Tokens can be managed by their owner or approved accounts via {approve} or {setApprovalForAll}.\r\n     *\r\n     * Tokens start existing when they are minted (`_mint`),\r\n     * and stop existing when they are burned (`_burn`).\r\n     */\r\n    function _exists(uint256 tokenId) internal view virtual returns (bool) {\r\n        return _owners[tokenId] != address(0);\r\n    }\r\n\r\n    /**\r\n     * @dev Returns whether `spender` is allowed to manage `tokenId`.\r\n     *\r\n     * Requirements:\r\n     *\r\n     * - `tokenId` must exist.\r\n     */\r\n    function _isApprovedOrOwner(address spender, uint256 tokenId)\r\n        internal\r\n        view\r\n        virtual\r\n        returns (bool)\r\n    {\r\n        require(\r\n            _exists(tokenId),\r\n            \"ERC721: operator query for nonexistent token\"\r\n        );\r\n        address owner = ERC721.ownerOf(tokenId);\r\n        return (spender == owner ||\r\n            getApproved(tokenId) == spender ||\r\n            isApprovedForAll(owner, spender));\r\n    }\r\n\r\n    /**\r\n     * @dev Safely mints `tokenId` and transfers it to `to`.\r\n     *\r\n     * Requirements:\r\n     *\r\n     * - `tokenId` must not exist.\r\n     * - If `to` refers to a smart contract, it must implement {IERC721Receiver-onERC721Received}, which is called upon a safe transfer.\r\n     *\r\n     * Emits a {Transfer} event.\r\n     */\r\n    function _safeMint(address to, uint256 tokenId) internal virtual {\r\n        _safeMint(to, tokenId, \"\");\r\n    }\r\n\r\n    /**\r\n     * @dev Same as {xref-ERC721-_safeMint-address-uint256-}[`_safeMint`], with an additional `data` parameter which is\r\n     * forwarded in {IERC721Receiver-onERC721Received} to contract recipients.\r\n     */\r\n    function _safeMint(\r\n        address to,\r\n        uint256 tokenId,\r\n        bytes memory _data\r\n    ) internal virtual {\r\n        _mint(to, tokenId);\r\n        require(\r\n            _checkOnERC721Received(address(0), to, tokenId, _data),\r\n            \"ERC721: transfer to non ERC721Receiver implementer\"\r\n        );\r\n    }\r\n\r\n    /**\r\n     * @dev Mints `tokenId` and transfers it to `to`.\r\n     *\r\n     * WARNING: Usage of this method is discouraged, use {_safeMint} whenever possible\r\n     *\r\n     * Requirements:\r\n     *\r\n     * - `tokenId` must not exist.\r\n     * - `to` cannot be the zero address.\r\n     *\r\n     * Emits a {Transfer} event.\r\n     */\r\n    function _mint(address to, uint256 tokenId) internal virtual {\r\n        require(to != address(0), \"ERC721: mint to the zero address\");\r\n        require(!_exists(tokenId), \"ERC721: token already minted\");\r\n\r\n        _beforeTokenTransfer(address(0), to, tokenId);\r\n\r\n        _balances[to] += 1;\r\n        _owners[tokenId] = to;\r\n\r\n        emit Transfer(address(0), to, tokenId);\r\n\r\n        _afterTokenTransfer(address(0), to, tokenId);\r\n    }\r\n\r\n    /**\r\n     * @dev Destroys `tokenId`.\r\n     * The approval is cleared when the token is burned.\r\n     *\r\n     * Requirements:\r\n     *\r\n     * - `tokenId` must exist.\r\n     *\r\n     * Emits a {Transfer} event.\r\n     */\r\n    function _burn(uint256 tokenId) internal virtual {\r\n        address owner = ERC721.ownerOf(tokenId);\r\n\r\n        _beforeTokenTransfer(owner, address(0), tokenId);\r\n\r\n        // Clear approvals\r\n        _approve(address(0), tokenId);\r\n\r\n        _balances[owner] -= 1;\r\n        delete _owners[tokenId];\r\n\r\n        emit Transfer(owner, address(0), tokenId);\r\n\r\n        _afterTokenTransfer(owner, address(0), tokenId);\r\n    }\r\n\r\n    /**\r\n     * @dev Transfers `tokenId` from `from` to `to`.\r\n     *  As opposed to {transferFrom}, this imposes no restrictions on msg.sender.\r\n     *\r\n     * Requirements:\r\n     *\r\n     * - `to` cannot be the zero address.\r\n     * - `tokenId` token must be owned by `from`.\r\n     *\r\n     * Emits a {Transfer} event.\r\n     */\r\n    function _transfer(\r\n        address from,\r\n        address to,\r\n        uint256 tokenId\r\n    ) internal virtual {\r\n        require(\r\n            ERC721.ownerOf(tokenId) == from,\r\n            \"ERC721: transfer from incorrect owner\"\r\n        );\r\n        require(to != address(0), \"ERC721: transfer to the zero address\");\r\n\r\n        _beforeTokenTransfer(from, to, tokenId);\r\n\r\n        // Clear approvals from the previous owner\r\n        _approve(address(0), tokenId);\r\n\r\n        _balances[from] -= 1;\r\n        _balances[to] += 1;\r\n        _owners[tokenId] = to;\r\n\r\n        emit Transfer(from, to, tokenId);\r\n\r\n        _afterTokenTransfer(from, to, tokenId);\r\n    }\r\n\r\n    /**\r\n     * @dev Approve `to` to operate on `tokenId`\r\n     *\r\n     * Emits a {Approval} event.\r\n     */\r\n    function _approve(address to, uint256 tokenId) internal virtual {\r\n        _tokenApprovals[tokenId] = to;\r\n        emit Approval(ERC721.ownerOf(tokenId), to, tokenId);\r\n    }\r\n\r\n    /**\r\n     * @dev Approve `operator` to operate on all of `owner` tokens\r\n     *\r\n     * Emits a {ApprovalForAll} event.\r\n     */\r\n    function _setApprovalForAll(\r\n        address owner,\r\n        address operator,\r\n        bool approved\r\n    ) internal virtual {\r\n        require(owner != operator, \"ERC721: approve to caller\");\r\n        _operatorApprovals[owner][operator] = approved;\r\n        emit ApprovalForAll(owner, operator, approved);\r\n    }\r\n\r\n    /**\r\n     * @dev Internal function to invoke {IERC721Receiver-onERC721Received} on a target address.\r\n     * The call is not executed if the target address is not a contract.\r\n     *\r\n     * @param from address representing the previous owner of the given token ID\r\n     * @param to target address that will receive the tokens\r\n     * @param tokenId uint256 ID of the token to be transferred\r\n     * @param _data bytes optional data to send along with the call\r\n     * @return bool whether the call correctly returned the expected magic value\r\n     */\r\n    function _checkOnERC721Received(\r\n        address from,\r\n        address to,\r\n        uint256 tokenId,\r\n        bytes memory _data\r\n    ) private returns (bool) {\r\n        if (to.isContract()) {\r\n            try\r\n                IERC721Receiver(to).onERC721Received(\r\n                    _msgSender(),\r\n                    from,\r\n                    tokenId,\r\n                    _data\r\n                )\r\n            returns (bytes4 retval) {\r\n                return retval == IERC721Receiver.onERC721Received.selector;\r\n            } catch (bytes memory reason) {\r\n                if (reason.length == 0) {\r\n                    revert(\r\n                        \"ERC721: transfer to non ERC721Receiver implementer\"\r\n                    );\r\n                } else {\r\n                    assembly {\r\n                        revert(add(32, reason), mload(reason))\r\n                    }\r\n                }\r\n            }\r\n        } else {\r\n            return true;\r\n        }\r\n    }\r\n\r\n    /**\r\n     * @dev Hook that is called before any token transfer. This includes minting\r\n     * and burning.\r\n     *\r\n     * Calling conditions:\r\n     *\r\n     * - When `from` and `to` are both non-zero, ``from``'s `tokenId` will be\r\n     * transferred to `to`.\r\n     * - When `from` is zero, `tokenId` will be minted for `to`.\r\n     * - When `to` is zero, ``from``'s `tokenId` will be burned.\r\n     * - `from` and `to` are never both zero.\r\n     *\r\n     * To learn more about hooks, head to xref:ROOT:extending-contracts.adoc#using-hooks[Using Hooks].\r\n     */\r\n    function _beforeTokenTransfer(\r\n        address from,\r\n        address to,\r\n        uint256 tokenId\r\n    ) internal virtual {}\r\n\r\n    /**\r\n     * @dev Hook that is called after any transfer of tokens. This includes\r\n     * minting and burning.\r\n     *\r\n     * Calling conditions:\r\n     *\r\n     * - when `from` and `to` are both non-zero.\r\n     * - `from` and `to` are never both zero.\r\n     *\r\n     * To learn more about hooks, head to xref:ROOT:extending-contracts.adoc#using-hooks[Using Hooks].\r\n     */\r\n    function _afterTokenTransfer(\r\n        address from,\r\n        address to,\r\n        uint256 tokenId\r\n    ) internal virtual {}\r\n}\r\n\r\n// File: contracts/Public.sol\r\n\r\npragma solidity >=0.7.0 <0.9.0;\r\n\r\ncontract ModeMirror is ERC721, Ownable {\r\n    address public pubAddr;\r\n    address public safeCheckaddr;\r\n    address public authMinter1;\r\n    address public authMinter2;\r\n    address public authMinter3;\r\n\r\n    struct Mirror {\r\n        string name;\r\n        string description;\r\n        string image;\r\n        string message;\r\n        string prCreateDate;\r\n        string attrNFTName;\r\n        string attrKeyword;\r\n        string mode;\r\n        address attrCreatorAddr;\r\n    }\r\n\r\n    mapping(uint256 => Mirror) public mirrors;\r\n    mapping(bytes32 => uint256) public DNATokenCheck;\r\n    mapping(string => uint256) public modes;\r\n\r\n    constructor() ERC721(\"Mode Mirror\", \"MM\") {}\r\n\r\n    modifier safeCheck() {\r\n        require(msg.sender == pubAddr || msg.sender == safeCheckaddr);\r\n        _;\r\n    }\r\n\r\n    modifier secureMinter() {\r\n        require(\r\n            msg.sender == authMinter1 ||\r\n                msg.sender == authMinter2 ||\r\n                msg.sender == authMinter3\r\n        );\r\n        _;\r\n    }\r\n\r\n    function safeMint(\r\n        uint256 _tokenId,\r\n        string memory _name,\r\n        string memory _description,\r\n        string memory _image,\r\n        string memory _message,\r\n        string memory _prCreateDate,\r\n        string memory _attrNFTName,\r\n        string memory _attrKeyword,\r\n        string memory _mode,\r\n        address _attrCreatorAddr,\r\n        bytes32 _DNA\r\n    ) public payable secureMinter {\r\n        Mirror memory newMirror = Mirror(\r\n            _name,\r\n            _description,\r\n            _image,\r\n            _message,\r\n            _prCreateDate,\r\n            _attrNFTName,\r\n            _attrKeyword,\r\n            _mode,\r\n            _attrCreatorAddr\r\n        );\r\n        modes[_mode] = _tokenId;\r\n        mirrors[_tokenId] = newMirror;\r\n        DNATokenCheck[_DNA] = _tokenId;\r\n        _safeMint(msg.sender, _tokenId);\r\n    }\r\n\r\n    function mrrName(uint256 _tokenId)\r\n        public\r\n        view\r\n        safeCheck\r\n        returns (string memory)\r\n    {\r\n        return mirrors[_tokenId].name;\r\n    }\r\n\r\n    function mrrDescription(uint256 _tokenId)\r\n        public\r\n        view\r\n        safeCheck\r\n        returns (string memory)\r\n    {\r\n        return mirrors[_tokenId].description;\r\n    }\r\n\r\n    function mrrImage(uint256 _tokenId)\r\n        public\r\n        view\r\n        safeCheck\r\n        returns (string memory)\r\n    {\r\n        return mirrors[_tokenId].image;\r\n    }\r\n\r\n    function mrrMessage(uint256 _tokenId)\r\n        public\r\n        view\r\n        safeCheck\r\n        returns (string memory)\r\n    {\r\n        return mirrors[_tokenId].message;\r\n    }\r\n\r\n    function mrrPRCreateDate(uint256 _tokenId)\r\n        public\r\n        view\r\n        safeCheck\r\n        returns (string memory)\r\n    {\r\n        return mirrors[_tokenId].prCreateDate;\r\n    }\r\n\r\n    function mrrAttrNFTName(uint256 _tokenId)\r\n        public\r\n        view\r\n        safeCheck\r\n        returns (string memory)\r\n    {\r\n        return mirrors[_tokenId].attrNFTName;\r\n    }\r\n\r\n    function mrrAttrKeyword(uint256 _tokenId)\r\n        public\r\n        view\r\n        safeCheck\r\n        returns (string memory)\r\n    {\r\n        return mirrors[_tokenId].attrKeyword;\r\n    }\r\n\r\n    function mrrMode(uint256 _tokenId)\r\n        public\r\n        view\r\n        safeCheck\r\n        returns (string memory)\r\n    {\r\n        return mirrors[_tokenId].mode;\r\n    }\r\n\r\n    function mrrAttrCreatorAddr(uint256 _tokenId)\r\n        public\r\n        view\r\n        safeCheck\r\n        returns (address)\r\n    {\r\n        return mirrors[_tokenId].attrCreatorAddr;\r\n    }\r\n\r\n    function mrrDNA(uint256 _tokenId) public view safeCheck returns (bytes32) {\r\n        bytes32 _DNA = keccak256(\r\n            abi.encodePacked(\r\n                mirrors[_tokenId].name,\r\n                mirrors[_tokenId].description,\r\n                mirrors[_tokenId].image,\r\n                mirrors[_tokenId].message,\r\n                mirrors[_tokenId].prCreateDate,\r\n                mirrors[_tokenId].attrNFTName,\r\n                mirrors[_tokenId].attrKeyword,\r\n                mirrors[_tokenId].mode\r\n            )\r\n        );\r\n        return _DNA;\r\n    }\r\n\r\n    function setPubAddr(address _pubAddr) public onlyOwner {\r\n        pubAddr = _pubAddr;\r\n    }\r\n\r\n    function setSafeCheckAddr(address _safeCheckAddr) public onlyOwner {\r\n        safeCheckaddr = _safeCheckAddr;\r\n    }\r\n\r\n    function setAuthMinter(\r\n        address _authMinter1,\r\n        address _authMinter2,\r\n        address _authMinter3\r\n    ) public onlyOwner {\r\n        authMinter1 = _authMinter1;\r\n        authMinter2 = _authMinter2;\r\n        authMinter3 = _authMinter3;\r\n    }\r\n\r\n    function withdraw() public payable onlyOwner {\r\n        (bool os, ) = payable(owner()).call{value: address(this).balance}(\"\");\r\n        require(os);\r\n    }\r\n}\r\n\r\npragma solidity >=0.7.0 <0.9.0;\r\n\r\ncontract VisibleModes is ERC721, Ownable {\r\n    using Strings for uint256;\r\n    using Counters for Counters.Counter;\r\n\r\n    Counters.Counter private supply;\r\n\r\n    address public btAddr;\r\n    address public addrMirror;\r\n    address public safeCheckAddr;\r\n\r\n    bool public paused = false;\r\n    uint256 private requiredAmount = 1;\r\n    uint256 private cost = .005 ether;\r\n\r\n    struct Message {\r\n        string name;\r\n        string description;\r\n        string image;\r\n        string message;\r\n        string prCreateDate;\r\n        string attrNFTName;\r\n        string attrKeyword;\r\n        string mode;\r\n        address attrCreatorAddr;\r\n    }\r\n\r\n    mapping(uint256 => Message) internal messages;\r\n    mapping(bytes32 => uint256) public DNATokenCheck;\r\n    mapping(string => uint256) public modes;\r\n\r\n    constructor() ERC721(\"Visible Modes\", \"VM\") {}\r\n\r\n    modifier safeCheck() {\r\n        require(msg.sender == safeCheckAddr);\r\n        _;\r\n    }\r\n\r\n    function totalSupply() public view returns (uint256) {\r\n        return supply.current();\r\n    }\r\n\r\n    // mint to receiver\r\n    function safeMint(\r\n        string memory _name,\r\n        string memory _description,\r\n        string memory _image,\r\n        string memory _message,\r\n        string memory _prCreateDate,\r\n        string memory _attrNFTName,\r\n        string memory _attrKeyword,\r\n        string memory _mode,\r\n        address _receiver,\r\n        bytes32 _DNA\r\n    ) public payable {\r\n        require(!paused, \"Contract is paused\");\r\n          IERC721 token = IERC721(btAddr);\r\n        uint256 ownedAmount = token.balanceOf(msg.sender);\r\n        require(\r\n            ownedAmount >= requiredAmount,\r\n            \"You don't own any Builder Token NFTs\"\r\n        );\r\n        require(msg.value >= cost);\r\n        uint256 supplyTokens = totalSupply();\r\n        uint256 numModes = modes[_mode];\r\n        messages[supplyTokens + 1].name = _name;\r\n        messages[supplyTokens + 1].description = _description;\r\n        messages[supplyTokens + 1].image = _image;\r\n        messages[supplyTokens + 1].message = _message;\r\n        messages[supplyTokens + 1].prCreateDate = _prCreateDate;\r\n        messages[supplyTokens + 1].attrNFTName = _attrNFTName;\r\n        messages[supplyTokens + 1].attrKeyword = _attrKeyword;\r\n        messages[supplyTokens + 1].mode = _mode;\r\n        messages[supplyTokens + 1].attrCreatorAddr = msg.sender;\r\n        DNATokenCheck[_DNA] = supplyTokens + 1;\r\n        modes[_mode] = numModes + 1;\r\n        supply.increment();\r\n        _safeMint(_receiver, supply.current());\r\n    }\r\n\r\n    function addressToString(address addr)\r\n        private\r\n        pure\r\n        returns (string memory)\r\n    {\r\n        bytes memory addressBytes = abi.encodePacked(addr);\r\n        bytes memory stringBytes = new bytes(42);\r\n        stringBytes[0] = \"0\";\r\n        stringBytes[1] = \"x\";\r\n        for (uint256 i = 0; i < 20; i++) {\r\n            uint8 leftValue = uint8(addressBytes[i]) / 16;\r\n            uint8 rightValue = uint8(addressBytes[i]) - 16 * leftValue;\r\n            bytes1 leftChar = leftValue < 10\r\n                ? bytes1(leftValue + 48)\r\n                : bytes1(leftValue + 87);\r\n            bytes1 rightChar = rightValue < 10\r\n                ? bytes1(rightValue + 48)\r\n                : bytes1(rightValue + 87);\r\n            stringBytes[2 * i + 3] = rightChar;\r\n            stringBytes[2 * i + 2] = leftChar;\r\n        }\r\n        return string(stringBytes);\r\n    }\r\n\r\n    // call tokenURI\r\n    function tokenURI(uint256 _tokenId)\r\n        public\r\n        view\r\n        virtual\r\n        override\r\n        returns (string memory)\r\n    {\r\n        require(\r\n            _exists(_tokenId),\r\n            \"ERC721Metadata: URI query for nonexistent token\"\r\n        );\r\n        ModeMirror mirror = ModeMirror(addrMirror);\r\n        bytes32 checkDNA = mirror.mrrDNA(_tokenId);\r\n        require(\r\n            checkDNA ==\r\n                keccak256(\r\n                    abi.encodePacked(\r\n                        messages[_tokenId].name,\r\n                        messages[_tokenId].description,\r\n                        messages[_tokenId].image,\r\n                        messages[_tokenId].message,\r\n                        messages[_tokenId].prCreateDate,\r\n                        messages[_tokenId].attrNFTName,\r\n                        messages[_tokenId].attrKeyword,\r\n                        messages[_tokenId].mode\r\n                    )\r\n                ),\r\n            \"Invalid metadata!\"\r\n        );\r\n        address checkCreator = mirror.mrrAttrCreatorAddr(_tokenId);\r\n        require(\r\n            checkCreator == messages[_tokenId].attrCreatorAddr,\r\n            \"Invalid creator!\"\r\n        );\r\n\r\n        Message memory currentMessage = messages[_tokenId];\r\n        return\r\n            string(\r\n                abi.encodePacked(\r\n                    \"data:application/json;base64,\",\r\n                    Base64.encode(\r\n                        bytes(\r\n                            abi.encodePacked(\r\n                                '{\"name\":\"',\r\n                                currentMessage.name,\r\n                                '\", \"description\":\"',\r\n                                currentMessage.description,\r\n                                '\", \"image\":\"',\r\n                                currentMessage.image,\r\n                                '\", \"attributes\": [{\"trait_type\": \"record of\", \"value\": \"',\r\n                                currentMessage.attrNFTName,\r\n                                '\"},'\r\n                                '{\"trait_type\": \"creator keyword\", \"value\": \"',\r\n                                currentMessage.attrKeyword,\r\n                                '\"},'\r\n                                '{\"trait_type\": \"creation date\", \"value\": \"',\r\n                                currentMessage.prCreateDate,\r\n                                '\"},'\r\n                                '{\"trait_type\": \"creator message\", \"value\": \"',\r\n                                currentMessage.message,\r\n                                '\"},'\r\n                                '{\"trait_type\": \"creator address\", \"value\": \"',\r\n                                addressToString(currentMessage.attrCreatorAddr),\r\n                                '\"},'\r\n                                '{\"trait_type\": \"NFT mode\", \"value\": \"',\r\n                                currentMessage.mode,\r\n                                '\"}',\r\n                                \"]}\"\r\n                            )\r\n                        )\r\n                    )\r\n                )\r\n            );\r\n    }\r\n\r\n    //Only Owner\r\n    function pause(bool _state) public onlyOwner {\r\n        paused = _state;\r\n    }\r\n\r\n    function setCost(uint256 _cost) public onlyOwner {\r\n        cost = _cost;\r\n    }\r\n\r\n    function setIconsAddr(address _btAddr) public onlyOwner {\r\n        btAddr = _btAddr;\r\n    }\r\n\r\n    function setAddrMirror(address _addrMirror) public onlyOwner {\r\n        addrMirror = _addrMirror;\r\n    }\r\n\r\n    function setSafeCheckAddr(address _safeCheckAddr) public onlyOwner {\r\n        safeCheckAddr = _safeCheckAddr;\r\n    }\r\n\r\n    function getName(uint256 _tokenId)\r\n        public\r\n        view\r\n        safeCheck\r\n        returns (string memory)\r\n    {\r\n        return messages[_tokenId].name;\r\n    }\r\n\r\n    function getDescription(uint256 _tokenId)\r\n        public\r\n        view\r\n        safeCheck\r\n        returns (string memory)\r\n    {\r\n        return messages[_tokenId].description;\r\n    }\r\n\r\n    function getImage(uint256 _tokenId)\r\n        public\r\n        view\r\n        safeCheck\r\n        returns (string memory)\r\n    {\r\n        return messages[_tokenId].image;\r\n    }\r\n\r\n    function getMessage(uint256 _tokenId)\r\n        public\r\n        view\r\n        safeCheck\r\n        returns (string memory)\r\n    {\r\n        return messages[_tokenId].message;\r\n    }\r\n\r\n    function getprCreateDate(uint256 _tokenId)\r\n        public\r\n        view\r\n        safeCheck\r\n        returns (string memory)\r\n    {\r\n        return messages[_tokenId].prCreateDate;\r\n    }\r\n\r\n    function getAttrNFTName(uint256 _tokenId)\r\n        public\r\n        view\r\n        safeCheck\r\n        returns (string memory)\r\n    {\r\n        return messages[_tokenId].attrNFTName;\r\n    }\r\n\r\n    function getAttrKeyword(uint256 _tokenId)\r\n        public\r\n        view\r\n        safeCheck\r\n        returns (string memory)\r\n    {\r\n        return messages[_tokenId].attrKeyword;\r\n    }\r\n\r\n    function getMode(uint256 _tokenId)\r\n        public\r\n        view\r\n        safeCheck\r\n        returns (string memory)\r\n    {\r\n        return messages[_tokenId].mode;\r\n    }\r\n\r\n    function getAttrCreatorAddr(uint256 _tokenId)\r\n        public\r\n        view\r\n        safeCheck\r\n        returns (address)\r\n    {\r\n        return messages[_tokenId].attrCreatorAddr;\r\n    }\r\n\r\n    function getModeCount(string memory _mode) public view returns (uint256) {\r\n        return modes[_mode];\r\n    }\r\n\r\n    function DNA(uint256 _tokenId) public view safeCheck returns (bytes32) {\r\n        bytes32 _DNA = keccak256(\r\n            abi.encodePacked(\r\n                messages[_tokenId].name,\r\n                messages[_tokenId].description,\r\n                messages[_tokenId].image,\r\n                messages[_tokenId].message,\r\n                messages[_tokenId].prCreateDate,\r\n                messages[_tokenId].attrNFTName,\r\n                messages[_tokenId].attrKeyword\r\n            )\r\n        );\r\n        return _DNA;\r\n    }\r\n\r\n    function withdraw() public payable onlyOwner {\r\n        (bool os, ) = payable(owner()).call{value: address(this).balance}(\"\");\r\n        require(os);\r\n    }\r\n}\r\n",
  "sourcePath": "C:\\Users\\icufi\\Dropbox\\GitHub Uploads\\dapp-public-record\\contracts\\contracts\\VisibleModes.sol",
  "compiler": {
    "name": "solc",
    "version": "0.8.11+commit.d7f03943.Emscripten.clang"
  },
  "schemaVersion": "3.4.7",
  "updatedAt": "2022-04-26T17:55:21.890Z",
  "networkType": "ethereum",
  "devdoc": {
    "kind": "dev",
    "methods": {
      "approve(address,uint256)": {
        "details": "See {IERC721-approve}."
      },
      "balanceOf(address)": {
        "details": "See {IERC721-balanceOf}."
      },
      "getApproved(uint256)": {
        "details": "See {IERC721-getApproved}."
      },
      "isApprovedForAll(address,address)": {
        "details": "See {IERC721-isApprovedForAll}."
      },
      "name()": {
        "details": "See {IERC721Metadata-name}."
      },
      "owner()": {
        "details": "Returns the address of the current owner."
      },
      "ownerOf(uint256)": {
        "details": "See {IERC721-ownerOf}."
      },
      "renounceOwnership()": {
        "details": "Leaves the contract without owner. It will not be possible to call `onlyOwner` functions anymore. Can only be called by the current owner. NOTE: Renouncing ownership will leave the contract without an owner, thereby removing any functionality that is only available to the owner."
      },
      "safeTransferFrom(address,address,uint256)": {
        "details": "See {IERC721-safeTransferFrom}."
      },
      "safeTransferFrom(address,address,uint256,bytes)": {
        "details": "See {IERC721-safeTransferFrom}."
      },
      "setApprovalForAll(address,bool)": {
        "details": "See {IERC721-setApprovalForAll}."
      },
      "supportsInterface(bytes4)": {
        "details": "See {IERC165-supportsInterface}."
      },
      "symbol()": {
        "details": "See {IERC721Metadata-symbol}."
      },
      "transferFrom(address,address,uint256)": {
        "details": "See {IERC721-transferFrom}."
      },
      "transferOwnership(address)": {
        "details": "Transfers ownership of the contract to a new account (`newOwner`). Can only be called by the current owner."
      }
    },
    "version": 1
  },
  "userdoc": {
    "kind": "user",
    "methods": {},
    "version": 1
  }
}