{
  "contractName": "ModeMirror",
  "abi": [
    {
      "inputs": [],
      "stateMutability": "nonpayable",
      "type": "constructor"
    },
    {
      "anonymous": false,
      "inputs": [
        {
          "indexed": true,
          "internalType": "address",
          "name": "owner",
          "type": "address"
        },
        {
          "indexed": true,
          "internalType": "address",
          "name": "approved",
          "type": "address"
        },
        {
          "indexed": true,
          "internalType": "uint256",
          "name": "tokenId",
          "type": "uint256"
        }
      ],
      "name": "Approval",
      "type": "event"
    },
    {
      "anonymous": false,
      "inputs": [
        {
          "indexed": true,
          "internalType": "address",
          "name": "owner",
          "type": "address"
        },
        {
          "indexed": true,
          "internalType": "address",
          "name": "operator",
          "type": "address"
        },
        {
          "indexed": false,
          "internalType": "bool",
          "name": "approved",
          "type": "bool"
        }
      ],
      "name": "ApprovalForAll",
      "type": "event"
    },
    {
      "anonymous": false,
      "inputs": [
        {
          "indexed": true,
          "internalType": "address",
          "name": "previousOwner",
          "type": "address"
        },
        {
          "indexed": true,
          "internalType": "address",
          "name": "newOwner",
          "type": "address"
        }
      ],
      "name": "OwnershipTransferred",
      "type": "event"
    },
    {
      "anonymous": false,
      "inputs": [
        {
          "indexed": true,
          "internalType": "address",
          "name": "from",
          "type": "address"
        },
        {
          "indexed": true,
          "internalType": "address",
          "name": "to",
          "type": "address"
        },
        {
          "indexed": true,
          "internalType": "uint256",
          "name": "tokenId",
          "type": "uint256"
        }
      ],
      "name": "Transfer",
      "type": "event"
    },
    {
      "inputs": [
        {
          "internalType": "bytes32",
          "name": "",
          "type": "bytes32"
        }
      ],
      "name": "DNATokenCheck",
      "outputs": [
        {
          "internalType": "uint256",
          "name": "",
          "type": "uint256"
        }
      ],
      "stateMutability": "view",
      "type": "function",
      "constant": true
    },
    {
      "inputs": [
        {
          "internalType": "address",
          "name": "to",
          "type": "address"
        },
        {
          "internalType": "uint256",
          "name": "tokenId",
          "type": "uint256"
        }
      ],
      "name": "approve",
      "outputs": [],
      "stateMutability": "nonpayable",
      "type": "function"
    },
    {
      "inputs": [],
      "name": "authMinter1",
      "outputs": [
        {
          "internalType": "address",
          "name": "",
          "type": "address"
        }
      ],
      "stateMutability": "view",
      "type": "function",
      "constant": true
    },
    {
      "inputs": [],
      "name": "authMinter2",
      "outputs": [
        {
          "internalType": "address",
          "name": "",
          "type": "address"
        }
      ],
      "stateMutability": "view",
      "type": "function",
      "constant": true
    },
    {
      "inputs": [],
      "name": "authMinter3",
      "outputs": [
        {
          "internalType": "address",
          "name": "",
          "type": "address"
        }
      ],
      "stateMutability": "view",
      "type": "function",
      "constant": true
    },
    {
      "inputs": [
        {
          "internalType": "address",
          "name": "owner",
          "type": "address"
        }
      ],
      "name": "balanceOf",
      "outputs": [
        {
          "internalType": "uint256",
          "name": "",
          "type": "uint256"
        }
      ],
      "stateMutability": "view",
      "type": "function",
      "constant": true
    },
    {
      "inputs": [
        {
          "internalType": "uint256",
          "name": "tokenId",
          "type": "uint256"
        }
      ],
      "name": "getApproved",
      "outputs": [
        {
          "internalType": "address",
          "name": "",
          "type": "address"
        }
      ],
      "stateMutability": "view",
      "type": "function",
      "constant": true
    },
    {
      "inputs": [
        {
          "internalType": "address",
          "name": "owner",
          "type": "address"
        },
        {
          "internalType": "address",
          "name": "operator",
          "type": "address"
        }
      ],
      "name": "isApprovedForAll",
      "outputs": [
        {
          "internalType": "bool",
          "name": "",
          "type": "bool"
        }
      ],
      "stateMutability": "view",
      "type": "function",
      "constant": true
    },
    {
      "inputs": [
        {
          "internalType": "uint256",
          "name": "",
          "type": "uint256"
        }
      ],
      "name": "mirrors",
      "outputs": [
        {
          "internalType": "string",
          "name": "name",
          "type": "string"
        },
        {
          "internalType": "string",
          "name": "description",
          "type": "string"
        },
        {
          "internalType": "string",
          "name": "image",
          "type": "string"
        },
        {
          "internalType": "string",
          "name": "message",
          "type": "string"
        },
        {
          "internalType": "string",
          "name": "prCreateDate",
          "type": "string"
        },
        {
          "internalType": "string",
          "name": "attrNFTName",
          "type": "string"
        },
        {
          "internalType": "string",
          "name": "attrKeyword",
          "type": "string"
        },
        {
          "internalType": "string",
          "name": "mode",
          "type": "string"
        },
        {
          "internalType": "address",
          "name": "attrCreatorAddr",
          "type": "address"
        }
      ],
      "stateMutability": "view",
      "type": "function",
      "constant": true
    },
    {
      "inputs": [
        {
          "internalType": "string",
          "name": "",
          "type": "string"
        }
      ],
      "name": "modes",
      "outputs": [
        {
          "internalType": "uint256",
          "name": "",
          "type": "uint256"
        }
      ],
      "stateMutability": "view",
      "type": "function",
      "constant": true
    },
    {
      "inputs": [],
      "name": "name",
      "outputs": [
        {
          "internalType": "string",
          "name": "",
          "type": "string"
        }
      ],
      "stateMutability": "view",
      "type": "function",
      "constant": true
    },
    {
      "inputs": [],
      "name": "owner",
      "outputs": [
        {
          "internalType": "address",
          "name": "",
          "type": "address"
        }
      ],
      "stateMutability": "view",
      "type": "function",
      "constant": true
    },
    {
      "inputs": [
        {
          "internalType": "uint256",
          "name": "tokenId",
          "type": "uint256"
        }
      ],
      "name": "ownerOf",
      "outputs": [
        {
          "internalType": "address",
          "name": "",
          "type": "address"
        }
      ],
      "stateMutability": "view",
      "type": "function",
      "constant": true
    },
    {
      "inputs": [],
      "name": "pubAddr",
      "outputs": [
        {
          "internalType": "address",
          "name": "",
          "type": "address"
        }
      ],
      "stateMutability": "view",
      "type": "function",
      "constant": true
    },
    {
      "inputs": [],
      "name": "renounceOwnership",
      "outputs": [],
      "stateMutability": "nonpayable",
      "type": "function"
    },
    {
      "inputs": [],
      "name": "safeCheckaddr",
      "outputs": [
        {
          "internalType": "address",
          "name": "",
          "type": "address"
        }
      ],
      "stateMutability": "view",
      "type": "function",
      "constant": true
    },
    {
      "inputs": [
        {
          "internalType": "address",
          "name": "from",
          "type": "address"
        },
        {
          "internalType": "address",
          "name": "to",
          "type": "address"
        },
        {
          "internalType": "uint256",
          "name": "tokenId",
          "type": "uint256"
        }
      ],
      "name": "safeTransferFrom",
      "outputs": [],
      "stateMutability": "nonpayable",
      "type": "function"
    },
    {
      "inputs": [
        {
          "internalType": "address",
          "name": "from",
          "type": "address"
        },
        {
          "internalType": "address",
          "name": "to",
          "type": "address"
        },
        {
          "internalType": "uint256",
          "name": "tokenId",
          "type": "uint256"
        },
        {
          "internalType": "bytes",
          "name": "_data",
          "type": "bytes"
        }
      ],
      "name": "safeTransferFrom",
      "outputs": [],
      "stateMutability": "nonpayable",
      "type": "function"
    },
    {
      "inputs": [
        {
          "internalType": "address",
          "name": "operator",
          "type": "address"
        },
        {
          "internalType": "bool",
          "name": "approved",
          "type": "bool"
        }
      ],
      "name": "setApprovalForAll",
      "outputs": [],
      "stateMutability": "nonpayable",
      "type": "function"
    },
    {
      "inputs": [
        {
          "internalType": "bytes4",
          "name": "interfaceId",
          "type": "bytes4"
        }
      ],
      "name": "supportsInterface",
      "outputs": [
        {
          "internalType": "bool",
          "name": "",
          "type": "bool"
        }
      ],
      "stateMutability": "view",
      "type": "function",
      "constant": true
    },
    {
      "inputs": [],
      "name": "symbol",
      "outputs": [
        {
          "internalType": "string",
          "name": "",
          "type": "string"
        }
      ],
      "stateMutability": "view",
      "type": "function",
      "constant": true
    },
    {
      "inputs": [
        {
          "internalType": "uint256",
          "name": "tokenId",
          "type": "uint256"
        }
      ],
      "name": "tokenURI",
      "outputs": [
        {
          "internalType": "string",
          "name": "",
          "type": "string"
        }
      ],
      "stateMutability": "view",
      "type": "function",
      "constant": true
    },
    {
      "inputs": [
        {
          "internalType": "address",
          "name": "from",
          "type": "address"
        },
        {
          "internalType": "address",
          "name": "to",
          "type": "address"
        },
        {
          "internalType": "uint256",
          "name": "tokenId",
          "type": "uint256"
        }
      ],
      "name": "transferFrom",
      "outputs": [],
      "stateMutability": "nonpayable",
      "type": "function"
    },
    {
      "inputs": [
        {
          "internalType": "address",
          "name": "newOwner",
          "type": "address"
        }
      ],
      "name": "transferOwnership",
      "outputs": [],
      "stateMutability": "nonpayable",
      "type": "function"
    },
    {
      "inputs": [
        {
          "internalType": "uint256",
          "name": "_tokenId",
          "type": "uint256"
        },
        {
          "internalType": "string",
          "name": "_name",
          "type": "string"
        },
        {
          "internalType": "string",
          "name": "_description",
          "type": "string"
        },
        {
          "internalType": "string",
          "name": "_image",
          "type": "string"
        },
        {
          "internalType": "string",
          "name": "_message",
          "type": "string"
        },
        {
          "internalType": "string",
          "name": "_prCreateDate",
          "type": "string"
        },
        {
          "internalType": "string",
          "name": "_attrNFTName",
          "type": "string"
        },
        {
          "internalType": "string",
          "name": "_attrKeyword",
          "type": "string"
        },
        {
          "internalType": "string",
          "name": "_mode",
          "type": "string"
        },
        {
          "internalType": "address",
          "name": "_attrCreatorAddr",
          "type": "address"
        },
        {
          "internalType": "bytes32",
          "name": "_DNA",
          "type": "bytes32"
        }
      ],
      "name": "safeMint",
      "outputs": [],
      "stateMutability": "payable",
      "type": "function",
      "payable": true
    },
    {
      "inputs": [
        {
          "internalType": "uint256",
          "name": "_tokenId",
          "type": "uint256"
        }
      ],
      "name": "mrrName",
      "outputs": [
        {
          "internalType": "string",
          "name": "",
          "type": "string"
        }
      ],
      "stateMutability": "view",
      "type": "function",
      "constant": true
    },
    {
      "inputs": [
        {
          "internalType": "uint256",
          "name": "_tokenId",
          "type": "uint256"
        }
      ],
      "name": "mrrDescription",
      "outputs": [
        {
          "internalType": "string",
          "name": "",
          "type": "string"
        }
      ],
      "stateMutability": "view",
      "type": "function",
      "constant": true
    },
    {
      "inputs": [
        {
          "internalType": "uint256",
          "name": "_tokenId",
          "type": "uint256"
        }
      ],
      "name": "mrrImage",
      "outputs": [
        {
          "internalType": "string",
          "name": "",
          "type": "string"
        }
      ],
      "stateMutability": "view",
      "type": "function",
      "constant": true
    },
    {
      "inputs": [
        {
          "internalType": "uint256",
          "name": "_tokenId",
          "type": "uint256"
        }
      ],
      "name": "mrrMessage",
      "outputs": [
        {
          "internalType": "string",
          "name": "",
          "type": "string"
        }
      ],
      "stateMutability": "view",
      "type": "function",
      "constant": true
    },
    {
      "inputs": [
        {
          "internalType": "uint256",
          "name": "_tokenId",
          "type": "uint256"
        }
      ],
      "name": "mrrPRCreateDate",
      "outputs": [
        {
          "internalType": "string",
          "name": "",
          "type": "string"
        }
      ],
      "stateMutability": "view",
      "type": "function",
      "constant": true
    },
    {
      "inputs": [
        {
          "internalType": "uint256",
          "name": "_tokenId",
          "type": "uint256"
        }
      ],
      "name": "mrrAttrNFTName",
      "outputs": [
        {
          "internalType": "string",
          "name": "",
          "type": "string"
        }
      ],
      "stateMutability": "view",
      "type": "function",
      "constant": true
    },
    {
      "inputs": [
        {
          "internalType": "uint256",
          "name": "_tokenId",
          "type": "uint256"
        }
      ],
      "name": "mrrAttrKeyword",
      "outputs": [
        {
          "internalType": "string",
          "name": "",
          "type": "string"
        }
      ],
      "stateMutability": "view",
      "type": "function",
      "constant": true
    },
    {
      "inputs": [
        {
          "internalType": "uint256",
          "name": "_tokenId",
          "type": "uint256"
        }
      ],
      "name": "mrrMode",
      "outputs": [
        {
          "internalType": "string",
          "name": "",
          "type": "string"
        }
      ],
      "stateMutability": "view",
      "type": "function",
      "constant": true
    },
    {
      "inputs": [
        {
          "internalType": "uint256",
          "name": "_tokenId",
          "type": "uint256"
        }
      ],
      "name": "mrrAttrCreatorAddr",
      "outputs": [
        {
          "internalType": "address",
          "name": "",
          "type": "address"
        }
      ],
      "stateMutability": "view",
      "type": "function",
      "constant": true
    },
    {
      "inputs": [
        {
          "internalType": "uint256",
          "name": "_tokenId",
          "type": "uint256"
        }
      ],
      "name": "mrrDNA",
      "outputs": [
        {
          "internalType": "bytes32",
          "name": "",
          "type": "bytes32"
        }
      ],
      "stateMutability": "view",
      "type": "function",
      "constant": true
    },
    {
      "inputs": [
        {
          "internalType": "address",
          "name": "_pubAddr",
          "type": "address"
        }
      ],
      "name": "setPubAddr",
      "outputs": [],
      "stateMutability": "nonpayable",
      "type": "function"
    },
    {
      "inputs": [
        {
          "internalType": "address",
          "name": "_safeCheckAddr",
          "type": "address"
        }
      ],
      "name": "setSafeCheckAddr",
      "outputs": [],
      "stateMutability": "nonpayable",
      "type": "function"
    },
    {
      "inputs": [
        {
          "internalType": "address",
          "name": "_authMinter1",
          "type": "address"
        },
        {
          "internalType": "address",
          "name": "_authMinter2",
          "type": "address"
        },
        {
          "internalType": "address",
          "name": "_authMinter3",
          "type": "address"
        }
      ],
      "name": "setAuthMinter",
      "outputs": [],
      "stateMutability": "nonpayable",
      "type": "function"
    },
    {
      "inputs": [],
      "name": "withdraw",
      "outputs": [],
      "stateMutability": "payable",
      "type": "function",
      "payable": true
    }
  ],
  "bytecode": "0x60806040523480156200001157600080fd5b506040518060400160405280600b81526020017f4d6f6465204d6972726f720000000000000000000000000000000000000000008152506040518060400160405280600281526020017f4d4d000000000000000000000000000000000000000000000000000000000000815250816000908051906020019062000096929190620001a6565b508060019080519060200190620000af929190620001a6565b505050620000d2620000c6620000d860201b60201c565b620000e060201b60201c565b620002bb565b600033905090565b6000600660009054906101000a900473ffffffffffffffffffffffffffffffffffffffff16905081600660006101000a81548173ffffffffffffffffffffffffffffffffffffffff021916908373ffffffffffffffffffffffffffffffffffffffff1602179055508173ffffffffffffffffffffffffffffffffffffffff168173ffffffffffffffffffffffffffffffffffffffff167f8be0079c531659141344cd1fd0a4f28419497f9722a3daafe3b4186f6b6457e060405160405180910390a35050565b828054620001b49062000285565b90600052602060002090601f016020900481019282620001d8576000855562000224565b82601f10620001f357805160ff191683800117855562000224565b8280016001018555821562000224579182015b828111156200022357825182559160200191906001019062000206565b5b50905062000233919062000237565b5090565b5b808211156200025257600081600090555060010162000238565b5090565b7f4e487b7100000000000000000000000000000000000000000000000000000000600052602260045260246000fd5b600060028204905060018216806200029e57607f821691505b60208210811415620002b557620002b462000256565b5b50919050565b6151bf80620002cb6000396000f3fe6080604052600436106102305760003560e01c80637a8064511161012e578063c87b56dd116100ab578063e0743cfd1161006f578063e0743cfd146108d3578063e985e9c5146108fc578063eb977b3014610939578063f2fde38b14610976578063ff5d29761461099f57610230565b8063c87b56dd146107c6578063d5505f6a14610803578063d7d14ddd1461082e578063da09fbd91461086b578063e009d9a61461089657610230565b8063945a6d83116100f2578063945a6d83146106cf57806395b4cc7c1461070c57806395d89b4114610749578063a22cb46514610774578063b88d4fde1461079d57610230565b80637a806451146105e5578063839392c9146106225780638ce2ed9c1461063e5780638da5cb5b1461067b5780638ddeba93146106a657610230565b80633ccfd60b116101bc5780636ac40223116101805780636ac40223146104d257806370a082311461050f578063715018a61461054c5780637517231a14610563578063758885db146105a857610230565b80633ccfd60b146103fa57806342842e0e1461040457806344ef6f2a1461042d57806345f61ce91461046a5780636352211e1461049557610230565b8063095ea7b311610203578063095ea7b3146103175780631b3257e81461034057806323b872dd1461036b5780632c5a10a71461039457806338af12dc146103bd57610230565b806301ffc9a714610235578063044bd5401461027257806306fdde03146102af578063081812fc146102da575b600080fd5b34801561024157600080fd5b5061025c60048036038101906102579190613a7e565b6109ca565b6040516102699190613ac6565b60405180910390f35b34801561027e57600080fd5b5061029960048036038101906102949190613b17565b610aac565b6040516102a69190613b5d565b60405180910390f35b3480156102bb57600080fd5b506102c4610ac4565b6040516102d19190613c11565b60405180910390f35b3480156102e657600080fd5b5061030160048036038101906102fc9190613c5f565b610b56565b60405161030e9190613ccd565b60405180910390f35b34801561032357600080fd5b5061033e60048036038101906103399190613d14565b610bdb565b005b34801561034c57600080fd5b50610355610cf3565b6040516103629190613ccd565b60405180910390f35b34801561037757600080fd5b50610392600480360381019061038d9190613d54565b610d19565b005b3480156103a057600080fd5b506103bb60048036038101906103b69190613da7565b610d79565b005b3480156103c957600080fd5b506103e460048036038101906103df9190613f09565b610e39565b6040516103f19190613b5d565b60405180910390f35b610402610e67565b005b34801561041057600080fd5b5061042b60048036038101906104269190613d54565b610f63565b005b34801561043957600080fd5b50610454600480360381019061044f9190613c5f565b610f83565b6040516104619190613c11565b60405180910390f35b34801561047657600080fd5b5061047f6110dd565b60405161048c9190613ccd565b60405180910390f35b3480156104a157600080fd5b506104bc60048036038101906104b79190613c5f565b611103565b6040516104c99190613ccd565b60405180910390f35b3480156104de57600080fd5b506104f960048036038101906104f49190613c5f565b6111b5565b6040516105069190613c11565b60405180910390f35b34801561051b57600080fd5b5061053660048036038101906105319190613da7565b61130f565b6040516105439190613b5d565b60405180910390f35b34801561055857600080fd5b506105616113c7565b005b34801561056f57600080fd5b5061058a60048036038101906105859190613c5f565b61144f565b60405161059f99989796959493929190613f52565b60405180910390f35b3480156105b457600080fd5b506105cf60048036038101906105ca9190613c5f565b6118fd565b6040516105dc9190613c11565b60405180910390f35b3480156105f157600080fd5b5061060c60048036038101906106079190613c5f565b611a57565b6040516106199190613c11565b60405180910390f35b61063c60048036038101906106379190614017565b611bb1565b005b34801561064a57600080fd5b5061066560048036038101906106609190613c5f565b611eaf565b6040516106729190613c11565b60405180910390f35b34801561068757600080fd5b50610690612009565b60405161069d9190613ccd565b60405180910390f35b3480156106b257600080fd5b506106cd60048036038101906106c891906141eb565b612033565b005b3480156106db57600080fd5b506106f660048036038101906106f19190613c5f565b612177565b6040516107039190613c11565b60405180910390f35b34801561071857600080fd5b50610733600480360381019061072e9190613c5f565b6122d1565b6040516107409190613c11565b60405180910390f35b34801561075557600080fd5b5061075e61242b565b60405161076b9190613c11565b60405180910390f35b34801561078057600080fd5b5061079b6004803603810190610796919061426a565b6124bd565b005b3480156107a957600080fd5b506107c460048036038101906107bf919061434b565b6124d3565b005b3480156107d257600080fd5b506107ed60048036038101906107e89190613c5f565b612535565b6040516107fa9190613c11565b60405180910390f35b34801561080f57600080fd5b506108186125dc565b6040516108259190613ccd565b60405180910390f35b34801561083a57600080fd5b5061085560048036038101906108509190613c5f565b612602565b60405161086291906143dd565b60405180910390f35b34801561087757600080fd5b506108806127a0565b60405161088d9190613ccd565b60405180910390f35b3480156108a257600080fd5b506108bd60048036038101906108b89190613c5f565b6127c6565b6040516108ca9190613ccd565b60405180910390f35b3480156108df57600080fd5b506108fa60048036038101906108f59190613da7565b6128b8565b005b34801561090857600080fd5b50610923600480360381019061091e91906143f8565b612978565b6040516109309190613ac6565b60405180910390f35b34801561094557600080fd5b50610960600480360381019061095b9190613c5f565b612a0c565b60405161096d9190613c11565b60405180910390f35b34801561098257600080fd5b5061099d60048036038101906109989190613da7565b612b66565b005b3480156109ab57600080fd5b506109b4612c5e565b6040516109c19190613ccd565b60405180910390f35b60007f80ac58cd000000000000000000000000000000000000000000000000000000007bffffffffffffffffffffffffffffffffffffffffffffffffffffffff1916827bffffffffffffffffffffffffffffffffffffffffffffffffffffffff19161480610a9557507f5b5e139f000000000000000000000000000000000000000000000000000000007bffffffffffffffffffffffffffffffffffffffffffffffffffffffff1916827bffffffffffffffffffffffffffffffffffffffffffffffffffffffff1916145b80610aa55750610aa482612c84565b5b9050919050565b600d6020528060005260406000206000915090505481565b606060008054610ad390614467565b80601f0160208091040260200160405190810160405280929190818152602001828054610aff90614467565b8015610b4c5780601f10610b2157610100808354040283529160200191610b4c565b820191906000526020600020905b815481529060010190602001808311610b2f57829003601f168201915b5050505050905090565b6000610b6182612cee565b610ba0576040517f08c379a0000000000000000000000000000000000000000000000000000000008152600401610b979061450b565b60405180910390fd5b6004600083815260200190815260200160002060009054906101000a900473ffffffffffffffffffffffffffffffffffffffff169050919050565b6000610be682611103565b90508073ffffffffffffffffffffffffffffffffffffffff168373ffffffffffffffffffffffffffffffffffffffff161415610c57576040517f08c379a0000000000000000000000000000000000000000000000000000000008152600401610c4e9061459d565b60405180910390fd5b8073ffffffffffffffffffffffffffffffffffffffff16610c76612d5a565b73ffffffffffffffffffffffffffffffffffffffff161480610ca55750610ca481610c9f612d5a565b612978565b5b610ce4576040517f08c379a0000000000000000000000000000000000000000000000000000000008152600401610cdb9061462f565b60405180910390fd5b610cee8383612d62565b505050565b600760009054906101000a900473ffffffffffffffffffffffffffffffffffffffff1681565b610d2a610d24612d5a565b82612e1b565b610d69576040517f08c379a0000000000000000000000000000000000000000000000000000000008152600401610d60906146c1565b60405180910390fd5b610d74838383612ef9565b505050565b610d81612d5a565b73ffffffffffffffffffffffffffffffffffffffff16610d9f612009565b73ffffffffffffffffffffffffffffffffffffffff1614610df5576040517f08c379a0000000000000000000000000000000000000000000000000000000008152600401610dec9061472d565b60405180910390fd5b80600860006101000a81548173ffffffffffffffffffffffffffffffffffffffff021916908373ffffffffffffffffffffffffffffffffffffffff16021790555050565b600e818051602081018201805184825260208301602085012081835280955050505050506000915090505481565b610e6f612d5a565b73ffffffffffffffffffffffffffffffffffffffff16610e8d612009565b73ffffffffffffffffffffffffffffffffffffffff1614610ee3576040517f08c379a0000000000000000000000000000000000000000000000000000000008152600401610eda9061472d565b60405180910390fd5b6000610eed612009565b73ffffffffffffffffffffffffffffffffffffffff1647604051610f109061477e565b60006040518083038185875af1925050503d8060008114610f4d576040519150601f19603f3d011682016040523d82523d6000602084013e610f52565b606091505b5050905080610f6057600080fd5b50565b610f7e838383604051806020016040528060008152506124d3565b505050565b6060600760009054906101000a900473ffffffffffffffffffffffffffffffffffffffff1673ffffffffffffffffffffffffffffffffffffffff163373ffffffffffffffffffffffffffffffffffffffff16148061102e5750600860009054906101000a900473ffffffffffffffffffffffffffffffffffffffff1673ffffffffffffffffffffffffffffffffffffffff163373ffffffffffffffffffffffffffffffffffffffff16145b61103757600080fd5b600c6000838152602001908152602001600020600701805461105890614467565b80601f016020809104026020016040519081016040528092919081815260200182805461108490614467565b80156110d15780601f106110a6576101008083540402835291602001916110d1565b820191906000526020600020905b8154815290600101906020018083116110b457829003601f168201915b50505050509050919050565b600860009054906101000a900473ffffffffffffffffffffffffffffffffffffffff1681565b6000806002600084815260200190815260200160002060009054906101000a900473ffffffffffffffffffffffffffffffffffffffff169050600073ffffffffffffffffffffffffffffffffffffffff168173ffffffffffffffffffffffffffffffffffffffff1614156111ac576040517f08c379a00000000000000000000000000000000000000000000000000000000081526004016111a390614805565b60405180910390fd5b80915050919050565b6060600760009054906101000a900473ffffffffffffffffffffffffffffffffffffffff1673ffffffffffffffffffffffffffffffffffffffff163373ffffffffffffffffffffffffffffffffffffffff1614806112605750600860009054906101000a900473ffffffffffffffffffffffffffffffffffffffff1673ffffffffffffffffffffffffffffffffffffffff163373ffffffffffffffffffffffffffffffffffffffff16145b61126957600080fd5b600c6000838152602001908152602001600020600601805461128a90614467565b80601f01602080910402602001604051908101604052809291908181526020018280546112b690614467565b80156113035780601f106112d857610100808354040283529160200191611303565b820191906000526020600020905b8154815290600101906020018083116112e657829003601f168201915b50505050509050919050565b60008073ffffffffffffffffffffffffffffffffffffffff168273ffffffffffffffffffffffffffffffffffffffff161415611380576040517f08c379a000000000000000000000000000000000000000000000000000000000815260040161137790614897565b60405180910390fd5b600360008373ffffffffffffffffffffffffffffffffffffffff1673ffffffffffffffffffffffffffffffffffffffff168152602001908152602001600020549050919050565b6113cf612d5a565b73ffffffffffffffffffffffffffffffffffffffff166113ed612009565b73ffffffffffffffffffffffffffffffffffffffff1614611443576040517f08c379a000000000000000000000000000000000000000000000000000000000815260040161143a9061472d565b60405180910390fd5b61144d6000613160565b565b600c60205280600052604060002060009150905080600001805461147290614467565b80601f016020809104026020016040519081016040528092919081815260200182805461149e90614467565b80156114eb5780601f106114c0576101008083540402835291602001916114eb565b820191906000526020600020905b8154815290600101906020018083116114ce57829003601f168201915b50505050509080600101805461150090614467565b80601f016020809104026020016040519081016040528092919081815260200182805461152c90614467565b80156115795780601f1061154e57610100808354040283529160200191611579565b820191906000526020600020905b81548152906001019060200180831161155c57829003601f168201915b50505050509080600201805461158e90614467565b80601f01602080910402602001604051908101604052809291908181526020018280546115ba90614467565b80156116075780601f106115dc57610100808354040283529160200191611607565b820191906000526020600020905b8154815290600101906020018083116115ea57829003601f168201915b50505050509080600301805461161c90614467565b80601f016020809104026020016040519081016040528092919081815260200182805461164890614467565b80156116955780601f1061166a57610100808354040283529160200191611695565b820191906000526020600020905b81548152906001019060200180831161167857829003601f168201915b5050505050908060040180546116aa90614467565b80601f01602080910402602001604051908101604052809291908181526020018280546116d690614467565b80156117235780601f106116f857610100808354040283529160200191611723565b820191906000526020600020905b81548152906001019060200180831161170657829003601f168201915b50505050509080600501805461173890614467565b80601f016020809104026020016040519081016040528092919081815260200182805461176490614467565b80156117b15780601f10611786576101008083540402835291602001916117b1565b820191906000526020600020905b81548152906001019060200180831161179457829003601f168201915b5050505050908060060180546117c690614467565b80601f01602080910402602001604051908101604052809291908181526020018280546117f290614467565b801561183f5780601f106118145761010080835404028352916020019161183f565b820191906000526020600020905b81548152906001019060200180831161182257829003601f168201915b50505050509080600701805461185490614467565b80601f016020809104026020016040519081016040528092919081815260200182805461188090614467565b80156118cd5780601f106118a2576101008083540402835291602001916118cd565b820191906000526020600020905b8154815290600101906020018083116118b057829003601f168201915b5050505050908060080160009054906101000a900473ffffffffffffffffffffffffffffffffffffffff16905089565b6060600760009054906101000a900473ffffffffffffffffffffffffffffffffffffffff1673ffffffffffffffffffffffffffffffffffffffff163373ffffffffffffffffffffffffffffffffffffffff1614806119a85750600860009054906101000a900473ffffffffffffffffffffffffffffffffffffffff1673ffffffffffffffffffffffffffffffffffffffff163373ffffffffffffffffffffffffffffffffffffffff16145b6119b157600080fd5b600c600083815260200190815260200160002060040180546119d290614467565b80601f01602080910402602001604051908101604052809291908181526020018280546119fe90614467565b8015611a4b5780601f10611a2057610100808354040283529160200191611a4b565b820191906000526020600020905b815481529060010190602001808311611a2e57829003601f168201915b50505050509050919050565b6060600760009054906101000a900473ffffffffffffffffffffffffffffffffffffffff1673ffffffffffffffffffffffffffffffffffffffff163373ffffffffffffffffffffffffffffffffffffffff161480611b025750600860009054906101000a900473ffffffffffffffffffffffffffffffffffffffff1673ffffffffffffffffffffffffffffffffffffffff163373ffffffffffffffffffffffffffffffffffffffff16145b611b0b57600080fd5b600c60008381526020019081526020016000206002018054611b2c90614467565b80601f0160208091040260200160405190810160405280929190818152602001828054611b5890614467565b8015611ba55780601f10611b7a57610100808354040283529160200191611ba5565b820191906000526020600020905b815481529060010190602001808311611b8857829003601f168201915b50505050509050919050565b600960009054906101000a900473ffffffffffffffffffffffffffffffffffffffff1673ffffffffffffffffffffffffffffffffffffffff163373ffffffffffffffffffffffffffffffffffffffff161480611c5a5750600a60009054906101000a900473ffffffffffffffffffffffffffffffffffffffff1673ffffffffffffffffffffffffffffffffffffffff163373ffffffffffffffffffffffffffffffffffffffff16145b80611cb25750600b60009054906101000a900473ffffffffffffffffffffffffffffffffffffffff1673ffffffffffffffffffffffffffffffffffffffff163373ffffffffffffffffffffffffffffffffffffffff16145b611cbb57600080fd5b60006040518061012001604052808c81526020018b81526020018a81526020018981526020018881526020018781526020018681526020018581526020018473ffffffffffffffffffffffffffffffffffffffff1681525090508b600e85604051611d2691906148f3565b90815260200160405180910390208190555080600c60008e81526020019081526020016000206000820151816000019080519060200190611d6892919061396f565b506020820151816001019080519060200190611d8592919061396f565b506040820151816002019080519060200190611da292919061396f565b506060820151816003019080519060200190611dbf92919061396f565b506080820151816004019080519060200190611ddc92919061396f565b5060a0820151816005019080519060200190611df992919061396f565b5060c0820151816006019080519060200190611e1692919061396f565b5060e0820151816007019080519060200190611e3392919061396f565b506101008201518160080160006101000a81548173ffffffffffffffffffffffffffffffffffffffff021916908373ffffffffffffffffffffffffffffffffffffffff1602179055509050508b600d600084815260200190815260200160002081905550611ea1338d613226565b505050505050505050505050565b6060600760009054906101000a900473ffffffffffffffffffffffffffffffffffffffff1673ffffffffffffffffffffffffffffffffffffffff163373ffffffffffffffffffffffffffffffffffffffff161480611f5a5750600860009054906101000a900473ffffffffffffffffffffffffffffffffffffffff1673ffffffffffffffffffffffffffffffffffffffff163373ffffffffffffffffffffffffffffffffffffffff16145b611f6357600080fd5b600c60008381526020019081526020016000206005018054611f8490614467565b80601f0160208091040260200160405190810160405280929190818152602001828054611fb090614467565b8015611ffd5780601f10611fd257610100808354040283529160200191611ffd565b820191906000526020600020905b815481529060010190602001808311611fe057829003601f168201915b50505050509050919050565b6000600660009054906101000a900473ffffffffffffffffffffffffffffffffffffffff16905090565b61203b612d5a565b73ffffffffffffffffffffffffffffffffffffffff16612059612009565b73ffffffffffffffffffffffffffffffffffffffff16146120af576040517f08c379a00000000000000000000000000000000000000000000000000000000081526004016120a69061472d565b60405180910390fd5b82600960006101000a81548173ffffffffffffffffffffffffffffffffffffffff021916908373ffffffffffffffffffffffffffffffffffffffff16021790555081600a60006101000a81548173ffffffffffffffffffffffffffffffffffffffff021916908373ffffffffffffffffffffffffffffffffffffffff16021790555080600b60006101000a81548173ffffffffffffffffffffffffffffffffffffffff021916908373ffffffffffffffffffffffffffffffffffffffff160217905550505050565b6060600760009054906101000a900473ffffffffffffffffffffffffffffffffffffffff1673ffffffffffffffffffffffffffffffffffffffff163373ffffffffffffffffffffffffffffffffffffffff1614806122225750600860009054906101000a900473ffffffffffffffffffffffffffffffffffffffff1673ffffffffffffffffffffffffffffffffffffffff163373ffffffffffffffffffffffffffffffffffffffff16145b61222b57600080fd5b600c6000838152602001908152602001600020600301805461224c90614467565b80601f016020809104026020016040519081016040528092919081815260200182805461227890614467565b80156122c55780601f1061229a576101008083540402835291602001916122c5565b820191906000526020600020905b8154815290600101906020018083116122a857829003601f168201915b50505050509050919050565b6060600760009054906101000a900473ffffffffffffffffffffffffffffffffffffffff1673ffffffffffffffffffffffffffffffffffffffff163373ffffffffffffffffffffffffffffffffffffffff16148061237c5750600860009054906101000a900473ffffffffffffffffffffffffffffffffffffffff1673ffffffffffffffffffffffffffffffffffffffff163373ffffffffffffffffffffffffffffffffffffffff16145b61238557600080fd5b600c600083815260200190815260200160002060010180546123a690614467565b80601f01602080910402602001604051908101604052809291908181526020018280546123d290614467565b801561241f5780601f106123f45761010080835404028352916020019161241f565b820191906000526020600020905b81548152906001019060200180831161240257829003601f168201915b50505050509050919050565b60606001805461243a90614467565b80601f016020809104026020016040519081016040528092919081815260200182805461246690614467565b80156124b35780601f10612488576101008083540402835291602001916124b3565b820191906000526020600020905b81548152906001019060200180831161249657829003601f168201915b5050505050905090565b6124cf6124c8612d5a565b8383613244565b5050565b6124e46124de612d5a565b83612e1b565b612523576040517f08c379a000000000000000000000000000000000000000000000000000000000815260040161251a906146c1565b60405180910390fd5b61252f848484846133b1565b50505050565b606061254082612cee565b61257f576040517f08c379a00000000000000000000000000000000000000000000000000000000081526004016125769061497c565b60405180910390fd5b600061258961340d565b905060008151116125a957604051806020016040528060008152506125d4565b806125b384613424565b6040516020016125c492919061499c565b6040516020818303038152906040525b915050919050565b600a60009054906101000a900473ffffffffffffffffffffffffffffffffffffffff1681565b6000600760009054906101000a900473ffffffffffffffffffffffffffffffffffffffff1673ffffffffffffffffffffffffffffffffffffffff163373ffffffffffffffffffffffffffffffffffffffff1614806126ad5750600860009054906101000a900473ffffffffffffffffffffffffffffffffffffffff1673ffffffffffffffffffffffffffffffffffffffff163373ffffffffffffffffffffffffffffffffffffffff16145b6126b657600080fd5b6000600c6000848152602001908152602001600020600001600c6000858152602001908152602001600020600101600c6000868152602001908152602001600020600201600c6000878152602001908152602001600020600301600c6000888152602001908152602001600020600401600c6000898152602001908152602001600020600501600c60008a8152602001908152602001600020600601600c60008b815260200190815260200160002060070160405160200161277f989796959493929190614a54565b60405160208183030381529060405280519060200120905080915050919050565b600960009054906101000a900473ffffffffffffffffffffffffffffffffffffffff1681565b6000600760009054906101000a900473ffffffffffffffffffffffffffffffffffffffff1673ffffffffffffffffffffffffffffffffffffffff163373ffffffffffffffffffffffffffffffffffffffff1614806128715750600860009054906101000a900473ffffffffffffffffffffffffffffffffffffffff1673ffffffffffffffffffffffffffffffffffffffff163373ffffffffffffffffffffffffffffffffffffffff16145b61287a57600080fd5b600c600083815260200190815260200160002060080160009054906101000a900473ffffffffffffffffffffffffffffffffffffffff169050919050565b6128c0612d5a565b73ffffffffffffffffffffffffffffffffffffffff166128de612009565b73ffffffffffffffffffffffffffffffffffffffff1614612934576040517f08c379a000000000000000000000000000000000000000000000000000000000815260040161292b9061472d565b60405180910390fd5b80600760006101000a81548173ffffffffffffffffffffffffffffffffffffffff021916908373ffffffffffffffffffffffffffffffffffffffff16021790555050565b6000600560008473ffffffffffffffffffffffffffffffffffffffff1673ffffffffffffffffffffffffffffffffffffffff16815260200190815260200160002060008373ffffffffffffffffffffffffffffffffffffffff1673ffffffffffffffffffffffffffffffffffffffff16815260200190815260200160002060009054906101000a900460ff16905092915050565b6060600760009054906101000a900473ffffffffffffffffffffffffffffffffffffffff1673ffffffffffffffffffffffffffffffffffffffff163373ffffffffffffffffffffffffffffffffffffffff161480612ab75750600860009054906101000a900473ffffffffffffffffffffffffffffffffffffffff1673ffffffffffffffffffffffffffffffffffffffff163373ffffffffffffffffffffffffffffffffffffffff16145b612ac057600080fd5b600c60008381526020019081526020016000206000018054612ae190614467565b80601f0160208091040260200160405190810160405280929190818152602001828054612b0d90614467565b8015612b5a5780601f10612b2f57610100808354040283529160200191612b5a565b820191906000526020600020905b815481529060010190602001808311612b3d57829003601f168201915b50505050509050919050565b612b6e612d5a565b73ffffffffffffffffffffffffffffffffffffffff16612b8c612009565b73ffffffffffffffffffffffffffffffffffffffff1614612be2576040517f08c379a0000000000000000000000000000000000000000000000000000000008152600401612bd99061472d565b60405180910390fd5b600073ffffffffffffffffffffffffffffffffffffffff168173ffffffffffffffffffffffffffffffffffffffff161415612c52576040517f08c379a0000000000000000000000000000000000000000000000000000000008152600401612c4990614b38565b60405180910390fd5b612c5b81613160565b50565b600b60009054906101000a900473ffffffffffffffffffffffffffffffffffffffff1681565b60007f01ffc9a7000000000000000000000000000000000000000000000000000000007bffffffffffffffffffffffffffffffffffffffffffffffffffffffff1916827bffffffffffffffffffffffffffffffffffffffffffffffffffffffff1916149050919050565b60008073ffffffffffffffffffffffffffffffffffffffff166002600084815260200190815260200160002060009054906101000a900473ffffffffffffffffffffffffffffffffffffffff1673ffffffffffffffffffffffffffffffffffffffff1614159050919050565b600033905090565b816004600083815260200190815260200160002060006101000a81548173ffffffffffffffffffffffffffffffffffffffff021916908373ffffffffffffffffffffffffffffffffffffffff160217905550808273ffffffffffffffffffffffffffffffffffffffff16612dd583611103565b73ffffffffffffffffffffffffffffffffffffffff167f8c5be1e5ebec7d5bd14f71427d1e84f3dd0314c0f7b2291e5b200ac8c7c3b92560405160405180910390a45050565b6000612e2682612cee565b612e65576040517f08c379a0000000000000000000000000000000000000000000000000000000008152600401612e5c90614bca565b60405180910390fd5b6000612e7083611103565b90508073ffffffffffffffffffffffffffffffffffffffff168473ffffffffffffffffffffffffffffffffffffffff161480612edf57508373ffffffffffffffffffffffffffffffffffffffff16612ec784610b56565b73ffffffffffffffffffffffffffffffffffffffff16145b80612ef05750612eef8185612978565b5b91505092915050565b8273ffffffffffffffffffffffffffffffffffffffff16612f1982611103565b73ffffffffffffffffffffffffffffffffffffffff1614612f6f576040517f08c379a0000000000000000000000000000000000000000000000000000000008152600401612f6690614c5c565b60405180910390fd5b600073ffffffffffffffffffffffffffffffffffffffff168273ffffffffffffffffffffffffffffffffffffffff161415612fdf576040517f08c379a0000000000000000000000000000000000000000000000000000000008152600401612fd690614cee565b60405180910390fd5b612fea838383613585565b612ff5600082612d62565b6001600360008573ffffffffffffffffffffffffffffffffffffffff1673ffffffffffffffffffffffffffffffffffffffff16815260200190815260200160002060008282546130459190614d3d565b925050819055506001600360008473ffffffffffffffffffffffffffffffffffffffff1673ffffffffffffffffffffffffffffffffffffffff168152602001908152602001600020600082825461309c9190614d71565b92505081905550816002600083815260200190815260200160002060006101000a81548173ffffffffffffffffffffffffffffffffffffffff021916908373ffffffffffffffffffffffffffffffffffffffff160217905550808273ffffffffffffffffffffffffffffffffffffffff168473ffffffffffffffffffffffffffffffffffffffff167fddf252ad1be2c89b69c2b068fc378daa952ba7f163c4a11628f55a4df523b3ef60405160405180910390a461315b83838361358a565b505050565b6000600660009054906101000a900473ffffffffffffffffffffffffffffffffffffffff16905081600660006101000a81548173ffffffffffffffffffffffffffffffffffffffff021916908373ffffffffffffffffffffffffffffffffffffffff1602179055508173ffffffffffffffffffffffffffffffffffffffff168173ffffffffffffffffffffffffffffffffffffffff167f8be0079c531659141344cd1fd0a4f28419497f9722a3daafe3b4186f6b6457e060405160405180910390a35050565b61324082826040518060200160405280600081525061358f565b5050565b8173ffffffffffffffffffffffffffffffffffffffff168373ffffffffffffffffffffffffffffffffffffffff1614156132b3576040517f08c379a00000000000000000000000000000000000000000000000000000000081526004016132aa90614e13565b60405180910390fd5b80600560008573ffffffffffffffffffffffffffffffffffffffff1673ffffffffffffffffffffffffffffffffffffffff16815260200190815260200160002060008473ffffffffffffffffffffffffffffffffffffffff1673ffffffffffffffffffffffffffffffffffffffff16815260200190815260200160002060006101000a81548160ff0219169083151502179055508173ffffffffffffffffffffffffffffffffffffffff168373ffffffffffffffffffffffffffffffffffffffff167f17307eab39ab6107e8899845ad3d59bd9653f200f220920489ca2b5937696c31836040516133a49190613ac6565b60405180910390a3505050565b6133bc848484612ef9565b6133c8848484846135ea565b613407576040517f08c379a00000000000000000000000000000000000000000000000000000000081526004016133fe90614ea5565b60405180910390fd5b50505050565b606060405180602001604052806000815250905090565b6060600082141561346c576040518060400160405280600181526020017f30000000000000000000000000000000000000000000000000000000000000008152509050613580565b600082905060005b6000821461349e57808061348790614ec5565b915050600a826134979190614f3d565b9150613474565b60008167ffffffffffffffff8111156134ba576134b9613dde565b5b6040519080825280601f01601f1916602001820160405280156134ec5781602001600182028036833780820191505090505b5090505b60008514613579576001826135059190614d3d565b9150600a856135149190614f6e565b60306135209190614d71565b60f81b81838151811061353657613535614f9f565b5b60200101907effffffffffffffffffffffffffffffffffffffffffffffffffffffffffffff1916908160001a905350600a856135729190614f3d565b94506134f0565b8093505050505b919050565b505050565b505050565b6135998383613772565b6135a660008484846135ea565b6135e5576040517f08c379a00000000000000000000000000000000000000000000000000000000081526004016135dc90614ea5565b60405180910390fd5b505050565b600061360b8473ffffffffffffffffffffffffffffffffffffffff1661394c565b15613765578373ffffffffffffffffffffffffffffffffffffffff1663150b7a02613634612d5a565b8786866040518563ffffffff1660e01b81526004016136569493929190615023565b6020604051808303816000875af192505050801561369257506040513d601f19601f8201168201806040525081019061368f9190615084565b60015b613715573d80600081146136c2576040519150601f19603f3d011682016040523d82523d6000602084013e6136c7565b606091505b5060008151141561370d576040517f08c379a000000000000000000000000000000000000000000000000000000000815260040161370490614ea5565b60405180910390fd5b805181602001fd5b63150b7a0260e01b7bffffffffffffffffffffffffffffffffffffffffffffffffffffffff1916817bffffffffffffffffffffffffffffffffffffffffffffffffffffffff19161491505061376a565b600190505b949350505050565b600073ffffffffffffffffffffffffffffffffffffffff168273ffffffffffffffffffffffffffffffffffffffff1614156137e2576040517f08c379a00000000000000000000000000000000000000000000000000000000081526004016137d9906150fd565b60405180910390fd5b6137eb81612cee565b1561382b576040517f08c379a000000000000000000000000000000000000000000000000000000000815260040161382290615169565b60405180910390fd5b61383760008383613585565b6001600360008473ffffffffffffffffffffffffffffffffffffffff1673ffffffffffffffffffffffffffffffffffffffff16815260200190815260200160002060008282546138879190614d71565b92505081905550816002600083815260200190815260200160002060006101000a81548173ffffffffffffffffffffffffffffffffffffffff021916908373ffffffffffffffffffffffffffffffffffffffff160217905550808273ffffffffffffffffffffffffffffffffffffffff16600073ffffffffffffffffffffffffffffffffffffffff167fddf252ad1be2c89b69c2b068fc378daa952ba7f163c4a11628f55a4df523b3ef60405160405180910390a46139486000838361358a565b5050565b6000808273ffffffffffffffffffffffffffffffffffffffff163b119050919050565b82805461397b90614467565b90600052602060002090601f01602090048101928261399d57600085556139e4565b82601f106139b657805160ff19168380011785556139e4565b828001600101855582156139e4579182015b828111156139e35782518255916020019190600101906139c8565b5b5090506139f191906139f5565b5090565b5b80821115613a0e5760008160009055506001016139f6565b5090565b6000604051905090565b600080fd5b600080fd5b60007fffffffff0000000000000000000000000000000000000000000000000000000082169050919050565b613a5b81613a26565b8114613a6657600080fd5b50565b600081359050613a7881613a52565b92915050565b600060208284031215613a9457613a93613a1c565b5b6000613aa284828501613a69565b91505092915050565b60008115159050919050565b613ac081613aab565b82525050565b6000602082019050613adb6000830184613ab7565b92915050565b6000819050919050565b613af481613ae1565b8114613aff57600080fd5b50565b600081359050613b1181613aeb565b92915050565b600060208284031215613b2d57613b2c613a1c565b5b6000613b3b84828501613b02565b91505092915050565b6000819050919050565b613b5781613b44565b82525050565b6000602082019050613b726000830184613b4e565b92915050565b600081519050919050565b600082825260208201905092915050565b60005b83811015613bb2578082015181840152602081019050613b97565b83811115613bc1576000848401525b50505050565b6000601f19601f8301169050919050565b6000613be382613b78565b613bed8185613b83565b9350613bfd818560208601613b94565b613c0681613bc7565b840191505092915050565b60006020820190508181036000830152613c2b8184613bd8565b905092915050565b613c3c81613b44565b8114613c4757600080fd5b50565b600081359050613c5981613c33565b92915050565b600060208284031215613c7557613c74613a1c565b5b6000613c8384828501613c4a565b91505092915050565b600073ffffffffffffffffffffffffffffffffffffffff82169050919050565b6000613cb782613c8c565b9050919050565b613cc781613cac565b82525050565b6000602082019050613ce26000830184613cbe565b92915050565b613cf181613cac565b8114613cfc57600080fd5b50565b600081359050613d0e81613ce8565b92915050565b60008060408385031215613d2b57613d2a613a1c565b5b6000613d3985828601613cff565b9250506020613d4a85828601613c4a565b9150509250929050565b600080600060608486031215613d6d57613d6c613a1c565b5b6000613d7b86828701613cff565b9350506020613d8c86828701613cff565b9250506040613d9d86828701613c4a565b9150509250925092565b600060208284031215613dbd57613dbc613a1c565b5b6000613dcb84828501613cff565b91505092915050565b600080fd5b600080fd5b7f4e487b7100000000000000000000000000000000000000000000000000000000600052604160045260246000fd5b613e1682613bc7565b810181811067ffffffffffffffff82111715613e3557613e34613dde565b5b80604052505050565b6000613e48613a12565b9050613e548282613e0d565b919050565b600067ffffffffffffffff821115613e7457613e73613dde565b5b613e7d82613bc7565b9050602081019050919050565b82818337600083830152505050565b6000613eac613ea784613e59565b613e3e565b905082815260208101848484011115613ec857613ec7613dd9565b5b613ed3848285613e8a565b509392505050565b600082601f830112613ef057613eef613dd4565b5b8135613f00848260208601613e99565b91505092915050565b600060208284031215613f1f57613f1e613a1c565b5b600082013567ffffffffffffffff811115613f3d57613f3c613a21565b5b613f4984828501613edb565b91505092915050565b6000610120820190508181036000830152613f6d818c613bd8565b90508181036020830152613f81818b613bd8565b90508181036040830152613f95818a613bd8565b90508181036060830152613fa98189613bd8565b90508181036080830152613fbd8188613bd8565b905081810360a0830152613fd18187613bd8565b905081810360c0830152613fe58186613bd8565b905081810360e0830152613ff98185613bd8565b9050614009610100830184613cbe565b9a9950505050505050505050565b60008060008060008060008060008060006101608c8e03121561403d5761403c613a1c565b5b600061404b8e828f01613c4a565b9b505060208c013567ffffffffffffffff81111561406c5761406b613a21565b5b6140788e828f01613edb565b9a505060408c013567ffffffffffffffff81111561409957614098613a21565b5b6140a58e828f01613edb565b99505060608c013567ffffffffffffffff8111156140c6576140c5613a21565b5b6140d28e828f01613edb565b98505060808c013567ffffffffffffffff8111156140f3576140f2613a21565b5b6140ff8e828f01613edb565b97505060a08c013567ffffffffffffffff8111156141205761411f613a21565b5b61412c8e828f01613edb565b96505060c08c013567ffffffffffffffff81111561414d5761414c613a21565b5b6141598e828f01613edb565b95505060e08c013567ffffffffffffffff81111561417a57614179613a21565b5b6141868e828f01613edb565b9450506101008c013567ffffffffffffffff8111156141a8576141a7613a21565b5b6141b48e828f01613edb565b9350506101206141c68e828f01613cff565b9250506101406141d88e828f01613b02565b9150509295989b509295989b9093969950565b60008060006060848603121561420457614203613a1c565b5b600061421286828701613cff565b935050602061422386828701613cff565b925050604061423486828701613cff565b9150509250925092565b61424781613aab565b811461425257600080fd5b50565b6000813590506142648161423e565b92915050565b6000806040838503121561428157614280613a1c565b5b600061428f85828601613cff565b92505060206142a085828601614255565b9150509250929050565b600067ffffffffffffffff8211156142c5576142c4613dde565b5b6142ce82613bc7565b9050602081019050919050565b60006142ee6142e9846142aa565b613e3e565b90508281526020810184848401111561430a57614309613dd9565b5b614315848285613e8a565b509392505050565b600082601f83011261433257614331613dd4565b5b81356143428482602086016142db565b91505092915050565b6000806000806080858703121561436557614364613a1c565b5b600061437387828801613cff565b945050602061438487828801613cff565b935050604061439587828801613c4a565b925050606085013567ffffffffffffffff8111156143b6576143b5613a21565b5b6143c28782880161431d565b91505092959194509250565b6143d781613ae1565b82525050565b60006020820190506143f260008301846143ce565b92915050565b6000806040838503121561440f5761440e613a1c565b5b600061441d85828601613cff565b925050602061442e85828601613cff565b9150509250929050565b7f4e487b7100000000000000000000000000000000000000000000000000000000600052602260045260246000fd5b6000600282049050600182168061447f57607f821691505b6020821081141561449357614492614438565b5b50919050565b7f4552433732313a20617070726f76656420717565727920666f72206e6f6e657860008201527f697374656e7420746f6b656e0000000000000000000000000000000000000000602082015250565b60006144f5602c83613b83565b915061450082614499565b604082019050919050565b60006020820190508181036000830152614524816144e8565b9050919050565b7f4552433732313a20617070726f76616c20746f2063757272656e74206f776e6560008201527f7200000000000000000000000000000000000000000000000000000000000000602082015250565b6000614587602183613b83565b91506145928261452b565b604082019050919050565b600060208201905081810360008301526145b68161457a565b9050919050565b7f4552433732313a20617070726f76652063616c6c6572206973206e6f74206f7760008201527f6e6572206e6f7220617070726f76656420666f7220616c6c0000000000000000602082015250565b6000614619603883613b83565b9150614624826145bd565b604082019050919050565b600060208201905081810360008301526146488161460c565b9050919050565b7f4552433732313a207472616e736665722063616c6c6572206973206e6f74206f60008201527f776e6572206e6f7220617070726f766564000000000000000000000000000000602082015250565b60006146ab603183613b83565b91506146b68261464f565b604082019050919050565b600060208201905081810360008301526146da8161469e565b9050919050565b7f4f776e61626c653a2063616c6c6572206973206e6f7420746865206f776e6572600082015250565b6000614717602083613b83565b9150614722826146e1565b602082019050919050565b600060208201905081810360008301526147468161470a565b9050919050565b600081905092915050565b50565b600061476860008361474d565b915061477382614758565b600082019050919050565b60006147898261475b565b9150819050919050565b7f4552433732313a206f776e657220717565727920666f72206e6f6e657869737460008201527f656e7420746f6b656e0000000000000000000000000000000000000000000000602082015250565b60006147ef602983613b83565b91506147fa82614793565b604082019050919050565b6000602082019050818103600083015261481e816147e2565b9050919050565b7f4552433732313a2062616c616e636520717565727920666f7220746865207a6560008201527f726f206164647265737300000000000000000000000000000000000000000000602082015250565b6000614881602a83613b83565b915061488c82614825565b604082019050919050565b600060208201905081810360008301526148b081614874565b9050919050565b600081905092915050565b60006148cd82613b78565b6148d781856148b7565b93506148e7818560208601613b94565b80840191505092915050565b60006148ff82846148c2565b915081905092915050565b7f4552433732314d657461646174613a2055524920717565727920666f72206e6f60008201527f6e6578697374656e7420746f6b656e0000000000000000000000000000000000602082015250565b6000614966602f83613b83565b91506149718261490a565b604082019050919050565b6000602082019050818103600083015261499581614959565b9050919050565b60006149a882856148c2565b91506149b482846148c2565b91508190509392505050565b60008190508160005260206000209050919050565b600081546149e281614467565b6149ec81866148b7565b94506001821660008114614a075760018114614a1857614a4b565b60ff19831686528186019350614a4b565b614a21856149c0565b60005b83811015614a4357815481890152600182019150602081019050614a24565b838801955050505b50505092915050565b6000614a60828b6149d5565b9150614a6c828a6149d5565b9150614a7882896149d5565b9150614a8482886149d5565b9150614a9082876149d5565b9150614a9c82866149d5565b9150614aa882856149d5565b9150614ab482846149d5565b91508190509998505050505050505050565b7f4f776e61626c653a206e6577206f776e657220697320746865207a65726f206160008201527f6464726573730000000000000000000000000000000000000000000000000000602082015250565b6000614b22602683613b83565b9150614b2d82614ac6565b604082019050919050565b60006020820190508181036000830152614b5181614b15565b9050919050565b7f4552433732313a206f70657261746f7220717565727920666f72206e6f6e657860008201527f697374656e7420746f6b656e0000000000000000000000000000000000000000602082015250565b6000614bb4602c83613b83565b9150614bbf82614b58565b604082019050919050565b60006020820190508181036000830152614be381614ba7565b9050919050565b7f4552433732313a207472616e736665722066726f6d20696e636f72726563742060008201527f6f776e6572000000000000000000000000000000000000000000000000000000602082015250565b6000614c46602583613b83565b9150614c5182614bea565b604082019050919050565b60006020820190508181036000830152614c7581614c39565b9050919050565b7f4552433732313a207472616e7366657220746f20746865207a65726f2061646460008201527f7265737300000000000000000000000000000000000000000000000000000000602082015250565b6000614cd8602483613b83565b9150614ce382614c7c565b604082019050919050565b60006020820190508181036000830152614d0781614ccb565b9050919050565b7f4e487b7100000000000000000000000000000000000000000000000000000000600052601160045260246000fd5b6000614d4882613b44565b9150614d5383613b44565b925082821015614d6657614d65614d0e565b5b828203905092915050565b6000614d7c82613b44565b9150614d8783613b44565b9250827fffffffffffffffffffffffffffffffffffffffffffffffffffffffffffffffff03821115614dbc57614dbb614d0e565b5b828201905092915050565b7f4552433732313a20617070726f766520746f2063616c6c657200000000000000600082015250565b6000614dfd601983613b83565b9150614e0882614dc7565b602082019050919050565b60006020820190508181036000830152614e2c81614df0565b9050919050565b7f4552433732313a207472616e7366657220746f206e6f6e20455243373231526560008201527f63656976657220696d706c656d656e7465720000000000000000000000000000602082015250565b6000614e8f603283613b83565b9150614e9a82614e33565b604082019050919050565b60006020820190508181036000830152614ebe81614e82565b9050919050565b6000614ed082613b44565b91507fffffffffffffffffffffffffffffffffffffffffffffffffffffffffffffffff821415614f0357614f02614d0e565b5b600182019050919050565b7f4e487b7100000000000000000000000000000000000000000000000000000000600052601260045260246000fd5b6000614f4882613b44565b9150614f5383613b44565b925082614f6357614f62614f0e565b5b828204905092915050565b6000614f7982613b44565b9150614f8483613b44565b925082614f9457614f93614f0e565b5b828206905092915050565b7f4e487b7100000000000000000000000000000000000000000000000000000000600052603260045260246000fd5b600081519050919050565b600082825260208201905092915050565b6000614ff582614fce565b614fff8185614fd9565b935061500f818560208601613b94565b61501881613bc7565b840191505092915050565b60006080820190506150386000830187613cbe565b6150456020830186613cbe565b6150526040830185613b4e565b81810360608301526150648184614fea565b905095945050505050565b60008151905061507e81613a52565b92915050565b60006020828403121561509a57615099613a1c565b5b60006150a88482850161506f565b91505092915050565b7f4552433732313a206d696e7420746f20746865207a65726f2061646472657373600082015250565b60006150e7602083613b83565b91506150f2826150b1565b602082019050919050565b60006020820190508181036000830152615116816150da565b9050919050565b7f4552433732313a20746f6b656e20616c7265616479206d696e74656400000000600082015250565b6000615153601c83613b83565b915061515e8261511d565b602082019050919050565b6000602082019050818103600083015261518281615146565b905091905056fea26469706673582212208e7785e296cf07af27484c77c5cd3964020c9b6337f071ea4dc8b6081c332e5d64736f6c634300080b0033",
  "immutableReferences": {},
  "source": "// SPDX-License-Identifier: MIT\r\n\r\n// File: contracts/Base64.sol\r\n\r\npragma solidity ^0.8.0;\r\n\r\n/// @title Base64\r\n/// @author Brecht Devos - <brecht@loopring.org>\r\n/// @notice Provides a function for encoding some bytes in base64\r\nlibrary Base64 {\r\n    string internal constant TABLE =\r\n        \"ABCDEFGHIJKLMNOPQRSTUVWXYZabcdefghijklmnopqrstuvwxyz0123456789+/\";\r\n\r\n    function encode(bytes memory data) internal pure returns (string memory) {\r\n        if (data.length == 0) return \"\";\r\n\r\n        // load the table into memory\r\n        string memory table = TABLE;\r\n\r\n        // multiply by 4/3 rounded up\r\n        uint256 encodedLen = 4 * ((data.length + 2) / 3);\r\n\r\n        // add some extra buffer at the end required for the writing\r\n        string memory result = new string(encodedLen + 32);\r\n\r\n        assembly {\r\n            // set the actual output length\r\n            mstore(result, encodedLen)\r\n\r\n            // prepare the lookup table\r\n            let tablePtr := add(table, 1)\r\n\r\n            // input ptr\r\n            let dataPtr := data\r\n            let endPtr := add(dataPtr, mload(data))\r\n\r\n            // result ptr, jump over length\r\n            let resultPtr := add(result, 32)\r\n\r\n            // run over the input, 3 bytes at a time\r\n            for {\r\n\r\n            } lt(dataPtr, endPtr) {\r\n\r\n            } {\r\n                dataPtr := add(dataPtr, 3)\r\n\r\n                // read 3 bytes\r\n                let input := mload(dataPtr)\r\n\r\n                // write 4 characters\r\n                mstore(\r\n                    resultPtr,\r\n                    shl(248, mload(add(tablePtr, and(shr(18, input), 0x3F))))\r\n                )\r\n                resultPtr := add(resultPtr, 1)\r\n                mstore(\r\n                    resultPtr,\r\n                    shl(248, mload(add(tablePtr, and(shr(12, input), 0x3F))))\r\n                )\r\n                resultPtr := add(resultPtr, 1)\r\n                mstore(\r\n                    resultPtr,\r\n                    shl(248, mload(add(tablePtr, and(shr(6, input), 0x3F))))\r\n                )\r\n                resultPtr := add(resultPtr, 1)\r\n                mstore(\r\n                    resultPtr,\r\n                    shl(248, mload(add(tablePtr, and(input, 0x3F))))\r\n                )\r\n                resultPtr := add(resultPtr, 1)\r\n            }\r\n\r\n            // padding with '='\r\n            switch mod(mload(data), 3)\r\n            case 1 {\r\n                mstore(sub(resultPtr, 2), shl(240, 0x3d3d))\r\n            }\r\n            case 2 {\r\n                mstore(sub(resultPtr, 1), shl(248, 0x3d))\r\n            }\r\n        }\r\n\r\n        return result;\r\n    }\r\n}\r\n// File: @openzeppelin/contracts/utils/Counters.sol\r\n\r\n// OpenZeppelin Contracts v4.4.1 (utils/Counters.sol)\r\n\r\npragma solidity ^0.8.0;\r\n\r\n/**\r\n * @title Counters\r\n * @author Matt Condon (@shrugs)\r\n * @dev Provides counters that can only be incremented, decremented or reset. This can be used e.g. to track the number\r\n * of elements in a mapping, issuing ERC721 ids, or counting request ids.\r\n *\r\n * Include with `using Counters for Counters.Counter;`\r\n */\r\nlibrary Counters {\r\n    struct Counter {\r\n        // This variable should never be directly accessed by users of the library: interactions must be restricted to\r\n        // the library's function. As of Solidity v0.5.2, this cannot be enforced, though there is a proposal to add\r\n        // this feature: see https://github.com/ethereum/solidity/issues/4637\r\n        uint256 _value; // default: 0\r\n    }\r\n\r\n    function current(Counter storage counter) internal view returns (uint256) {\r\n        return counter._value;\r\n    }\r\n\r\n    function increment(Counter storage counter) internal {\r\n        unchecked {\r\n            counter._value += 1;\r\n        }\r\n    }\r\n\r\n    function decrement(Counter storage counter) internal {\r\n        uint256 value = counter._value;\r\n        require(value > 0, \"Counter: decrement overflow\");\r\n        unchecked {\r\n            counter._value = value - 1;\r\n        }\r\n    }\r\n\r\n    function reset(Counter storage counter) internal {\r\n        counter._value = 0;\r\n    }\r\n}\r\n\r\n// File: @openzeppelin/contracts/utils/Strings.sol\r\n\r\n// OpenZeppelin Contracts v4.4.1 (utils/Strings.sol)\r\n\r\npragma solidity ^0.8.0;\r\n\r\n/**\r\n * @dev String operations.\r\n */\r\nlibrary Strings {\r\n    bytes16 private constant _HEX_SYMBOLS = \"0123456789abcdef\";\r\n\r\n    /**\r\n     * @dev Converts a `uint256` to its ASCII `string` decimal representation.\r\n     */\r\n    function toString(uint256 value) internal pure returns (string memory) {\r\n        // Inspired by OraclizeAPI's implementation - MIT licence\r\n        // https://github.com/oraclize/ethereum-api/blob/b42146b063c7d6ee1358846c198246239e9360e8/oraclizeAPI_0.4.25.sol\r\n\r\n        if (value == 0) {\r\n            return \"0\";\r\n        }\r\n        uint256 temp = value;\r\n        uint256 digits;\r\n        while (temp != 0) {\r\n            digits++;\r\n            temp /= 10;\r\n        }\r\n        bytes memory buffer = new bytes(digits);\r\n        while (value != 0) {\r\n            digits -= 1;\r\n            buffer[digits] = bytes1(uint8(48 + uint256(value % 10)));\r\n            value /= 10;\r\n        }\r\n        return string(buffer);\r\n    }\r\n\r\n    /**\r\n     * @dev Converts a `uint256` to its ASCII `string` hexadecimal representation.\r\n     */\r\n    function toHexString(uint256 value) internal pure returns (string memory) {\r\n        if (value == 0) {\r\n            return \"0x00\";\r\n        }\r\n        uint256 temp = value;\r\n        uint256 length = 0;\r\n        while (temp != 0) {\r\n            length++;\r\n            temp >>= 8;\r\n        }\r\n        return toHexString(value, length);\r\n    }\r\n\r\n    /**\r\n     * @dev Converts a `uint256` to its ASCII `string` hexadecimal representation with fixed length.\r\n     */\r\n    function toHexString(uint256 value, uint256 length)\r\n        internal\r\n        pure\r\n        returns (string memory)\r\n    {\r\n        bytes memory buffer = new bytes(2 * length + 2);\r\n        buffer[0] = \"0\";\r\n        buffer[1] = \"x\";\r\n        for (uint256 i = 2 * length + 1; i > 1; --i) {\r\n            buffer[i] = _HEX_SYMBOLS[value & 0xf];\r\n            value >>= 4;\r\n        }\r\n        require(value == 0, \"Strings: hex length insufficient\");\r\n        return string(buffer);\r\n    }\r\n}\r\n\r\n// File: @openzeppelin/contracts/utils/Context.sol\r\n\r\n// OpenZeppelin Contracts v4.4.1 (utils/Context.sol)\r\n\r\npragma solidity ^0.8.0;\r\n\r\n/**\r\n * @dev Provides information about the current execution context, including the\r\n * sender of the transaction and its data. While these are generally available\r\n * via msg.sender and msg.data, they should not be accessed in such a direct\r\n * manner, since when dealing with meta-transactions the account sending and\r\n * paying for execution may not be the actual sender (as far as an application\r\n * is concerned).\r\n *\r\n * This contract is only required for intermediate, library-like contracts.\r\n */\r\nabstract contract Context {\r\n    function _msgSender() internal view virtual returns (address) {\r\n        return msg.sender;\r\n    }\r\n\r\n    function _msgData() internal view virtual returns (bytes calldata) {\r\n        return msg.data;\r\n    }\r\n}\r\n\r\n// File: @openzeppelin/contracts/access/Ownable.sol\r\n\r\n// OpenZeppelin Contracts v4.4.1 (access/Ownable.sol)\r\n\r\npragma solidity ^0.8.0;\r\n\r\n/**\r\n * @dev Contract module which provides a basic access control mechanism, where\r\n * there is an account (an owner) that can be granted exclusive access to\r\n * specific functions.\r\n *\r\n * By default, the owner account will be the one that deploys the contract. This\r\n * can later be changed with {transferOwnership}.\r\n *\r\n * This module is used through inheritance. It will make available the modifier\r\n * `onlyOwner`, which can be applied to your functions to restrict their use to\r\n * the owner.\r\n */\r\nabstract contract Ownable is Context {\r\n    address private _owner;\r\n\r\n    event OwnershipTransferred(\r\n        address indexed previousOwner,\r\n        address indexed newOwner\r\n    );\r\n\r\n    /**\r\n     * @dev Initializes the contract setting the deployer as the initial owner.\r\n     */\r\n    constructor() {\r\n        _transferOwnership(_msgSender());\r\n    }\r\n\r\n    /**\r\n     * @dev Returns the address of the current owner.\r\n     */\r\n    function owner() public view virtual returns (address) {\r\n        return _owner;\r\n    }\r\n\r\n    /**\r\n     * @dev Throws if called by any account other than the owner.\r\n     */\r\n    modifier onlyOwner() {\r\n        require(owner() == _msgSender(), \"Ownable: caller is not the owner\");\r\n        _;\r\n    }\r\n\r\n    /**\r\n     * @dev Leaves the contract without owner. It will not be possible to call\r\n     * `onlyOwner` functions anymore. Can only be called by the current owner.\r\n     *\r\n     * NOTE: Renouncing ownership will leave the contract without an owner,\r\n     * thereby removing any functionality that is only available to the owner.\r\n     */\r\n    function renounceOwnership() public virtual onlyOwner {\r\n        _transferOwnership(address(0));\r\n    }\r\n\r\n    /**\r\n     * @dev Transfers ownership of the contract to a new account (`newOwner`).\r\n     * Can only be called by the current owner.\r\n     */\r\n    function transferOwnership(address newOwner) public virtual onlyOwner {\r\n        require(\r\n            newOwner != address(0),\r\n            \"Ownable: new owner is the zero address\"\r\n        );\r\n        _transferOwnership(newOwner);\r\n    }\r\n\r\n    /**\r\n     * @dev Transfers ownership of the contract to a new account (`newOwner`).\r\n     * Internal function without access restriction.\r\n     */\r\n    function _transferOwnership(address newOwner) internal virtual {\r\n        address oldOwner = _owner;\r\n        _owner = newOwner;\r\n        emit OwnershipTransferred(oldOwner, newOwner);\r\n    }\r\n}\r\n\r\n// File: @openzeppelin/contracts/utils/Address.sol\r\n\r\n// OpenZeppelin Contracts (last updated v4.5.0) (utils/Address.sol)\r\n\r\npragma solidity ^0.8.1;\r\n\r\n/**\r\n * @dev Collection of functions related to the address type\r\n */\r\nlibrary Address {\r\n    /**\r\n     * @dev Returns true if `account` is a contract.\r\n     *\r\n     * [IMPORTANT]\r\n     * ====\r\n     * It is unsafe to assume that an address for which this function returns\r\n     * false is an externally-owned account (EOA) and not a contract.\r\n     *\r\n     * Among others, `isContract` will return false for the following\r\n     * types of addresses:\r\n     *\r\n     *  - an externally-owned account\r\n     *  - a contract in construction\r\n     *  - an address where a contract will be created\r\n     *  - an address where a contract lived, but was destroyed\r\n     * ====\r\n     *\r\n     * [IMPORTANT]\r\n     * ====\r\n     * You shouldn't rely on `isContract` to protect against flash loan attacks!\r\n     *\r\n     * Preventing calls from contracts is highly discouraged. It breaks composability, breaks support for smart wallets\r\n     * like Gnosis Safe, and does not provide security since it can be circumvented by calling from a contract\r\n     * constructor.\r\n     * ====\r\n     */\r\n    function isContract(address account) internal view returns (bool) {\r\n        // This method relies on extcodesize/address.code.length, which returns 0\r\n        // for contracts in construction, since the code is only stored at the end\r\n        // of the constructor execution.\r\n\r\n        return account.code.length > 0;\r\n    }\r\n\r\n    /**\r\n     * @dev Replacement for Solidity's `transfer`: sends `amount` wei to\r\n     * `recipient`, forwarding all available gas and reverting on errors.\r\n     *\r\n     * https://eips.ethereum.org/EIPS/eip-1884[EIP1884] increases the gas cost\r\n     * of certain opcodes, possibly making contracts go over the 2300 gas limit\r\n     * imposed by `transfer`, making them unable to receive funds via\r\n     * `transfer`. {sendValue} removes this limitation.\r\n     *\r\n     * https://diligence.consensys.net/posts/2019/09/stop-using-soliditys-transfer-now/[Learn more].\r\n     *\r\n     * IMPORTANT: because control is transferred to `recipient`, care must be\r\n     * taken to not create reentrancy vulnerabilities. Consider using\r\n     * {ReentrancyGuard} or the\r\n     * https://solidity.readthedocs.io/en/v0.5.11/security-considerations.html#use-the-checks-effects-interactions-pattern[checks-effects-interactions pattern].\r\n     */\r\n    function sendValue(address payable recipient, uint256 amount) internal {\r\n        require(\r\n            address(this).balance >= amount,\r\n            \"Address: insufficient balance\"\r\n        );\r\n\r\n        (bool success, ) = recipient.call{value: amount}(\"\");\r\n        require(\r\n            success,\r\n            \"Address: unable to send value, recipient may have reverted\"\r\n        );\r\n    }\r\n\r\n    /**\r\n     * @dev Performs a Solidity function call using a low level `call`. A\r\n     * plain `call` is an unsafe replacement for a function call: use this\r\n     * function instead.\r\n     *\r\n     * If `target` reverts with a revert reason, it is bubbled up by this\r\n     * function (like regular Solidity function calls).\r\n     *\r\n     * Returns the raw returned data. To convert to the expected return value,\r\n     * use https://solidity.readthedocs.io/en/latest/units-and-global-variables.html?highlight=abi.decode#abi-encoding-and-decoding-functions[`abi.decode`].\r\n     *\r\n     * Requirements:\r\n     *\r\n     * - `target` must be a contract.\r\n     * - calling `target` with `data` must not revert.\r\n     *\r\n     * _Available since v3.1._\r\n     */\r\n    function functionCall(address target, bytes memory data)\r\n        internal\r\n        returns (bytes memory)\r\n    {\r\n        return functionCall(target, data, \"Address: low-level call failed\");\r\n    }\r\n\r\n    /**\r\n     * @dev Same as {xref-Address-functionCall-address-bytes-}[`functionCall`], but with\r\n     * `errorMessage` as a fallback revert reason when `target` reverts.\r\n     *\r\n     * _Available since v3.1._\r\n     */\r\n    function functionCall(\r\n        address target,\r\n        bytes memory data,\r\n        string memory errorMessage\r\n    ) internal returns (bytes memory) {\r\n        return functionCallWithValue(target, data, 0, errorMessage);\r\n    }\r\n\r\n    /**\r\n     * @dev Same as {xref-Address-functionCall-address-bytes-}[`functionCall`],\r\n     * but also transferring `value` wei to `target`.\r\n     *\r\n     * Requirements:\r\n     *\r\n     * - the calling contract must have an ETH balance of at least `value`.\r\n     * - the called Solidity function must be `payable`.\r\n     *\r\n     * _Available since v3.1._\r\n     */\r\n    function functionCallWithValue(\r\n        address target,\r\n        bytes memory data,\r\n        uint256 value\r\n    ) internal returns (bytes memory) {\r\n        return\r\n            functionCallWithValue(\r\n                target,\r\n                data,\r\n                value,\r\n                \"Address: low-level call with value failed\"\r\n            );\r\n    }\r\n\r\n    /**\r\n     * @dev Same as {xref-Address-functionCallWithValue-address-bytes-uint256-}[`functionCallWithValue`], but\r\n     * with `errorMessage` as a fallback revert reason when `target` reverts.\r\n     *\r\n     * _Available since v3.1._\r\n     */\r\n    function functionCallWithValue(\r\n        address target,\r\n        bytes memory data,\r\n        uint256 value,\r\n        string memory errorMessage\r\n    ) internal returns (bytes memory) {\r\n        require(\r\n            address(this).balance >= value,\r\n            \"Address: insufficient balance for call\"\r\n        );\r\n        require(isContract(target), \"Address: call to non-contract\");\r\n\r\n        (bool success, bytes memory returndata) = target.call{value: value}(\r\n            data\r\n        );\r\n        return verifyCallResult(success, returndata, errorMessage);\r\n    }\r\n\r\n    /**\r\n     * @dev Same as {xref-Address-functionCall-address-bytes-}[`functionCall`],\r\n     * but performing a static call.\r\n     *\r\n     * _Available since v3.3._\r\n     */\r\n    function functionStaticCall(address target, bytes memory data)\r\n        internal\r\n        view\r\n        returns (bytes memory)\r\n    {\r\n        return\r\n            functionStaticCall(\r\n                target,\r\n                data,\r\n                \"Address: low-level static call failed\"\r\n            );\r\n    }\r\n\r\n    /**\r\n     * @dev Same as {xref-Address-functionCall-address-bytes-string-}[`functionCall`],\r\n     * but performing a static call.\r\n     *\r\n     * _Available since v3.3._\r\n     */\r\n    function functionStaticCall(\r\n        address target,\r\n        bytes memory data,\r\n        string memory errorMessage\r\n    ) internal view returns (bytes memory) {\r\n        require(isContract(target), \"Address: static call to non-contract\");\r\n\r\n        (bool success, bytes memory returndata) = target.staticcall(data);\r\n        return verifyCallResult(success, returndata, errorMessage);\r\n    }\r\n\r\n    /**\r\n     * @dev Same as {xref-Address-functionCall-address-bytes-}[`functionCall`],\r\n     * but performing a delegate call.\r\n     *\r\n     * _Available since v3.4._\r\n     */\r\n    function functionDelegateCall(address target, bytes memory data)\r\n        internal\r\n        returns (bytes memory)\r\n    {\r\n        return\r\n            functionDelegateCall(\r\n                target,\r\n                data,\r\n                \"Address: low-level delegate call failed\"\r\n            );\r\n    }\r\n\r\n    /**\r\n     * @dev Same as {xref-Address-functionCall-address-bytes-string-}[`functionCall`],\r\n     * but performing a delegate call.\r\n     *\r\n     * _Available since v3.4._\r\n     */\r\n    function functionDelegateCall(\r\n        address target,\r\n        bytes memory data,\r\n        string memory errorMessage\r\n    ) internal returns (bytes memory) {\r\n        require(isContract(target), \"Address: delegate call to non-contract\");\r\n\r\n        (bool success, bytes memory returndata) = target.delegatecall(data);\r\n        return verifyCallResult(success, returndata, errorMessage);\r\n    }\r\n\r\n    /**\r\n     * @dev Tool to verifies that a low level call was successful, and revert if it wasn't, either by bubbling the\r\n     * revert reason using the provided one.\r\n     *\r\n     * _Available since v4.3._\r\n     */\r\n    function verifyCallResult(\r\n        bool success,\r\n        bytes memory returndata,\r\n        string memory errorMessage\r\n    ) internal pure returns (bytes memory) {\r\n        if (success) {\r\n            return returndata;\r\n        } else {\r\n            // Look for revert reason and bubble it up if present\r\n            if (returndata.length > 0) {\r\n                // The easiest way to bubble the revert reason is using memory via assembly\r\n\r\n                assembly {\r\n                    let returndata_size := mload(returndata)\r\n                    revert(add(32, returndata), returndata_size)\r\n                }\r\n            } else {\r\n                revert(errorMessage);\r\n            }\r\n        }\r\n    }\r\n}\r\n\r\n// File: @openzeppelin/contracts/token/ERC721/IERC721Receiver.sol\r\n\r\n// OpenZeppelin Contracts v4.4.1 (token/ERC721/IERC721Receiver.sol)\r\n\r\npragma solidity ^0.8.0;\r\n\r\n/**\r\n * @title ERC721 token receiver interface\r\n * @dev Interface for any contract that wants to support safeTransfers\r\n * from ERC721 asset contracts.\r\n */\r\ninterface IERC721Receiver {\r\n    /**\r\n     * @dev Whenever an {IERC721} `tokenId` token is transferred to this contract via {IERC721-safeTransferFrom}\r\n     * by `operator` from `from`, this function is called.\r\n     *\r\n     * It must return its Solidity selector to confirm the token transfer.\r\n     * If any other value is returned or the interface is not implemented by the recipient, the transfer will be reverted.\r\n     *\r\n     * The selector can be obtained in Solidity with `IERC721.onERC721Received.selector`.\r\n     */\r\n    function onERC721Received(\r\n        address operator,\r\n        address from,\r\n        uint256 tokenId,\r\n        bytes calldata data\r\n    ) external returns (bytes4);\r\n}\r\n\r\n// File: @openzeppelin/contracts/utils/introspection/IERC165.sol\r\n\r\n// OpenZeppelin Contracts v4.4.1 (utils/introspection/IERC165.sol)\r\n\r\npragma solidity ^0.8.0;\r\n\r\n/**\r\n * @dev Interface of the ERC165 standard, as defined in the\r\n * https://eips.ethereum.org/EIPS/eip-165[EIP].\r\n *\r\n * Implementers can declare support of contract interfaces, which can then be\r\n * queried by others ({ERC165Checker}).\r\n *\r\n * For an implementation, see {ERC165}.\r\n */\r\ninterface IERC165 {\r\n    /**\r\n     * @dev Returns true if this contract implements the interface defined by\r\n     * `interfaceId`. See the corresponding\r\n     * https://eips.ethereum.org/EIPS/eip-165#how-interfaces-are-identified[EIP section]\r\n     * to learn more about how these ids are created.\r\n     *\r\n     * This function call must use less than 30 000 gas.\r\n     */\r\n    function supportsInterface(bytes4 interfaceId) external view returns (bool);\r\n}\r\n\r\n// File: @openzeppelin/contracts/utils/introspection/ERC165.sol\r\n\r\n// OpenZeppelin Contracts v4.4.1 (utils/introspection/ERC165.sol)\r\n\r\npragma solidity ^0.8.0;\r\n\r\n/**\r\n * @dev Implementation of the {IERC165} interface.\r\n *\r\n * Contracts that want to implement ERC165 should inherit from this contract and override {supportsInterface} to check\r\n * for the additional interface id that will be supported. For example:\r\n *\r\n * ```solidity\r\n * function supportsInterface(bytes4 interfaceId) public view virtual override returns (bool) {\r\n *     return interfaceId == type(MyInterface).interfaceId || super.supportsInterface(interfaceId);\r\n * }\r\n * ```\r\n *\r\n * Alternatively, {ERC165Storage} provides an easier to use but more expensive implementation.\r\n */\r\nabstract contract ERC165 is IERC165 {\r\n    /**\r\n     * @dev See {IERC165-supportsInterface}.\r\n     */\r\n    function supportsInterface(bytes4 interfaceId)\r\n        public\r\n        view\r\n        virtual\r\n        override\r\n        returns (bool)\r\n    {\r\n        return interfaceId == type(IERC165).interfaceId;\r\n    }\r\n}\r\n\r\n// File: @openzeppelin/contracts/token/ERC721/IERC721.sol\r\n\r\n// OpenZeppelin Contracts v4.4.1 (token/ERC721/IERC721.sol)\r\n\r\npragma solidity ^0.8.0;\r\n\r\n/**\r\n * @dev Required interface of an ERC721 compliant contract.\r\n */\r\ninterface IERC721 is IERC165 {\r\n    /**\r\n     * @dev Emitted when `tokenId` token is transferred from `from` to `to`.\r\n     */\r\n    event Transfer(\r\n        address indexed from,\r\n        address indexed to,\r\n        uint256 indexed tokenId\r\n    );\r\n\r\n    /**\r\n     * @dev Emitted when `owner` enables `approved` to manage the `tokenId` token.\r\n     */\r\n    event Approval(\r\n        address indexed owner,\r\n        address indexed approved,\r\n        uint256 indexed tokenId\r\n    );\r\n\r\n    /**\r\n     * @dev Emitted when `owner` enables or disables (`approved`) `operator` to manage all of its assets.\r\n     */\r\n    event ApprovalForAll(\r\n        address indexed owner,\r\n        address indexed operator,\r\n        bool approved\r\n    );\r\n\r\n    /**\r\n     * @dev Returns the number of tokens in ``owner``'s account.\r\n     */\r\n    function balanceOf(address owner) external view returns (uint256 balance);\r\n\r\n    /**\r\n     * @dev Returns the owner of the `tokenId` token.\r\n     *\r\n     * Requirements:\r\n     *\r\n     * - `tokenId` must exist.\r\n     */\r\n    function ownerOf(uint256 tokenId) external view returns (address owner);\r\n\r\n    /**\r\n     * @dev Safely transfers `tokenId` token from `from` to `to`, checking first that contract recipients\r\n     * are aware of the ERC721 protocol to prevent tokens from being forever locked.\r\n     *\r\n     * Requirements:\r\n     *\r\n     * - `from` cannot be the zero address.\r\n     * - `to` cannot be the zero address.\r\n     * - `tokenId` token must exist and be owned by `from`.\r\n     * - If the caller is not `from`, it must be have been allowed to move this token by either {approve} or {setApprovalForAll}.\r\n     * - If `to` refers to a smart contract, it must implement {IERC721Receiver-onERC721Received}, which is called upon a safe transfer.\r\n     *\r\n     * Emits a {Transfer} event.\r\n     */\r\n    function safeTransferFrom(\r\n        address from,\r\n        address to,\r\n        uint256 tokenId\r\n    ) external;\r\n\r\n    /**\r\n     * @dev Transfers `tokenId` token from `from` to `to`.\r\n     *\r\n     * WARNING: Usage of this method is discouraged, use {safeTransferFrom} whenever possible.\r\n     *\r\n     * Requirements:\r\n     *\r\n     * - `from` cannot be the zero address.\r\n     * - `to` cannot be the zero address.\r\n     * - `tokenId` token must be owned by `from`.\r\n     * - If the caller is not `from`, it must be approved to move this token by either {approve} or {setApprovalForAll}.\r\n     *\r\n     * Emits a {Transfer} event.\r\n     */\r\n    function transferFrom(\r\n        address from,\r\n        address to,\r\n        uint256 tokenId\r\n    ) external;\r\n\r\n    /**\r\n     * @dev Gives permission to `to` to transfer `tokenId` token to another account.\r\n     * The approval is cleared when the token is transferred.\r\n     *\r\n     * Only a single account can be approved at a time, so approving the zero address clears previous approvals.\r\n     *\r\n     * Requirements:\r\n     *\r\n     * - The caller must own the token or be an approved operator.\r\n     * - `tokenId` must exist.\r\n     *\r\n     * Emits an {Approval} event.\r\n     */\r\n    function approve(address to, uint256 tokenId) external;\r\n\r\n    /**\r\n     * @dev Returns the account approved for `tokenId` token.\r\n     *\r\n     * Requirements:\r\n     *\r\n     * - `tokenId` must exist.\r\n     */\r\n    function getApproved(uint256 tokenId)\r\n        external\r\n        view\r\n        returns (address operator);\r\n\r\n    /**\r\n     * @dev Approve or remove `operator` as an operator for the caller.\r\n     * Operators can call {transferFrom} or {safeTransferFrom} for any token owned by the caller.\r\n     *\r\n     * Requirements:\r\n     *\r\n     * - The `operator` cannot be the caller.\r\n     *\r\n     * Emits an {ApprovalForAll} event.\r\n     */\r\n    function setApprovalForAll(address operator, bool _approved) external;\r\n\r\n    /**\r\n     * @dev Returns if the `operator` is allowed to manage all of the assets of `owner`.\r\n     *\r\n     * See {setApprovalForAll}\r\n     */\r\n    function isApprovedForAll(address owner, address operator)\r\n        external\r\n        view\r\n        returns (bool);\r\n\r\n    /**\r\n     * @dev Safely transfers `tokenId` token from `from` to `to`.\r\n     *\r\n     * Requirements:\r\n     *\r\n     * - `from` cannot be the zero address.\r\n     * - `to` cannot be the zero address.\r\n     * - `tokenId` token must exist and be owned by `from`.\r\n     * - If the caller is not `from`, it must be approved to move this token by either {approve} or {setApprovalForAll}.\r\n     * - If `to` refers to a smart contract, it must implement {IERC721Receiver-onERC721Received}, which is called upon a safe transfer.\r\n     *\r\n     * Emits a {Transfer} event.\r\n     */\r\n    function safeTransferFrom(\r\n        address from,\r\n        address to,\r\n        uint256 tokenId,\r\n        bytes calldata data\r\n    ) external;\r\n}\r\n\r\n// File: @openzeppelin/contracts/token/ERC721/extensions/IERC721Metadata.sol\r\n\r\n// OpenZeppelin Contracts v4.4.1 (token/ERC721/extensions/IERC721Metadata.sol)\r\n\r\npragma solidity ^0.8.0;\r\n\r\n/**\r\n * @title ERC-721 Non-Fungible Token Standard, optional metadata extension\r\n * @dev See https://eips.ethereum.org/EIPS/eip-721\r\n */\r\ninterface IERC721Metadata is IERC721 {\r\n    /**\r\n     * @dev Returns the token collection name.\r\n     */\r\n    function name() external view returns (string memory);\r\n\r\n    /**\r\n     * @dev Returns the token collection symbol.\r\n     */\r\n    function symbol() external view returns (string memory);\r\n\r\n    /**\r\n     * @dev Returns the Uniform Resource Identifier (URI) for `tokenId` token.\r\n     */\r\n    function tokenURI(uint256 tokenId) external view returns (string memory);\r\n}\r\n\r\n// File: @openzeppelin/contracts/token/ERC721/ERC721.sol\r\n\r\n// OpenZeppelin Contracts (last updated v4.5.0) (token/ERC721/ERC721.sol)\r\n\r\npragma solidity ^0.8.0;\r\n\r\n/**\r\n * @dev Implementation of https://eips.ethereum.org/EIPS/eip-721[ERC721] Non-Fungible Token Standard, including\r\n * the Metadata extension, but not including the Enumerable extension, which is available separately as\r\n * {ERC721Enumerable}.\r\n */\r\ncontract ERC721 is Context, ERC165, IERC721, IERC721Metadata {\r\n    using Address for address;\r\n    using Strings for uint256;\r\n\r\n    // Token name\r\n    string private _name;\r\n\r\n    // Token symbol\r\n    string private _symbol;\r\n\r\n    // Mapping from token ID to owner address\r\n    mapping(uint256 => address) private _owners;\r\n\r\n    // Mapping owner address to token count\r\n    mapping(address => uint256) private _balances;\r\n\r\n    // Mapping from token ID to approved address\r\n    mapping(uint256 => address) private _tokenApprovals;\r\n\r\n    // Mapping from owner to operator approvals\r\n    mapping(address => mapping(address => bool)) private _operatorApprovals;\r\n\r\n    /**\r\n     * @dev Initializes the contract by setting a `name` and a `symbol` to the token collection.\r\n     */\r\n    constructor(string memory name_, string memory symbol_) {\r\n        _name = name_;\r\n        _symbol = symbol_;\r\n    }\r\n\r\n    /**\r\n     * @dev See {IERC165-supportsInterface}.\r\n     */\r\n    function supportsInterface(bytes4 interfaceId)\r\n        public\r\n        view\r\n        virtual\r\n        override(ERC165, IERC165)\r\n        returns (bool)\r\n    {\r\n        return\r\n            interfaceId == type(IERC721).interfaceId ||\r\n            interfaceId == type(IERC721Metadata).interfaceId ||\r\n            super.supportsInterface(interfaceId);\r\n    }\r\n\r\n    /**\r\n     * @dev See {IERC721-balanceOf}.\r\n     */\r\n    function balanceOf(address owner)\r\n        public\r\n        view\r\n        virtual\r\n        override\r\n        returns (uint256)\r\n    {\r\n        require(\r\n            owner != address(0),\r\n            \"ERC721: balance query for the zero address\"\r\n        );\r\n        return _balances[owner];\r\n    }\r\n\r\n    /**\r\n     * @dev See {IERC721-ownerOf}.\r\n     */\r\n    function ownerOf(uint256 tokenId)\r\n        public\r\n        view\r\n        virtual\r\n        override\r\n        returns (address)\r\n    {\r\n        address owner = _owners[tokenId];\r\n        require(\r\n            owner != address(0),\r\n            \"ERC721: owner query for nonexistent token\"\r\n        );\r\n        return owner;\r\n    }\r\n\r\n    /**\r\n     * @dev See {IERC721Metadata-name}.\r\n     */\r\n    function name() public view virtual override returns (string memory) {\r\n        return _name;\r\n    }\r\n\r\n    /**\r\n     * @dev See {IERC721Metadata-symbol}.\r\n     */\r\n    function symbol() public view virtual override returns (string memory) {\r\n        return _symbol;\r\n    }\r\n\r\n    /**\r\n     * @dev See {IERC721Metadata-tokenURI}.\r\n     */\r\n    function tokenURI(uint256 tokenId)\r\n        public\r\n        view\r\n        virtual\r\n        override\r\n        returns (string memory)\r\n    {\r\n        require(\r\n            _exists(tokenId),\r\n            \"ERC721Metadata: URI query for nonexistent token\"\r\n        );\r\n\r\n        string memory baseURI = _baseURI();\r\n        return\r\n            bytes(baseURI).length > 0\r\n                ? string(abi.encodePacked(baseURI, tokenId.toString()))\r\n                : \"\";\r\n    }\r\n\r\n    /**\r\n     * @dev Base URI for computing {tokenURI}. If set, the resulting URI for each\r\n     * token will be the concatenation of the `baseURI` and the `tokenId`. Empty\r\n     * by default, can be overriden in child contracts.\r\n     */\r\n    function _baseURI() internal view virtual returns (string memory) {\r\n        return \"\";\r\n    }\r\n\r\n    /**\r\n     * @dev See {IERC721-approve}.\r\n     */\r\n    function approve(address to, uint256 tokenId) public virtual override {\r\n        address owner = ERC721.ownerOf(tokenId);\r\n        require(to != owner, \"ERC721: approval to current owner\");\r\n\r\n        require(\r\n            _msgSender() == owner || isApprovedForAll(owner, _msgSender()),\r\n            \"ERC721: approve caller is not owner nor approved for all\"\r\n        );\r\n\r\n        _approve(to, tokenId);\r\n    }\r\n\r\n    /**\r\n     * @dev See {IERC721-getApproved}.\r\n     */\r\n    function getApproved(uint256 tokenId)\r\n        public\r\n        view\r\n        virtual\r\n        override\r\n        returns (address)\r\n    {\r\n        require(\r\n            _exists(tokenId),\r\n            \"ERC721: approved query for nonexistent token\"\r\n        );\r\n\r\n        return _tokenApprovals[tokenId];\r\n    }\r\n\r\n    /**\r\n     * @dev See {IERC721-setApprovalForAll}.\r\n     */\r\n    function setApprovalForAll(address operator, bool approved)\r\n        public\r\n        virtual\r\n        override\r\n    {\r\n        _setApprovalForAll(_msgSender(), operator, approved);\r\n    }\r\n\r\n    /**\r\n     * @dev See {IERC721-isApprovedForAll}.\r\n     */\r\n    function isApprovedForAll(address owner, address operator)\r\n        public\r\n        view\r\n        virtual\r\n        override\r\n        returns (bool)\r\n    {\r\n        return _operatorApprovals[owner][operator];\r\n    }\r\n\r\n    /**\r\n     * @dev See {IERC721-transferFrom}.\r\n     */\r\n    function transferFrom(\r\n        address from,\r\n        address to,\r\n        uint256 tokenId\r\n    ) public virtual override {\r\n        //solhint-disable-next-line max-line-length\r\n        require(\r\n            _isApprovedOrOwner(_msgSender(), tokenId),\r\n            \"ERC721: transfer caller is not owner nor approved\"\r\n        );\r\n\r\n        _transfer(from, to, tokenId);\r\n    }\r\n\r\n    /**\r\n     * @dev See {IERC721-safeTransferFrom}.\r\n     */\r\n    function safeTransferFrom(\r\n        address from,\r\n        address to,\r\n        uint256 tokenId\r\n    ) public virtual override {\r\n        safeTransferFrom(from, to, tokenId, \"\");\r\n    }\r\n\r\n    /**\r\n     * @dev See {IERC721-safeTransferFrom}.\r\n     */\r\n    function safeTransferFrom(\r\n        address from,\r\n        address to,\r\n        uint256 tokenId,\r\n        bytes memory _data\r\n    ) public virtual override {\r\n        require(\r\n            _isApprovedOrOwner(_msgSender(), tokenId),\r\n            \"ERC721: transfer caller is not owner nor approved\"\r\n        );\r\n        _safeTransfer(from, to, tokenId, _data);\r\n    }\r\n\r\n    /**\r\n     * @dev Safely transfers `tokenId` token from `from` to `to`, checking first that contract recipients\r\n     * are aware of the ERC721 protocol to prevent tokens from being forever locked.\r\n     *\r\n     * `_data` is additional data, it has no specified format and it is sent in call to `to`.\r\n     *\r\n     * This internal function is equivalent to {safeTransferFrom}, and can be used to e.g.\r\n     * implement alternative mechanisms to perform token transfer, such as signature-based.\r\n     *\r\n     * Requirements:\r\n     *\r\n     * - `from` cannot be the zero address.\r\n     * - `to` cannot be the zero address.\r\n     * - `tokenId` token must exist and be owned by `from`.\r\n     * - If `to` refers to a smart contract, it must implement {IERC721Receiver-onERC721Received}, which is called upon a safe transfer.\r\n     *\r\n     * Emits a {Transfer} event.\r\n     */\r\n    function _safeTransfer(\r\n        address from,\r\n        address to,\r\n        uint256 tokenId,\r\n        bytes memory _data\r\n    ) internal virtual {\r\n        _transfer(from, to, tokenId);\r\n        require(\r\n            _checkOnERC721Received(from, to, tokenId, _data),\r\n            \"ERC721: transfer to non ERC721Receiver implementer\"\r\n        );\r\n    }\r\n\r\n    /**\r\n     * @dev Returns whether `tokenId` exists.\r\n     *\r\n     * Tokens can be managed by their owner or approved accounts via {approve} or {setApprovalForAll}.\r\n     *\r\n     * Tokens start existing when they are minted (`_mint`),\r\n     * and stop existing when they are burned (`_burn`).\r\n     */\r\n    function _exists(uint256 tokenId) internal view virtual returns (bool) {\r\n        return _owners[tokenId] != address(0);\r\n    }\r\n\r\n    /**\r\n     * @dev Returns whether `spender` is allowed to manage `tokenId`.\r\n     *\r\n     * Requirements:\r\n     *\r\n     * - `tokenId` must exist.\r\n     */\r\n    function _isApprovedOrOwner(address spender, uint256 tokenId)\r\n        internal\r\n        view\r\n        virtual\r\n        returns (bool)\r\n    {\r\n        require(\r\n            _exists(tokenId),\r\n            \"ERC721: operator query for nonexistent token\"\r\n        );\r\n        address owner = ERC721.ownerOf(tokenId);\r\n        return (spender == owner ||\r\n            getApproved(tokenId) == spender ||\r\n            isApprovedForAll(owner, spender));\r\n    }\r\n\r\n    /**\r\n     * @dev Safely mints `tokenId` and transfers it to `to`.\r\n     *\r\n     * Requirements:\r\n     *\r\n     * - `tokenId` must not exist.\r\n     * - If `to` refers to a smart contract, it must implement {IERC721Receiver-onERC721Received}, which is called upon a safe transfer.\r\n     *\r\n     * Emits a {Transfer} event.\r\n     */\r\n    function _safeMint(address to, uint256 tokenId) internal virtual {\r\n        _safeMint(to, tokenId, \"\");\r\n    }\r\n\r\n    /**\r\n     * @dev Same as {xref-ERC721-_safeMint-address-uint256-}[`_safeMint`], with an additional `data` parameter which is\r\n     * forwarded in {IERC721Receiver-onERC721Received} to contract recipients.\r\n     */\r\n    function _safeMint(\r\n        address to,\r\n        uint256 tokenId,\r\n        bytes memory _data\r\n    ) internal virtual {\r\n        _mint(to, tokenId);\r\n        require(\r\n            _checkOnERC721Received(address(0), to, tokenId, _data),\r\n            \"ERC721: transfer to non ERC721Receiver implementer\"\r\n        );\r\n    }\r\n\r\n    /**\r\n     * @dev Mints `tokenId` and transfers it to `to`.\r\n     *\r\n     * WARNING: Usage of this method is discouraged, use {_safeMint} whenever possible\r\n     *\r\n     * Requirements:\r\n     *\r\n     * - `tokenId` must not exist.\r\n     * - `to` cannot be the zero address.\r\n     *\r\n     * Emits a {Transfer} event.\r\n     */\r\n    function _mint(address to, uint256 tokenId) internal virtual {\r\n        require(to != address(0), \"ERC721: mint to the zero address\");\r\n        require(!_exists(tokenId), \"ERC721: token already minted\");\r\n\r\n        _beforeTokenTransfer(address(0), to, tokenId);\r\n\r\n        _balances[to] += 1;\r\n        _owners[tokenId] = to;\r\n\r\n        emit Transfer(address(0), to, tokenId);\r\n\r\n        _afterTokenTransfer(address(0), to, tokenId);\r\n    }\r\n\r\n    /**\r\n     * @dev Destroys `tokenId`.\r\n     * The approval is cleared when the token is burned.\r\n     *\r\n     * Requirements:\r\n     *\r\n     * - `tokenId` must exist.\r\n     *\r\n     * Emits a {Transfer} event.\r\n     */\r\n    function _burn(uint256 tokenId) internal virtual {\r\n        address owner = ERC721.ownerOf(tokenId);\r\n\r\n        _beforeTokenTransfer(owner, address(0), tokenId);\r\n\r\n        // Clear approvals\r\n        _approve(address(0), tokenId);\r\n\r\n        _balances[owner] -= 1;\r\n        delete _owners[tokenId];\r\n\r\n        emit Transfer(owner, address(0), tokenId);\r\n\r\n        _afterTokenTransfer(owner, address(0), tokenId);\r\n    }\r\n\r\n    /**\r\n     * @dev Transfers `tokenId` from `from` to `to`.\r\n     *  As opposed to {transferFrom}, this imposes no restrictions on msg.sender.\r\n     *\r\n     * Requirements:\r\n     *\r\n     * - `to` cannot be the zero address.\r\n     * - `tokenId` token must be owned by `from`.\r\n     *\r\n     * Emits a {Transfer} event.\r\n     */\r\n    function _transfer(\r\n        address from,\r\n        address to,\r\n        uint256 tokenId\r\n    ) internal virtual {\r\n        require(\r\n            ERC721.ownerOf(tokenId) == from,\r\n            \"ERC721: transfer from incorrect owner\"\r\n        );\r\n        require(to != address(0), \"ERC721: transfer to the zero address\");\r\n\r\n        _beforeTokenTransfer(from, to, tokenId);\r\n\r\n        // Clear approvals from the previous owner\r\n        _approve(address(0), tokenId);\r\n\r\n        _balances[from] -= 1;\r\n        _balances[to] += 1;\r\n        _owners[tokenId] = to;\r\n\r\n        emit Transfer(from, to, tokenId);\r\n\r\n        _afterTokenTransfer(from, to, tokenId);\r\n    }\r\n\r\n    /**\r\n     * @dev Approve `to` to operate on `tokenId`\r\n     *\r\n     * Emits a {Approval} event.\r\n     */\r\n    function _approve(address to, uint256 tokenId) internal virtual {\r\n        _tokenApprovals[tokenId] = to;\r\n        emit Approval(ERC721.ownerOf(tokenId), to, tokenId);\r\n    }\r\n\r\n    /**\r\n     * @dev Approve `operator` to operate on all of `owner` tokens\r\n     *\r\n     * Emits a {ApprovalForAll} event.\r\n     */\r\n    function _setApprovalForAll(\r\n        address owner,\r\n        address operator,\r\n        bool approved\r\n    ) internal virtual {\r\n        require(owner != operator, \"ERC721: approve to caller\");\r\n        _operatorApprovals[owner][operator] = approved;\r\n        emit ApprovalForAll(owner, operator, approved);\r\n    }\r\n\r\n    /**\r\n     * @dev Internal function to invoke {IERC721Receiver-onERC721Received} on a target address.\r\n     * The call is not executed if the target address is not a contract.\r\n     *\r\n     * @param from address representing the previous owner of the given token ID\r\n     * @param to target address that will receive the tokens\r\n     * @param tokenId uint256 ID of the token to be transferred\r\n     * @param _data bytes optional data to send along with the call\r\n     * @return bool whether the call correctly returned the expected magic value\r\n     */\r\n    function _checkOnERC721Received(\r\n        address from,\r\n        address to,\r\n        uint256 tokenId,\r\n        bytes memory _data\r\n    ) private returns (bool) {\r\n        if (to.isContract()) {\r\n            try\r\n                IERC721Receiver(to).onERC721Received(\r\n                    _msgSender(),\r\n                    from,\r\n                    tokenId,\r\n                    _data\r\n                )\r\n            returns (bytes4 retval) {\r\n                return retval == IERC721Receiver.onERC721Received.selector;\r\n            } catch (bytes memory reason) {\r\n                if (reason.length == 0) {\r\n                    revert(\r\n                        \"ERC721: transfer to non ERC721Receiver implementer\"\r\n                    );\r\n                } else {\r\n                    assembly {\r\n                        revert(add(32, reason), mload(reason))\r\n                    }\r\n                }\r\n            }\r\n        } else {\r\n            return true;\r\n        }\r\n    }\r\n\r\n    /**\r\n     * @dev Hook that is called before any token transfer. This includes minting\r\n     * and burning.\r\n     *\r\n     * Calling conditions:\r\n     *\r\n     * - When `from` and `to` are both non-zero, ``from``'s `tokenId` will be\r\n     * transferred to `to`.\r\n     * - When `from` is zero, `tokenId` will be minted for `to`.\r\n     * - When `to` is zero, ``from``'s `tokenId` will be burned.\r\n     * - `from` and `to` are never both zero.\r\n     *\r\n     * To learn more about hooks, head to xref:ROOT:extending-contracts.adoc#using-hooks[Using Hooks].\r\n     */\r\n    function _beforeTokenTransfer(\r\n        address from,\r\n        address to,\r\n        uint256 tokenId\r\n    ) internal virtual {}\r\n\r\n    /**\r\n     * @dev Hook that is called after any transfer of tokens. This includes\r\n     * minting and burning.\r\n     *\r\n     * Calling conditions:\r\n     *\r\n     * - when `from` and `to` are both non-zero.\r\n     * - `from` and `to` are never both zero.\r\n     *\r\n     * To learn more about hooks, head to xref:ROOT:extending-contracts.adoc#using-hooks[Using Hooks].\r\n     */\r\n    function _afterTokenTransfer(\r\n        address from,\r\n        address to,\r\n        uint256 tokenId\r\n    ) internal virtual {}\r\n}\r\n\r\n// File: contracts/Public.sol\r\n\r\npragma solidity >=0.7.0 <0.9.0;\r\n\r\ncontract ModeMirror is ERC721, Ownable {\r\n    address public pubAddr;\r\n    address public safeCheckaddr;\r\n    address public authMinter1;\r\n    address public authMinter2;\r\n    address public authMinter3;\r\n\r\n    struct Mirror {\r\n        string name;\r\n        string description;\r\n        string image;\r\n        string message;\r\n        string prCreateDate;\r\n        string attrNFTName;\r\n        string attrKeyword;\r\n        string mode;\r\n        address attrCreatorAddr;\r\n    }\r\n\r\n    mapping(uint256 => Mirror) public mirrors;\r\n    mapping(bytes32 => uint256) public DNATokenCheck;\r\n    mapping(string => uint256) public modes;\r\n\r\n    constructor() ERC721(\"Mode Mirror\", \"MM\") {}\r\n\r\n    modifier safeCheck() {\r\n        require(msg.sender == pubAddr || msg.sender == safeCheckaddr);\r\n        _;\r\n    }\r\n\r\n    modifier secureMinter() {\r\n        require(\r\n            msg.sender == authMinter1 ||\r\n                msg.sender == authMinter2 ||\r\n                msg.sender == authMinter3\r\n        );\r\n        _;\r\n    }\r\n\r\n    function safeMint(\r\n        uint256 _tokenId,\r\n        string memory _name,\r\n        string memory _description,\r\n        string memory _image,\r\n        string memory _message,\r\n        string memory _prCreateDate,\r\n        string memory _attrNFTName,\r\n        string memory _attrKeyword,\r\n        string memory _mode,\r\n        address _attrCreatorAddr,\r\n        bytes32 _DNA\r\n    ) public payable secureMinter {\r\n        Mirror memory newMirror = Mirror(\r\n            _name,\r\n            _description,\r\n            _image,\r\n            _message,\r\n            _prCreateDate,\r\n            _attrNFTName,\r\n            _attrKeyword,\r\n            _mode,\r\n            _attrCreatorAddr\r\n        );\r\n        modes[_mode] = _tokenId;\r\n        mirrors[_tokenId] = newMirror;\r\n        DNATokenCheck[_DNA] = _tokenId;\r\n        _safeMint(msg.sender, _tokenId);\r\n    }\r\n\r\n    function mrrName(uint256 _tokenId)\r\n        public\r\n        view\r\n        safeCheck\r\n        returns (string memory)\r\n    {\r\n        return mirrors[_tokenId].name;\r\n    }\r\n\r\n    function mrrDescription(uint256 _tokenId)\r\n        public\r\n        view\r\n        safeCheck\r\n        returns (string memory)\r\n    {\r\n        return mirrors[_tokenId].description;\r\n    }\r\n\r\n    function mrrImage(uint256 _tokenId)\r\n        public\r\n        view\r\n        safeCheck\r\n        returns (string memory)\r\n    {\r\n        return mirrors[_tokenId].image;\r\n    }\r\n\r\n    function mrrMessage(uint256 _tokenId)\r\n        public\r\n        view\r\n        safeCheck\r\n        returns (string memory)\r\n    {\r\n        return mirrors[_tokenId].message;\r\n    }\r\n\r\n    function mrrPRCreateDate(uint256 _tokenId)\r\n        public\r\n        view\r\n        safeCheck\r\n        returns (string memory)\r\n    {\r\n        return mirrors[_tokenId].prCreateDate;\r\n    }\r\n\r\n    function mrrAttrNFTName(uint256 _tokenId)\r\n        public\r\n        view\r\n        safeCheck\r\n        returns (string memory)\r\n    {\r\n        return mirrors[_tokenId].attrNFTName;\r\n    }\r\n\r\n    function mrrAttrKeyword(uint256 _tokenId)\r\n        public\r\n        view\r\n        safeCheck\r\n        returns (string memory)\r\n    {\r\n        return mirrors[_tokenId].attrKeyword;\r\n    }\r\n\r\n    function mrrMode(uint256 _tokenId)\r\n        public\r\n        view\r\n        safeCheck\r\n        returns (string memory)\r\n    {\r\n        return mirrors[_tokenId].mode;\r\n    }\r\n\r\n    function mrrAttrCreatorAddr(uint256 _tokenId)\r\n        public\r\n        view\r\n        safeCheck\r\n        returns (address)\r\n    {\r\n        return mirrors[_tokenId].attrCreatorAddr;\r\n    }\r\n\r\n    function mrrDNA(uint256 _tokenId) public view safeCheck returns (bytes32) {\r\n        bytes32 _DNA = keccak256(\r\n            abi.encodePacked(\r\n                mirrors[_tokenId].name,\r\n                mirrors[_tokenId].description,\r\n                mirrors[_tokenId].image,\r\n                mirrors[_tokenId].message,\r\n                mirrors[_tokenId].prCreateDate,\r\n                mirrors[_tokenId].attrNFTName,\r\n                mirrors[_tokenId].attrKeyword,\r\n                mirrors[_tokenId].mode\r\n            )\r\n        );\r\n        return _DNA;\r\n    }\r\n\r\n    function setPubAddr(address _pubAddr) public onlyOwner {\r\n        pubAddr = _pubAddr;\r\n    }\r\n\r\n    function setSafeCheckAddr(address _safeCheckAddr) public onlyOwner {\r\n        safeCheckaddr = _safeCheckAddr;\r\n    }\r\n\r\n    function setAuthMinter(\r\n        address _authMinter1,\r\n        address _authMinter2,\r\n        address _authMinter3\r\n    ) public onlyOwner {\r\n        authMinter1 = _authMinter1;\r\n        authMinter2 = _authMinter2;\r\n        authMinter3 = _authMinter3;\r\n    }\r\n\r\n    function withdraw() public payable onlyOwner {\r\n        (bool os, ) = payable(owner()).call{value: address(this).balance}(\"\");\r\n        require(os);\r\n    }\r\n}\r\n\r\npragma solidity >=0.7.0 <0.9.0;\r\n\r\ncontract VisibleModes is ERC721, Ownable {\r\n    using Strings for uint256;\r\n    using Counters for Counters.Counter;\r\n\r\n    Counters.Counter private supply;\r\n\r\n    address public btAddr;\r\n    address public addrMirror;\r\n    address public safeCheckAddr;\r\n\r\n    bool public paused = false;\r\n    uint256 private requiredAmount = 1;\r\n    uint256 private cost = .005 ether;\r\n\r\n    struct Message {\r\n        string name;\r\n        string description;\r\n        string image;\r\n        string message;\r\n        string prCreateDate;\r\n        string attrNFTName;\r\n        string attrKeyword;\r\n        string mode;\r\n        address attrCreatorAddr;\r\n    }\r\n\r\n    mapping(uint256 => Message) internal messages;\r\n    mapping(bytes32 => uint256) public DNATokenCheck;\r\n    mapping(string => uint256) public modes;\r\n\r\n    constructor() ERC721(\"Visible Modes\", \"VM\") {}\r\n\r\n    modifier safeCheck() {\r\n        require(msg.sender == safeCheckAddr);\r\n        _;\r\n    }\r\n\r\n    function totalSupply() public view returns (uint256) {\r\n        return supply.current();\r\n    }\r\n\r\n    // mint to receiver\r\n    function safeMint(\r\n        string memory _name,\r\n        string memory _description,\r\n        string memory _image,\r\n        string memory _message,\r\n        string memory _prCreateDate,\r\n        string memory _attrNFTName,\r\n        string memory _attrKeyword,\r\n        string memory _mode,\r\n        address _receiver,\r\n        bytes32 _DNA\r\n    ) public payable {\r\n        require(!paused, \"Contract is paused\");\r\n          IERC721 token = IERC721(btAddr);\r\n        uint256 ownedAmount = token.balanceOf(msg.sender);\r\n        require(\r\n            ownedAmount >= requiredAmount,\r\n            \"You don't own any Builder Token NFTs\"\r\n        );\r\n        require(msg.value >= cost);\r\n        uint256 supplyTokens = totalSupply();\r\n        uint256 numModes = modes[_mode];\r\n        messages[supplyTokens + 1].name = _name;\r\n        messages[supplyTokens + 1].description = _description;\r\n        messages[supplyTokens + 1].image = _image;\r\n        messages[supplyTokens + 1].message = _message;\r\n        messages[supplyTokens + 1].prCreateDate = _prCreateDate;\r\n        messages[supplyTokens + 1].attrNFTName = _attrNFTName;\r\n        messages[supplyTokens + 1].attrKeyword = _attrKeyword;\r\n        messages[supplyTokens + 1].mode = _mode;\r\n        messages[supplyTokens + 1].attrCreatorAddr = msg.sender;\r\n        DNATokenCheck[_DNA] = supplyTokens + 1;\r\n        modes[_mode] = numModes + 1;\r\n        supply.increment();\r\n        _safeMint(_receiver, supply.current());\r\n    }\r\n\r\n    function addressToString(address addr)\r\n        private\r\n        pure\r\n        returns (string memory)\r\n    {\r\n        bytes memory addressBytes = abi.encodePacked(addr);\r\n        bytes memory stringBytes = new bytes(42);\r\n        stringBytes[0] = \"0\";\r\n        stringBytes[1] = \"x\";\r\n        for (uint256 i = 0; i < 20; i++) {\r\n            uint8 leftValue = uint8(addressBytes[i]) / 16;\r\n            uint8 rightValue = uint8(addressBytes[i]) - 16 * leftValue;\r\n            bytes1 leftChar = leftValue < 10\r\n                ? bytes1(leftValue + 48)\r\n                : bytes1(leftValue + 87);\r\n            bytes1 rightChar = rightValue < 10\r\n                ? bytes1(rightValue + 48)\r\n                : bytes1(rightValue + 87);\r\n            stringBytes[2 * i + 3] = rightChar;\r\n            stringBytes[2 * i + 2] = leftChar;\r\n        }\r\n        return string(stringBytes);\r\n    }\r\n\r\n    // call tokenURI\r\n    function tokenURI(uint256 _tokenId)\r\n        public\r\n        view\r\n        virtual\r\n        override\r\n        returns (string memory)\r\n    {\r\n        require(\r\n            _exists(_tokenId),\r\n            \"ERC721Metadata: URI query for nonexistent token\"\r\n        );\r\n        ModeMirror mirror = ModeMirror(addrMirror);\r\n        bytes32 checkDNA = mirror.mrrDNA(_tokenId);\r\n        require(\r\n            checkDNA ==\r\n                keccak256(\r\n                    abi.encodePacked(\r\n                        messages[_tokenId].name,\r\n                        messages[_tokenId].description,\r\n                        messages[_tokenId].image,\r\n                        messages[_tokenId].message,\r\n                        messages[_tokenId].prCreateDate,\r\n                        messages[_tokenId].attrNFTName,\r\n                        messages[_tokenId].attrKeyword,\r\n                        messages[_tokenId].mode\r\n                    )\r\n                ),\r\n            \"Invalid metadata!\"\r\n        );\r\n        address checkCreator = mirror.mrrAttrCreatorAddr(_tokenId);\r\n        require(\r\n            checkCreator == messages[_tokenId].attrCreatorAddr,\r\n            \"Invalid creator!\"\r\n        );\r\n\r\n        Message memory currentMessage = messages[_tokenId];\r\n        return\r\n            string(\r\n                abi.encodePacked(\r\n                    \"data:application/json;base64,\",\r\n                    Base64.encode(\r\n                        bytes(\r\n                            abi.encodePacked(\r\n                                '{\"name\":\"',\r\n                                currentMessage.name,\r\n                                '\", \"description\":\"',\r\n                                currentMessage.description,\r\n                                '\", \"image\":\"',\r\n                                currentMessage.image,\r\n                                '\", \"attributes\": [{\"trait_type\": \"record of\", \"value\": \"',\r\n                                currentMessage.attrNFTName,\r\n                                '\"},'\r\n                                '{\"trait_type\": \"creator keyword\", \"value\": \"',\r\n                                currentMessage.attrKeyword,\r\n                                '\"},'\r\n                                '{\"trait_type\": \"creation date\", \"value\": \"',\r\n                                currentMessage.prCreateDate,\r\n                                '\"},'\r\n                                '{\"trait_type\": \"creator message\", \"value\": \"',\r\n                                currentMessage.message,\r\n                                '\"},'\r\n                                '{\"trait_type\": \"creator address\", \"value\": \"',\r\n                                addressToString(currentMessage.attrCreatorAddr),\r\n                                '\"},'\r\n                                '{\"trait_type\": \"NFT mode\", \"value\": \"',\r\n                                currentMessage.mode,\r\n                                '\"}',\r\n                                \"]}\"\r\n                            )\r\n                        )\r\n                    )\r\n                )\r\n            );\r\n    }\r\n\r\n    //Only Owner\r\n    function pause(bool _state) public onlyOwner {\r\n        paused = _state;\r\n    }\r\n\r\n    function setCost(uint256 _cost) public onlyOwner {\r\n        cost = _cost;\r\n    }\r\n\r\n    function setIconsAddr(address _btAddr) public onlyOwner {\r\n        btAddr = _btAddr;\r\n    }\r\n\r\n    function setAddrMirror(address _addrMirror) public onlyOwner {\r\n        addrMirror = _addrMirror;\r\n    }\r\n\r\n    function setSafeCheckAddr(address _safeCheckAddr) public onlyOwner {\r\n        safeCheckAddr = _safeCheckAddr;\r\n    }\r\n\r\n    function getName(uint256 _tokenId)\r\n        public\r\n        view\r\n        safeCheck\r\n        returns (string memory)\r\n    {\r\n        return messages[_tokenId].name;\r\n    }\r\n\r\n    function getDescription(uint256 _tokenId)\r\n        public\r\n        view\r\n        safeCheck\r\n        returns (string memory)\r\n    {\r\n        return messages[_tokenId].description;\r\n    }\r\n\r\n    function getImage(uint256 _tokenId)\r\n        public\r\n        view\r\n        safeCheck\r\n        returns (string memory)\r\n    {\r\n        return messages[_tokenId].image;\r\n    }\r\n\r\n    function getMessage(uint256 _tokenId)\r\n        public\r\n        view\r\n        safeCheck\r\n        returns (string memory)\r\n    {\r\n        return messages[_tokenId].message;\r\n    }\r\n\r\n    function getprCreateDate(uint256 _tokenId)\r\n        public\r\n        view\r\n        safeCheck\r\n        returns (string memory)\r\n    {\r\n        return messages[_tokenId].prCreateDate;\r\n    }\r\n\r\n    function getAttrNFTName(uint256 _tokenId)\r\n        public\r\n        view\r\n        safeCheck\r\n        returns (string memory)\r\n    {\r\n        return messages[_tokenId].attrNFTName;\r\n    }\r\n\r\n    function getAttrKeyword(uint256 _tokenId)\r\n        public\r\n        view\r\n        safeCheck\r\n        returns (string memory)\r\n    {\r\n        return messages[_tokenId].attrKeyword;\r\n    }\r\n\r\n    function getMode(uint256 _tokenId)\r\n        public\r\n        view\r\n        safeCheck\r\n        returns (string memory)\r\n    {\r\n        return messages[_tokenId].mode;\r\n    }\r\n\r\n    function getAttrCreatorAddr(uint256 _tokenId)\r\n        public\r\n        view\r\n        safeCheck\r\n        returns (address)\r\n    {\r\n        return messages[_tokenId].attrCreatorAddr;\r\n    }\r\n\r\n    function getModeCount(string memory _mode) public view returns (uint256) {\r\n        return modes[_mode];\r\n    }\r\n\r\n    function DNA(uint256 _tokenId) public view safeCheck returns (bytes32) {\r\n        bytes32 _DNA = keccak256(\r\n            abi.encodePacked(\r\n                messages[_tokenId].name,\r\n                messages[_tokenId].description,\r\n                messages[_tokenId].image,\r\n                messages[_tokenId].message,\r\n                messages[_tokenId].prCreateDate,\r\n                messages[_tokenId].attrNFTName,\r\n                messages[_tokenId].attrKeyword\r\n            )\r\n        );\r\n        return _DNA;\r\n    }\r\n\r\n    function withdraw() public payable onlyOwner {\r\n        (bool os, ) = payable(owner()).call{value: address(this).balance}(\"\");\r\n        require(os);\r\n    }\r\n}\r\n",
  "sourcePath": "C:\\Users\\icufi\\Dropbox\\GitHub Uploads\\dapp-public-record\\contracts\\contracts\\VisibleModes.sol",
  "compiler": {
    "name": "solc",
    "version": "0.8.11+commit.d7f03943.Emscripten.clang"
  },
  "schemaVersion": "3.4.7",
  "updatedAt": "2022-04-26T17:55:22.096Z",
  "networkType": "ethereum",
  "devdoc": {
    "kind": "dev",
    "methods": {
      "approve(address,uint256)": {
        "details": "See {IERC721-approve}."
      },
      "balanceOf(address)": {
        "details": "See {IERC721-balanceOf}."
      },
      "getApproved(uint256)": {
        "details": "See {IERC721-getApproved}."
      },
      "isApprovedForAll(address,address)": {
        "details": "See {IERC721-isApprovedForAll}."
      },
      "name()": {
        "details": "See {IERC721Metadata-name}."
      },
      "owner()": {
        "details": "Returns the address of the current owner."
      },
      "ownerOf(uint256)": {
        "details": "See {IERC721-ownerOf}."
      },
      "renounceOwnership()": {
        "details": "Leaves the contract without owner. It will not be possible to call `onlyOwner` functions anymore. Can only be called by the current owner. NOTE: Renouncing ownership will leave the contract without an owner, thereby removing any functionality that is only available to the owner."
      },
      "safeTransferFrom(address,address,uint256)": {
        "details": "See {IERC721-safeTransferFrom}."
      },
      "safeTransferFrom(address,address,uint256,bytes)": {
        "details": "See {IERC721-safeTransferFrom}."
      },
      "setApprovalForAll(address,bool)": {
        "details": "See {IERC721-setApprovalForAll}."
      },
      "supportsInterface(bytes4)": {
        "details": "See {IERC165-supportsInterface}."
      },
      "symbol()": {
        "details": "See {IERC721Metadata-symbol}."
      },
      "tokenURI(uint256)": {
        "details": "See {IERC721Metadata-tokenURI}."
      },
      "transferFrom(address,address,uint256)": {
        "details": "See {IERC721-transferFrom}."
      },
      "transferOwnership(address)": {
        "details": "Transfers ownership of the contract to a new account (`newOwner`). Can only be called by the current owner."
      }
    },
    "version": 1
  },
  "userdoc": {
    "kind": "user",
    "methods": {},
    "version": 1
  }
}